:102F2A0000A8C0003F065B4F666D7D077F6F0001FA
:082F3A0002040810204080FF92
:0E30190012294F1230E9122C5712291180FB98
:0515F40042001CA55A95
:10255A008B2D8A2E892F8D3074FFF531F532E4FDEB
:10256A00EDC39530503EAB2DAA2EA92F8D827583CF
:10257A00001205816232E4FCE53230E013E531C332
:10258A0013FEE53213FFEE64A0FEEF6401FF80093B
:10259A00E531C313FEE53213FF8E318F320CBC08CE
:0925AA00D70D80BCAE31AF322226
:102A390090001EE0702A90006CE07024E4FF743C62
:102A49002FF582E43400F583E0FE74242FF582E447
:102A59003400F583EEF00FBF18E490001E7401F006
:012A6900224A
:10087600752301E4F5247B017A0079267D1412257F
:100886005A8E258F26900024E064A56003020BD4BF
:10089600A3E0645A6003020BD4A3E064026003027F
:1008A6000BD4900028E06003020BD4A3E06401603F
:1008B60003020BD4900030E064086003020BD4A35B
:1008C600E06003020BD490003AE06F6003020BD4A1
:1008D600E525FFA3E06F6003020BD4E490001AF055
:1008E600A3F0F52274242522F582E43400F583E092
:1008F600FF74002522F582E43400F583E06F60037F
:10090600E4F5230522E522B418DA900023E0602FEF
:10091600E523602BE4F522746D2522F582E434008C
:10092600F583E0FF74542522F582E43400F583EF65
:10093600F00522E522B418DF90006C7401F022E481
:10094600F52274242522F582E43400F583E0FF7451
:10095600542522F582E43400F583EFF00522E522E2
:10096600B418DF900057E04480F0A37401F0E4A3CC
:10097600F090006104F075220E74542522F582E48D
:100986003400F583E4F00522E522B416EC90002B42
:10099600E0FE90002AE0FDEEF527EDF52890002711
:1009A600E0FB640170499000637402F0A314F0A3A5
:1009B600F090001F12080B900066EFF090001F12D7
:1009C600080B78081207E4900067EFF090001F12FA
:1009D600080B78101207E4900068EFF090001F12E1
:1009E600080B78181207E4900069EFF0020B6EEB23
:1009F600B4020F90006374FFF0A3F0A37401F00239
:100A06000B6E900027E0B4160D900032E0FF122D19
:100A1600388F24020B6E900027E0B4170D90003239
:100A2600E0FF122DFA8F24020B6E900027E064106F
:100A36007042E52845277003020B6B900018E0B55D
:100A46002714A3E0B5280F9000F8E0FF90002EE0F1
:100A56006F7003020B6E90002EE0FF12180C8F24AD
:100A6600E5246003020B6E900018E527F0A3E52845
:100A7600F0020B6E900027E0B4130612298C020BCD
:100A86006E900018E0B52711A3E0B5280C9000F889
:100A9600E0FF90002EE06F6006752402020B6E9058
:100AA6000027E0B4110690002F020B5C900027E0AF
:100AB600FDB412299000F3E0900063F0900123E06A
:100AC600900064F09000FBE0FEA3E0900065F0EE7D
:100AD600A3F0900126E0900067F0020B6EED64141F
:100AE600702690002FE0B401149000F8E0C3940F34
:100AF600400B7B017A0079631224A2806B7B017A1A
:100B06000079631212048060900027E0FFB4152676
:100B1600E4F52274042522F582E43401F583E0FE2F
:100B260074632522F582E43400F583EEF00522E5B0
:100B360022B407DF8032EF64206008900027E0646B
:100B46002170229000F8E0FF640F6007EF641060E8
:100B5600028012900027E0FF7B017A007932120BA7
:100B6600D58F248003752401900062E524F07B0173
:100B76007A0079567D1412255A8E258F2690006AA2
:100B8600EFF0E525A3F0E4F52274242522F582E4AE
:100B96003400F583E0FF74002522F582E43400F585
:100BA60083EFF074542522F582E43400F583E0FFE8
:100BB600746D2522F582E43400F583EFF00522E515
:0F0BC60022B418C59000237401F090006CF02247
:10211B0090001F12080BEF2401FFE43EFEE43DFD8F
:10212B00E43CFC90001F12082790001AE0FEA3E08D
:10213B00FFE4FCFD7B607AEAF9F8D31207BD400A95
:10214B0090001AE475F00112064912005690001A1D
:10215B00E0B40108A3E0B4F40312298C90006CE006
:10216B006027123090EF702190006CE0B40204E411
:10217B00F080167B017A0079547D187C00122C2F8D
:10218B00BF020690006C7402F090001EE0600D9090
:0D219B00006CE0700790001EF01208762224
:10294F00E490001EF090006CF0900023F0900018BF
:10295F00F0A3F090001F12083300000000E4900075
:10296F001AF0A3F01219017BFF7A21791B7F011254
:0D297F0022BF7BFF7A2A79397F090222BF2F
:102C57007F607E097D007C0012242B752701752873
:102C67000075291C752A00752B027B017A00793CB7
:072C77007D187C00022AFD1C
:102CA5000342031502E302AD0274023A020001C8B1
:102CB500019401630136010E00EB00CC00B10099CF
:062CC500008500730064AD
:0515F9004200F4D37173
:102DDD00E4FF1230E375320A75330A75340A75351E
:0D2DED000A75360A7B0A7D0A7F0A022D9DB9
:102FAA00AB07AD038B328B338B348B358B36022DCB
:012FBA009D79
:071FF500900126F0FF7E00C1
:101FFC008E2D8F2EC3E52E94E8E52D940340127C94
:10200C00037DE81205F47C007D0A1205F4AF05800F
:10201C00027F0AAB07C3E52E9464E52D94004016AD
:10202C00AE2DAF2E7C007D641205F47C007D0A126F
:10203C0005F4AF0580027F0AAA07C3E52E940AE5D2
:10204C002D94004016AE2DAF2E7C007D0A1205F4A7
:10205C007C007D0A1205F4AF0580027F0A8F358A59
:10206C00348B3375320AAE2DAF2E7C007D0A1205EF
:0C207C00F48D367B0A7D0A7F0A022D9D40
:102EC20075320A75330A75340AE4F53590011FE04C
:0B2ED200F5367B0A7D0A7F0A022D9D69
:102D3800EFD3940240037F0122900133E0700690A4
:102D48000114E060037F032290011FEFF0122EC2EE
:032D58007F0022D7
:102DFA00900133E0700C900114E07006EFD3940A4E
:0D2E0A0040037F03227E00121FFC7F002288
:101EAB008E258F26D3E5269442E5259403500BC34C
:101EBB00E5269464E525940050057EFC7F1922E409
:101ECB00F527E52725E024A7F582E4342CF583D309
:101EDB007401939526E4939525505DE52725E02421
:101EEB00A5F582E4342CF583E493FA740193FBC3D8
:101EFB009526FFEA9525FE7C007D051205E2E52778
:101F0B0025E024A7F582E4342CF583E493FC7401DB
:101F1B0093FDC3EB9DFDEA9CFC1205F4AA06AB07EF
:101F2B00AF277E007C007D051205E2EF24FBFFEE60
:101F3B0034FFCF2BCF3AFE220527E52764127082A0
:051F4B007E007F55221D
:10298C00900114E060079001227401F022E49001A0
:10299C0033F09000F3F0122DDD122EC2900113E0F3
:1029AC006019E4900118F078337C00FD7B017A010A
:0C29BC007916FE7F06120542121C9822BC
:1025B3008D22900133E0604F9000F8E0FE640560E7
:1025C30005EE64067041E522603D900102E06F6014
:1025D300059000FD802EE522B4011B9001327401A9
:1025E300F09000F8E0B40606EF24FEFF8003EF044A
:1025F300FF7E00121FFCE522B4020C900132E06062
:08260300069001127401F0229F
:102F4200E4FF122853AD07E4FF1225B37F011228D4
:082F520053AD077F010225B316
:1026B000E4FF12273FAD077F021225B37F051227E3
:1026C0003FAD077F031225B37F0212273FAD077F7F
:1026D000041225B37F0412273FAD077F051225B3EF
:1026E0007F0112273FAD077F061225B37F03122714
:0826F0003FAD077F070225B38F
:1029C800120003AD07900133E060309000F8E06436
:1029D8000A7028BD0107900103E04401F0BD020A16
:1029E800900103E030E0034402F0900103E0FFB4FB
:0C29F80003047F0280007E00121FFC22FE
:102C7E00122FECEF6020900133E0601A9000F8E024
:102C8E00B40B13900115E0C394FF500AE004F0E07A
:072C9E00FF7E00121FFC2263
:101BC500900133E07003021C979000F8E0FF640F6A
:101BD5006008EF64106003021C977B017A01793B72
:101BE5007D0612255A9001067408F0A3E004F090D2
:101BF5000141E0B50707AF06A3E06F600C90013522
:101C0500E004F0900105021C94900108E004F090B6
:101C1500013BE064D3706FA3E0647170699000FECE
:101C2500E0FEA3E0FD90013DE0FCED6C7058EEFF99
:101C3500A3E0FEEF6E704F9000F9A3E0FF90013F27
:101C4500E0FEEF6E704090011EE0FE900140E0B5B1
:101C55000634900104E06006900134E004F0900140
:101C6500047401F074F62EF582E43400F583C08324
:101C7500C082E0FE7401A807088002C333D8FC4E79
:101C8500D082D083F022900105E004F0900136E087
:031C950004F02236
:102A04001230EF900133E0602B9000F8E0B40F2413
:102A1400900106EFF0BF0805121BC5800C9001055C
:102A2400E004F0900137E004F07B017A01793B7D0A
:052A3400081230BF2272
:1024A2008B298A2A892BE4FF74342FF582E43401C4
:1024B200F583E0AB29AA2AA92B8F82758300120526
:1024C200C00FBF07E39000F9A3E0AB29AA2AA92B0A
:1024D2009000041205C090011EE09000051205C094
:1024E2009000F8E0B40F05122EA68003123085ABDF
:0C24F20029AA2AA92B900006EF0205C0C1
:10190100E49000F8F09000F3F0900123F09000FBD8
:10191100F0A3F09000FEF0A3F09000F9F0A3F09096
:10192100011EF0900133F0900132F0900112F0901D
:1019310000FDF0900103F0900115F0900114F0907A
:10194100011DF0900122F0900113F0900100F0A32D
:10195100F0900124F0A3F0900120F0A3F07F079014
:101961000104E4F0A3DFFCE490011FF0900127F0F3
:10197100900126F0122EDD7D07E4FF1230A4122E15
:10198100347F98122A6A122D7D122E17122E517F42
:101991002B122FDC7B017A01793B7D081230BF7B52
:1019A100FF7A2F79427F041222BF7BFF7A2679B01A
:1019B1007F071222BF7BFF7A2979C87F051222BFD8
:1019C1007BFF7A2C797E7F061222BF7BFF7A1B79FF
:1019D100C57F0A1222BF7BFF7A2A79047F0B12226C
:0E19E100BF122DDD122EC290011C74FFF022E9
:10180C008F29E529C394014007E529D3941040039F
:10181C007F0122900114E060037F032212298C9037
:10182C0000F8E529F09000F37401F0E4900123F046
:10183C009000FBF0A3F090011C74FFF0E4900122E7
:10184C00F07F07900104E4F0A3DFFC7F07E5296437
:10185C000D701C90011DE060037F04227F7F122E0F
:10186C006E900104EFF0645AA3F07401121FF5E5B9
:10187C0029B40C261230D6780B7C017D017E007FBA
:10188C0007120542782A7C007D007B017A01790BD6
:10189C007E007F0712054212170EE529C3940F40F4
:1018AC0007E49000F6F0A3F0E529B40F167B017A5B
:1018BC0001793B7D081230BF7BFF7A2A79047F0BBC
:1018CC001222BFE529B4102A752E017FB07E047D4B
:1018DC00007C00121D4E752F017530007531F475AA
:1018EC0032007533027B017A01793B7D087C001252
:0518FC002ACC7F002250
:100BD5008F298B2A8A2B892C900114E060037F03CF
:100BE5002290011CE0FEB5290C9000F8E0C3940F9B
:100BF50050037F00229000F8E0FDB40D0D90011D1B
:100C0500E07004EEF460037F0422EDB40D14AB2A0A
:100C1500AA2BA92C120568FF900104E06F60037FE1
:100C250005229000F8E0B4050AE529D394024003B3
:100C35007F01229000F8E0FEB4060AE529D394046A
:100C450040037F0122EE640F600B9000F8E0641012
:100C55006003020D97E52964206003020CF3AB2ABB
:100C6500AA2BA92C900001120581FE120568FDED45
:100C7500FF9000FEEEF0A3EFF0900002120581FD5B
:100C85009000F9E4F0A3EDF09000031205819001C6
:100C95001EF0EF4E6017D39000FAE094049000F92F
:100CA500E09400500890011EE0940140037F01226A
:100CB5007F07900104E4F0A3DFFC7F07900134E493
:100CC500F0A3DFFCE4900127F07F0890013BE4F0FE
:100CD500A3DFFC7F089000F8E0640F6003020D9726
:100CE5007B017A01793B7D081230BF020D97E5291A
:100CF50064216003020D94900133E070037F0222AA
:100D05009000F8E0B40F09122EA6EF60037F0322CE
:100D15009000F8E0B41009123085EF60037F0322DC
:100D250090014374D3F0A37471F09000FEE0FEA32C
:100D3500E0900145F0EEA3F09000F9A3E0900147A3
:100D4500F090011EE0900148F07B017A0179437D26
:100D55000612255A900149EFF0A3EEF09000F8E055
:100D6500B40F137B017A0179437D081228D2EF6411
:100D75000260107F03227B017A0179437D087C00A4
:100D8500122B2E9001097401F0900127F080037F4A
:100D950001229001337401F09000F304F0E4900017
:100DA500FBF0A3F090011CE529F090012674FFF0FB
:100DB500E4900132F0900112F09000FDF0900103F3
:100DC500F0900115F09000F8E0FFB40607E529243E
:100DD50003FE8002AE29900102EEF0EF6405601279
:100DE5009000F8E0FF64066009EF640A6004EFB460
:100DF5000B06E4FFFE121FFC9000F8E0640D70295D
:100E0500AB2AAA2BA92C120568FF900104E06F609C
:100E1500037F05227402121FF5900105E0FD7F7F17
:100E250012000E9001147401F09000F8E0640E7049
:100E35004D9001167403F0A374BBF0A37406F0E49F
:100E4500A3F0A3F0A3F0900113E0701C782D7C00B3
:100E5500FD7B017A017916FE7F06120542122CCB25
:100E65009001137401F0801678337C007D007B01BE
:100E75007A0179167E007F06120542121C987F00C2
:010E8500224A
:10005600900114E0FF70030201499000FBE475F083
:1000660001120649EFB40128C39000FCE0941E90EB
:1000760000FBE0940040199001267403121FF87FDC
:100086007F122E6E900106EFF09001147403802DFE
:10009600900114E0B4032FC39000FCE0941E90007E
:1000A600FBE0940040209001267404121FF8900192
:1000B60004E0FD7F7F12000E9001147402F0E490BC
:1000C60000FBF0A3F022900114E064026003020436
:1000D60071C39000FCE0941E9000FBE09400500376
:1000E6000204719001267405121FF87F7F122E6E8E
:1000F600900107EFF0E4900114F0900133F09000C6
:10010600F37403F0900105E0FFA3E0B5070C90013E
:1001160004E0FF900107E06F601D900104E0FF908E
:100126000107E06F60047F0780027F06900123EFDE
:10013600F090011D7401F0900122E0700302047139
:1001460002046EE47B0AFAF9F890001F12080B12FB
:10015600072BAC00AD01AE02AF03E4FBFAF9F8C31E
:100166001207D370381230C878287C017D017E00D2
:100176007F0A12054290012CE0FFA3E0900124CFF4
:10018600F0A3EFF090012EE0FFA3E0900120CFF066
:10019600A3EFF0900100E475F001120649900133D7
:1001A600E07003020471900127E060259000F8E0FA
:1001B600B40F06122EA6EF600D9000F8E0B41011F1
:1001C600123085EF700B90010A7401F0E49001275C
:1001D600F0E47B0AFAF9F890001F12080B12072BBD
:1001E600AC00AD01AE02AF03E4FBFAF9F8C31207A7
:1001F600D3600302030E9000F8E064087057900184
:1002060024E0FEA3E0FF121EAB8E238F24E524B468
:100216001916E523B4FC1175320A753311753411BC
:10022600753511753611801BC3E5236480948050A3
:100236001D75320A75330A75341175350AE524F4CD
:1002460004F5367B0A7D0A7F0A122D9D8007AF24AE
:10025600AE23121FFC9000F8E0B4090B900120E0D9
:10026600FEA3E0FF121FFC9000F8E0640C7043123E
:1002760030D6780B7C017D017E007F071205429007
:10028600010DE0FEC4540FFFEE540FFD90010CE08B
:10029600FEC4540FF532EE540FF533753411900148
:1002A6000BE0FEC4540FF535EE540FF5367B1112F4
:1002B6002D9D9000F8E0C3940F404DE4FDFC9001A5
:1002C6001EE024F6F582E43400F583E0FB7A007440
:1002D600017E00A804088005C333CE33CED8F9FFCB
:1002E600EE5AFEEF5B4E60010D0CBC05D175320A6D
:1002F60090011EE004F53375340A75350A8D367B98
:100306000A7D0A7F0A122D9D9000FBE0FEA3E0FF06
:10031600E4FCFD7B607AEAF9F8D31207BD400A9047
:1003260000FBE475F0011206499000F8E0640370E2
:100336004E9000FBE0FEA3E0FF7C007D461205F434
:100346008F22900126E065226023E522F0C39408FF
:10035600500D7401A807088002C333D8FC800AE553
:1003660022B408047FFF8002E4FF1230E3E522C3D3
:10037600940A400B9000F37403F0E4900133F0907C
:1003860000F8E0640470679000FBE0FEA3E0FF7CE9
:10039600007D961205F48F22900126E06522603CCE
:1003A600E522F070047F13802BE522B4011A753222
:1003B600047533057534067535077536087B037D78
:1003C600027F01122D9D8014E522C3940A500AE58E
:1003D600222409FF122FAA8003122DDDE522C394E1
:1003E6000A400B9000F37403F0E4900133F09000A0
:1003F600F8E06407705C9000FBE07004A3E0640121
:10040600700A7D14FC7F207E0312233C9000FBE0E3
:100416007004A3E06432700A7D14FC7FB07E04127F
:10042600233C9000FBE07004A3E06464700A7D1432
:10043600FC7F087E0712233CC39000FCE094829068
:1004460000FBE09400400BE4900133F09000F3745D
:1004560003F09000F8E0B40E12C39000FCE094E0C4
:0C0466009000FBE0942E400312298C2231
:101204008B298A2A892BE4F52CAB29AA2AA92B85B8
:101214002C82758300E41205C0052CE52CB407E983
:101224009000F8E0FF64056005EF640670319001FA
:1012340032E0AB29AA2AA92B1205AE900112E0AB29
:1012440029AA2AA92B9000011205C09000FDE09064
:1012540000021205C0900102E0900003021378908E
:1012640000F8E0FF64086005EF640970469001240B
:10127400A3E0AB29AA2AA92B1205AE900124E0AB66
:1012840029AA2AA92B9000011205C0900120E0FE92
:10129400A3E09000021205C0EE9000031205C09076
:1012A4000100E0FEA3E09000041205C0EE900005EA
:1012B4000213789000F8E0FFB40A05900103800758
:1012C400EFB40B0D900115E0AB29AA2AA92B020556
:1012D400AE9000F8E0640C705E1230D6780B7C019E
:1012E4007D017E007F0712054290010BE0AB29AA25
:1012F4002AA92B1205AE90010CE0AB29AA2AA92B2E
:101304009000011205C090010DE09000021205C08A
:1013140090010EE09000031205C090010FE09000D0
:10132400041205C0900110E09000051205C0900160
:1013340011E0900006803D9000F8E0640E703812D1
:1013440024FE78167C017D017E007F061205429002
:101354000116A3E0AB29AA2AA92B1205AE90011607
:10136400E0AB29AA2AA92B9000011205C09001180C
:10137400E09000020205C0E4F52C7404252CF582EB
:10138400E43401F583E0AB29AA2AA92B852C8275C4
:0D13940083001205C0052CE52CB407DE22F5
:09309B008B88898C88898F888953
:1015FE00520157868600868600868600868600867D
:09160E00860086860041014C09AA
:03002B000230DDC3
:0630DD0053BCEFD20F32DC
:02105800154839
:10105A00200F03021201C20F90014BE0B4090040B5
:10106A00030211E3901075F82828730210BC0210CD
:10107A00900210A20210CE0210900210A20210E5F5
:10108A000210900210A2AFBDEFFEADBE7C00E42DAF
:10109A00FFEC3E90014D803CAFBDEFFEADBE7C0043
:1010AA00E42DFFEC3E90014FF0A3EFF0753F0102F3
:1010BA0011E9AFBDEFFEADBE7C00E42DFFEC3E9022
:1010CA0001518010AFBDEFFEADBE7C00E42DFFECF8
:1010DA003E900153F0A3EFF00211E9AFBDEFFEAD70
:1010EA00BE7C00E42DFFEC3E900155F0A3EFF0909A
:1010FA000155E0FEA3E07807CEC313CE13D8F9A8B2
:10110A0048F6C394065013A848E675F003A424577A
:10111A00F582E43401F583E014F090014CE014F018
:10112A0060030211E97409F0A848E4F6A848E6FF4A
:10113A00C3940640030211E9EF75F003A42457F59E
:10114A0082E43401F583E0C39480502AE6FF75F007
:10115A0003A42458F582E43401F583E0D394804053
:10116A0040EF75F003A42459F582E43401F5837441
:10117A0001F0F540802BA848E6FF75F003A4245837
:10118A00F582E43401F583E0C394805014EF75F0DE
:10119A0003A42459F582E43401F5837402F07540FE
:1011AA0001A848E6FF75F003A42457F582E4340148
:1011BA00F583E0FEEF75F003A42458F582E43401C8
:1011CA00F583EEF0E675F003A42457F582E43401C2
:1011DA00F5837486F00602113690014B74FFF09085
:1011EA00014BE0D39407400374FFF090014BE004F5
:0711FA00F090309B93F5BC5F
:031201000548227B
:0230270015484A
:09302900A848A640E4F540E6FFCA
:033032000548222C
:0230350015483C
:09303700A848A63FE4F53FE6FFBE
:033040000548221E
:102A6A008F9D75BC88439720D2AD9000CA74FFF041
:102A7A00A37410F0A37458F0A374FFF0A37430F099
:102A8A00A37427F0A374FFF0A37430F0A37435F095
:012A9A002219
:0730C8007B017A01794D2222
:10273F00C3EF64809480403BD3EF64809485503323
:10274F00EFFD3395E0FC90015975F003ED1208642D
:10275F00EC75F003A42583F583E0FE90015975F025
:10276F0003ED120864EC75F003A42583F583E4F000
:05277F00AF06227F03FC
:012784002232
:042BDF001548154838
:102BE3001230ADA848A60608A607A848E6FE08E6E0
:0F2BF300FF4E600BEF24FFFFEE34FFFE1230B6F3
:052C0200054805482211
:102D7D0053B1EF43B21012003EE4F5D975DA49D2E2
:102D8D00DE9000C474FFF0A3742BF0A374DFF02267
:08233C008E258F268C278D28C9
:102344001230ADEF4E7066AF28AE271230B6C3E53B
:1023540026940AE5259400404BE47B18FAF9F8909A
:102364002F2A12081712072BC006C007AE25AF2666
:10237400AB07AA06E4F9F8D007D00612072BAB077F
:10238400AA06AFF9EFFEADE97C00E42DFFEC3ECFE9
:102394002BCF3AAD07FCAF03AE02122FBBD2D8430A
:0F23A400DA01800612003E53DAFE7F02227F0329
:0123B3002207
:0C306D001230ADEF4E7002FF227F0122F6
:101ADC00E4F58090019EE0FFB40800505F901AF08E
:101AEC00F8282873021B08021B0E021B14021B1A77
:101AFC00021B20021B2A021B34021B3EC2A3C2A2E1
:101B0C008016C2A3C2A2801AC2A3C2A2801EC2A304
:101B1C00C2A28022C2A3D2A2C2A1C2A08020C2A310
:101B2C00D2A2C2A1D2A08016C2A3D2A2D2A1C2A01C
:101B3C00800CC2A3D2A2D2A1D2A08002D2A3C3EFA6
:101B4C0064809488502990019EE0FF3395E0FE74E8
:101B5C00952FF58274013EF583E0FF3395E0FE741A
:101B6C002E2FF582742F3EF583E493F580801E9022
:101B7C00019EE0FFB408133395E0FE74952FF582B7
:101B8C0074013EF583E0F5808003E4F580900194C8
:101B9C00E0FF90019EE004FEF0D3EF6480F8EE6469
:101BAC0080984014E0D36480948850047408F02228
:091BBC00900193E090019EF022DB
:102EDD00E4F5937594FF5395F043960F9000AF74FE
:0B2EED00FFF0A3741AF0A374DCF022C5
:0930A400900193EFF0A3EDF0227E
:102D9D00900195EFF0A3EDF0A3EBF0A3E532F0A3D6
:102DAD00E533F0A3E534F0A3E535F0A3E536F022E5
:0630E30090019DEFF022B8
:101617000145004101BE004101BB054101BC8341B9
:0316270001BD837F
:102785002092069001BCE014F09001BBE014F070BB
:10279500347405F0A3E0FFC39480500EA3E0948049
:1027A5004018A37401F0F54580109001BDE0C39475
:1027B500805007A37402F07545019001BDEFF090BC
:0527C50001BC7483F06B
:0127CA0022EC
:0230430015482E
:09304500A848A645E4F545E6FFA4
:03304E0005482210
:102E17009000BB74FFF0A37430F0A37443F09000EC
:0D2E2700B874FFF0A37427F0A37485F022A7
:070003009001BEE0FFE4F0F4
:01000A0022D3
:10162A000146004901A094940094940094940041C6
:03163A00019F1EEF
:0214D1001548BC
:1014D30020B2069001A0E014F020B3069001A3E02F
:1014E30014F02097069001A6E014F090019FE014F9
:1014F300F060030215F1741EF0A848E4F6A848E66C
:10150300FFC36480948340030215F1EF3395E0FE3B
:101513009001A075F003EF120864EE75F003A425A3
:1015230083F583E0C3948050399001A175F003EFF4
:10153300120864EE75F003A42583F583E0D3948049
:10154300405AE6FF3395E0FE9001A275F003EF12D7
:101553000864EE75F003A42583F5837401F0F54662
:10156300803AA848E6FF3395E0FE9001A175F003A9
:10157300EF120864EE75F003A42583F583E0C394AA
:101583008050199001A275F003EF120864EE75F014
:1015930003A42583F5837402F0754601A848E6FF8A
:1015A300FD3395E0FC9001A075F003ED120864ECA7
:1015B30075F003A42583F583E0FE9001A175F00384
:1015C300ED120864EC75F003A42583F583EEF0EFC8
:1015D3003395E0FE9001A075F003EF120864EE75F9
:0E15E300F003A42583F5837494F0060215002E
:0315F10005482288
:02305100154820
:09305300A848A646E4F546E6FF94
:03305C0005482202
:102E34009000B574FFF0A37430F0A37451F09000C7
:0D2E4400B274FFF0A37414F0A374D1F02257
:10285300EF600764016003BF0233EFFD3395E0FCD3
:102863009001A275F003ED120864EC75F003A42542
:1028730083F583E0FE9001A275F003ED120864EC8A
:0F28830075F003A42583F583E4F0AF06227F03ED
:012892002223
:10163D004100850A4100AE0A4100F20A040E000085
:10164D0000000114004600EC0000FFFF8FFFC10DEC
:10165D00C105C108C101C10E6024008AFF0029FF28
:10166D000029FF0029FF0029FF0029FF0029FF00A5
:10167D0029FF0029FF0029FF0029FF0029FF00296C
:10168D00603600AFFF0029FF0029FF0026FF00296B
:10169D00FF0026FF0029FF0026FF0029FF0029FF7C
:1016AD000029FF0026FF0026FF0026FF0026FF0071
:0A16BD0029FF0029FF0029FF002982
:0100290022B4
:030026007F002236
:1026F800438E805389F07BE07A2879017800902F07
:102708002A12081712280FEFF404F58A7BE07A28BA
:1027180079017800902F2A12081712280FC3E49F16
:10272800FFE49EFE74019DFDE49CFC78081207F707
:072738008F8CD28CD2A92284
:03000B0002265E6C
:04265E00C0E0C0D048
:10266200D5080A75084C300D020514D20DA203726A
:10267200045036150AE50A7030850C0AD207300A72
:1026820017E50D6007150D438F01801D538FFEC2A4
:10269200B5D51615C20A8011050BE50BD394064079
:0926A20008C203E5136002D20630
:0526AB00D0D0D0E032A8
:10260B00300E47C20E902F2A12081778101207F7B8
:10261B008E418F42900088E0FEA3E0FFE4FCFD7B3F
:10262B0019FAF9F81206A0C006C007AE41AF42ABCB
:10263B0007AA06E4F9F8D007D00612280F78031280
:10264B0007F79000EAEEF0A3EFF09000EAE0FEA3AC
:02265B00E0FF9E
:01265D00225A
:0930AD009000ECE0FEA3E0FF221C
:0930B6009000ECEEF0A3EFF02213
:102FBB009000F0EEF0A3EFF09000EEECF0A3EDF04C
:012FCB0022E3
:03003E00C2B42227
:03003B00021E039F
:101E0300C0E0C083C082C0D075D000C004C005C08C
:031E130006C007FF
:101E160030DF04C2DF807D30DA04C2DA807630D962
:101E26003DC2D9AFFBEFFEADEB7C00E42DFFEC3EEF
:101E360020000E900086F0A3EFF075DB11D2008033
:101E460053FE900086E0FCA3E0FDC3EF9DFFEE9CF1
:101E5600A3F0A3EFF075DB00C200D20E803630D8B7
:101E660033C2D89000ECE07002A3E06022B2B490D6
:101E760000EEE0FEA3E0F5EAEEF5FAA3E0FEA3E04D
:101E8600FF9000EFE02FF09000EEE03EF08005C2FC
:041E9600B453DAFE69
:101E9A00D007D006D005D004D0D0D082D083D0E0ED
:011EAA003205
:0630E9001226F8D2AF220E
:102234003004047F0180027F00200A047E018002B2
:102244007E00EE5F6074E515C39509506830023670
:10225400750D01E515131313541FAB17AA18A9190B
:10226400F582758300120581FFE515540704FEEF1E
:10227400A806088002C333D8FC30D705751603803E
:102284002F751601802AAB17AA18A91975F002E553
:1022940015A4F58285F083120581F50DE51575F019
:1022A40002A429F9EA35F0FA900001120581F51625
:0A22B4000515D20A22C204438F1060
:0122BE0022FD
:1019EF00900085E014F0701F740AF0D2059000AEDD
:1019FF00E014F07012740AF0D2089000F2E014F0C4
:101A0F007005740AF0D2019000AFA3E0FAA3E0F9D9
:101A1F001208709000B2A3E0FAA3E0F912087090D8
:101A2F0000BEA3E0FAA3E0F91208709000CAA3E089
:101A3F00FAA3E0F91208709000D9A3E0FAA3E0F935
:101A4F001208709000E2A3E0FAA3E0F91208709078
:101A5F0000D0A3E0FAA3E0F9120870EF600C900039
:101A6F00A2A3E0FAA3E0F91208709000D3A3E0FA62
:101A7F00A3E0F9120870EF600E9000A5A3E0FAA39F
:101A8F00E0F9120870D20BE512D394004016D5126C
:101A9F003030090C9000A8A3E0FAA3E0F912087007
:101AAF00D20C801D9000D6A3E0FAA3E0F9120870C3
:101ABF00EF600E9000A8A3E0FAA3E0F9120870D22D
:0D1ACF000C90008AA3E0FAA3E0F902087071
:102088009000C4A3E0FAA3E0F91208709000C7A377
:10209800E0FAA3E0F91208709000B8A3E0FAA3E010
:1020A800F912087090008DA3E0FAA3E0F912087005
:1020B8009000B5A3E0FAA3E0F9120870EF600C9065
:1020C8000096A3E0FAA3E0F91208709000BBA3E021
:1020D800FAA3E0F9120870EF600C90009CA3E0FAF4
:1020E800A3E0F91208709000CDA3E0FAA3E0F9127A
:1020F8000870EF600C90009FA3E0FAA3E0F91208C3
:102108007030060EC2069000ABA3E0FAA3E0F91205
:032118000870222A
:10289300900090A3E0FAA3E0F91208709000C1A39E
:1028A300E0FAA3E0F9120870EF600C900099A3E03E
:1028B300FAA3E0F91208709000DCA3E0FAA3E0F9B0
:0F28C3001208709000DFA3E0FAA3E0F90208709A
:102B8B00AF11AE10AD0FAC0E9000E5120827900000
:102B9B00E9E514F0E4F511F510F50FF50EF51490C9
:0B2BAB000093A3E0FAA3E0F902087019
:10291100300705C207122234300D05C20D1219EF1E
:10292100300505C205122088300805C20812289317
:10293100300105C201122B8BE5112401F511E4359B
:0E29410010F510E4350FF50FE4350EF50E22FB
:1022BF008B2A8A2B892CEFB40C0050709022D2F805
:1022CF002828730222F60222FB02230002230502B2
:1022DF00230A02230F02231402231902231E0223AF
:1022EF002302232802232D90008A803590008D80B1
:1022FF0030900090802B9000938026900096802144
:10230F0090009C801C900099801790009F801290E5
:10231F0000A2800D9000A580089000A88003900077
:0D232F00ABE52AF0A3E52BF0A3E52CF0228E
:0730CF007B017A0079E52284
:0716C7000147004101BF00D3
:0D002E0020A4097547019001BF7401F02264
:02305F00154812
:09306100A848A647E4F547E6FF84
:03306A00054822F4
:102E51009000C174FFF0A37430F0A3745FF0900090
:0D2E6100BE74FFF0A37400F0A3742EF022E5
:022FEC00154886
:0A2FEE009001BFE0A848F6FFE4F0F0
:032FF80005482267
:0416CE004101B10124
:102EF800C295E4FEEF1392CC000000D29500EFC318
:082F080013FFC2950EBE08EC98
:012F1000229E
:102F5A00E4FEEFC313FF30CC03430780D295000091
:072F6A0000C2950EBE08EB4A
:012F7100223D
:102B5D00F07F85122B70A3EFF07F87122B70A3EF00
:032B6D00F07F896D
:102B7000C296000000C295000000D29600122EF806
:0A2B8000122F5AD295000000C296F1
:012B8A002228
:032DBD00A3E0FD93
:102DC000C296000000C295000000D29600122EF8B4
:0D2DD000AF05122EF8D295000000C2962229
:0730D6007B017A0179AA22B7
:102F110078AA7C017D017B007A0079317E007F07F0
:092F2100120542E49001B1F02216
:102F9800EFD3941F5009EF25E044C1FF022B707F47
:022FA800012204
:102BB600AC07AB05ECD3941F501CE4FD7F8E122DA1
:102BC600C0EC25E044C0FFAD03122DC07D807F8E92
:092BD600122DC07F00227F0122B4
:021F5000154832
:101F52009001B1E060447F81122B70A848EFF690A7
:101F620001AAE06F7003021FF2A848E6F07F831215
:101F72002B70A848EFF6A3E06F6075A848E6122B15
:101F82005DA3EFF07F8D122B709001B0EFF07F8B8D
:101F9200122B709001AFEFF080569001A9E0FF0480
:101FA200F0EFC3940A4049E4F09001B104F0E4FD7B
:101FB2007F8E122DC09001AAE0FD7F80122DC07F7E
:101FC20082122DBD7F84122DBDA3E0FD7F86122DCE
:101FD200C0A3E0FD7F88122DC0A3E0FD7F8A122DF1
:101FE200C0A3E0FD7F8C122DC07D807F8E122DC09C
:031FF2000548227D
:10170E007F81122B709001AAEFF07F83122B70A3B2
:10171E00EF122B5DA3EFF07F8B122B70A3EFF07FF8
:10172E008D122B70A3EFF0E4FD7F8E122DC07F1E65
:10173E00122F98EF64A560047F0180027F00900154
:10174E00AAE05480FEA3E0D3945940047D018002A8
:10175E007D00ED4EFE9001ACE0D394A440047D01DB
:10176E0080027D00ED4EFE9001ADE0D39431400439
:10177E007D0180027D00ED4EFE9001AEE0D394120D
:10178E0040047D0180027D00ED4EFE9001AFE0D35E
:10179E00940740047D0180027D00ED4EFE9001B065
:1017AE00E0D3949940047D0180027D00ED4E4F60A0
:1017BE003078317C007D007B007A00792A7E007FB4
:1017CE0007120542122F117DA57F1E122BB678AA85
:1017DE007C017D017B007A00792A7E007F0712054D
:1017EE00427DA97F90122DC07D807F8E122DC090DC
:0E17FE0000DF74FFF0A3741FF0A37450F022FC
:102FCC00D2C0000000D2CD000000C2C00000002220
:0D004600C2C0000000D2CD000000D2C022D8
:0B2CF000122D14122CFBAF05122D1446
:102CFB00E4FFD2CD30C009EFC394FF50030F80F433
:082D0B00000000C2CD00000031
:012D1300229D
:102D1400E4FEEF25E0FFC2CD00000092C0000000F9
:102D2400D2CD0000000EBE08E9C2CD000000D2C022
:032D34000000009C
:012D37002279
:102D5B00C2CD000000D2C000E4FED2CD0000EF25B2
:102D6B00E0FDA2C0E4334DFF0000C2CD000EBE0853
:012D7B00E96E
:012D7C002234
:10000E00AC07122FCC7FA0122D14122CFBAF0412B2
:05001E002CF002004679
:022E6E00AD07AE
:102E7000122FCC7FA0122CF0122FCC7FA1122D1478
:092E8000122CFB122D5B1200461E
:012E89002226
:0B16D2004801B2D4111A50400288A554
:092F72007F03122F7BD2C57F03FF
:0A2F7B00AE071FEE60030080F7228E
:102F8500D2A7122F72C2A77F03122F7BC2C57F0360
:032F9500022F7B8D
:0C307900C2A7122F72D2A77F03022F7B88
:102E8A00E4FFD2C530A709EFC394FA50030F80F4C8
:0C2E9A007F03122F7BC2C57F03022F7B39
:022C0700AD0717
:102C0900E4FBC2C57F03122F7BED3392A7ED25E0CC
:102C1900FD122F720BBB08EAC2C57F03122F7BD2AC
:062C2900C57F03022F7BB2
:0227CB001548AF
:1027CD009001BAE064017037122F857F20122C071B
:1027DD00122E8AA848E4F6A848E6FFC394085017BD
:1027ED0074B22FF582E43401F583E0FF122C071249
:0F27FD002E8AA8480680E0123079E49001BAF0E5
:03280C000548225A
:1024FE009001B4E025E025E0FFA3E0C413135403DC
:10250E002F2466F53AE43403F5399001B9E0540FFF
:10251E00F53B9001B7E0543FFF5403FEBE03057533
:10252E003CFF8003E4F53CEF540CFEBE0C05753DFC
:10253E00FF8003E4F53DEF5430FFBF3005753EFFDD
:0B254E008003E4F53E7B007A00793941
:01255900225F
:101C9800D3E5349438E533940450047F0180027FFF
:101CA80000C3E5349466E533940340047E01800262
:101CB8007E00EE5F60301224FE12067565347004F3
:101CC800E5F065336020E534249AFD1313543F9002
:101CD80001B4F0ED5403FFC4333354C04410A3F0EF
:101CE8009001BA7401F01224FEE92402F9E43AFAE8
:101CF800120568653560047F0180027F00E535D3F1
:101D0800940F50047E0180027E00EE5F6011E5357D
:101D1800540FFF9001B9E054F04FF0A37401F07D27
:101D28002AE5366003430501E5376003430504E50A
:101D38003860034305109001B7E06D6008EDF0903E
:051D480001BA7401F076
:011D4D002273
:102CCB0078337C007D007B007A00792D7E007F06B7
:102CDB00120542121C989000DC74FFF0A37427F0CD
:052CEB00A374CBF022F0
:102FDC0053B1DF43B220C2B5C20A8F0C438F10220B
:030053000223B4D1
:1023B400C0E0C083C082C0D075D000C000C001C0DE
:0323C40002C00351
:1023C700200313D203751B08751300751A00E50C5B
:1023D700C313F50A803AE50BC394014031E51A258A
:1023E700E0F51AE50BC394034002051AD51B21E556
:1023F70013C3951C501A751B08AB1DAA1EA91F8570
:102407001382758300E51A1205C005138002C20303
:03241700750B0042
:10241A00D003D002D001D000D0D0D082D083D0E077
:01242A00327F
:0930BF008B1D8A1E891F8D1C2245
:0330EF00AF1322FA
:102A9B002003047F0180027F00200A047E01800254
:102AAB007E00EE5F60188B178A188919EDC313F53A
:102ABB0009C202E4F515538FEFD2047F02227F0384
:012ACB0022E8
:1028D2002003047F0180027F00200A047E0180021F
:1028E2007E00EE5F6026538FEF750D10751608D2CD
:1028F2000A438F018B178A188919ED75F008A40411
:0F290200F509D202E4F515D2047F02227F0322E9
:102EA6002003047F0180027F00200A047E01800245
:0C2EB6007E00EE5F60037F00227F01229F
:1016DD00550169000000000000000000000000003E
:0816ED000000010000000000F4
:03004300020E8624
:100E8600C0E0C0F0C083C082C0D075D000C000C032
:100E960001C002C003C004C005C006C007E59A3001
:100EA600E142539AFD90016EE0FEA3E0FFC390017C
:100EB6006DE09F90016CE09E501F900169E0FBA3DE
:100EC600E0FAA3E0F9A3E475F00112065F85F0826B
:100ED600F583120581F59B800B900170E4F0E544E3
:100EE6006002C2B7E59A20E00302103D539AFE3035
:100EF6000C0BC20C900176E4F0A3F0D209E5446431
:100F0600026003020F97900174E0FEA3E0FFA3E0E6
:100F1600FCA3E0FDC39FEC9E5071900171E0FBA322
:100F2600E0FAA3E0F98D828C83E59B1205C090015F
:100F36007CE0FEA3E0FFC3ED9FEC9E504090017461
:100F4600E0FCA3E0FDEF9DEE9C5032900179E0FBC2
:100F5600A3E0FAA3E0F9900176E0FEA3E0FFF582B4
:100F66008E83120581FD900171E0FBA3E0FAA3E0F8
:100F7600F98F828E831205816D6002C20990017716
:100F8600E004F07006900176E004F085431202104A
:100F96003D900174E0FEA3E0FFA3E0FCA3E0FDC3E7
:100FA6009FEC9E5077900171E0FBA3E0FAA3E0F975
:100FB6008D828C83E59B1205C090017CE0FEA3E048
:100FC600FFC3ED9FEC9E5046900174E0FCA3E0FD4C
:100FD600EF9DEE9C5038900179E0FBA3E0FAA3E088
:100FE600F9900176E0FEA3E0FFF5828E831205817B
:100FF600FD900171E0FBA3E0FAA3E0F98F828E83F6
:101006001205816D600890017674FFF0A3F09001DF
:1010160077E004F07006900176E004F0900174E049
:10102600FEA3E0FFC3900177E09F900176E09E402B
:10103600069001787401F0D007D006D005D004D010
:1010460003D002D001D000D0D0D082D083D0F0D04F
:02105600E03286
:022FFB00154877
:0A2FFD00900178E0A848F6FFE4F028
:0330070005482257
:01002A0022B3
:101D4E008F2D8E2C8D2B8C2A852E44E5447002808F
:101D5E000343BA01E54470179000E274FFF0A374D8
:101D6E0000F0A3742AF0E4F5DBD290D2918020C269
:101D7E00B7AB2DAA2CA92BA82AE47F407E9CFDFC94
:101D8E0012072B8F43E5437003754301854312758C
:101D9E009A10E47B04FAF9F8902F2A12081712070A
:101DAE002BAB2DAA2CA92BA82A12072BEFF404F586
:101DBE00D7E47B04FAF9F8902F2A12081712072B92
:101DCE00AB2DAA2CA92BA82A12072BC3E49FFFE444
:101DDE009EFE74019DFDE49CFC78081207E48FD6EC
:101DEE00438E1443AF019000D674FFF0A3742FF00E
:051DFE00A374FBF022BC
:102ACC00900171EBF0A3EAF0A3E9F0A3ECF0A3ED15
:102ADC00F090017CE532F0A3E533F0900179E52F1D
:102AEC00F0A3E530F0A3E531F0D20CE4900178F0DE
:012AFC0022B7
:102B2E00900170E07026900169EBF0A3EAF0A3E942
:102B3E00F0E4A3F0A3F0A3ECF0A3EDF0A37401F086
:0F2B4E00E5446002D2B7439A027F02227F03223E
:0B308500900170E07002FF227F01222A
:1016F50055017E0000000000000000000000000011
:081705000000010000000000DB
:030023000213A124
:1013A100C0E0C0F0C083C082C0D075D000C000C012
:1013B10001C002C003C004C005C006C00730993B8C
:1013C100C299900183E0FEA3E0FFC3900182E09FF8
:1013D100900181E09E501F90017EE0FBA3E0FAA303
:1013E100E0F9A3E475F00112065F85F082F583123E
:1013F1000581F5998005900185E4F0209803021498
:10140100B6C298300B09C20B90018BE4F0A3F090A7
:101411000189E0FEA3E0FFA3E0FCA3E0FDC39FEC94
:101421009E5077900186E0FBA3E0FAA3E0F98D825C
:101431008C83E5991205C0900191E0FEA3E0FFC302
:10144100ED9FEC9E5046900189E0FCA3E0FDEF9DED
:10145100EE9C503890018EE0FBA3E0FAA3E0F990F6
:10146100018BE0FEA3E0FFF5828E83120581FD90E2
:101471000186E0FBA3E0FAA3E0F98F828E831205D7
:10148100816D600890018B74FFF0A3F090018CE0F6
:1014910004F0700690018BE004F0900189E0FEA356
:1014A100E0FFC390018CE09F90018BE09E4006908D
:1014B100018D7401F0D007D006D005D004D003D03F
:1014C10002D001D000D0D0D082D083D0F0D0E03291
:02300A00154867
:0A300C0090018DE0A848F6FFE4F003
:0330160005482248
:10242B008F258E248D238C22759850438E40538E8E
:10243B00FE53890FE47B04FAF9F8902F2A12081740
:10244B0012072BAB25AA24A923A82212072BEFF4E2
:10245B0004F58BE47B04FAF9F8902F2A1208171273
:10246B00072BAB25AA24A923A82212072BC3E49F71
:10247B00FFE49EFE74019DFDE49CFC78081207E4CA
:10248B008F8DC2ABD28ED2AC9000D374FFF0A374FD
:07249B0030F0A3740AF022E7
:102AFD00900186EBF0A3EAF0A3E9F0A3ECF0A3EDCF
:102B0D00F0900191E52AF0A3E52BF090018EE527D9
:102B1D00F0A3E528F0A3E529F0D20BE490018DF0A8
:012B2D002285
:102C2F00900185E0701F90017EEBF0A3EAF0A3E91D
:102C3F00F0E4A3F0A3F0A3ECF0A3EDF0A37401F084
:082C4F00D2997F02227F0322CB
:0B309000900185E07002FF227F01220A
:030000000221A832
:0C21A800787FE4F6D8FD7581480221EF35
:10047200E709F608DFFA8046E709F208DFFA803E6C
:1004820088828C83E709F0A3DFFA8032E309F60859
:10049200DFFA8078E309F208DFFA807088828C83C1
:1004A200E309F0A3DFFA806489828A83E0A3F60875
:1004B200DFFA805889828A83E0A3F208DFFA804C4F
:1004C20080D280FA80C680D4806980F28033801026
:1004D20080A680EA809A80A880DA80E280CA80338F
:1004E20089828A83ECFAE493A3C8C582C8CCC58307
:1004F200CCF0A3C8C582C8CCC583CCDFE9DEE780D7
:100502000D89828A83E493A3F608DFF9ECFAA9F055
:10051200EDFB2289828A83ECFAE0A3C8C582C8CCAB
:10052200C583CCF0A3C8C582C8CCC583CCDFEADEC4
:10053200E880DB89828A83E493A3F208DFF980CC26
:1005420088F0EF60010E4E60C388F0ED2402B4041F
:100552000050B9F582EB2402B4040050AF232345C6
:0605620082239004C27325
:10056800BB010689828A83E0225002E722BBFE0291
:09057800E32289828A83E49322C4
:10058100BB010CE58229F582E5833AF583E022502F
:1005910006E92582F8E622BBFE06E92582F8E22279
:0D05A100E58229F582E5833AF583E4932293
:1005AE00BB010689828A83F0225002F722BBFE012C
:0205BE00F32226
:1005C000F8BB010DE58229F582E5833AF583E8F071
:1005D000225006E92582C8F622BBFE05E92582C81D
:0205E000F22205
:1005E200EF8DF0A4A8F0CF8CF0A428CE8DF0A42E2D
:0205F200FE22E7
:1005F400BC000BBE0029EF8DF084FFADF022E4CCEB
:10060400F875F008EF2FFFEE33FEEC33FCEE9DECB3
:10061400984005FCEE9DFE0FD5F0E9E4CEFD22EDF9
:10062400F8F5F0EE8420D21CFEADF075F008EF2F43
:10063400FFED33FD4007985006D5F0F222C398FD34
:050644000FD5F0EA22D1
:10064900C5F0F8A3E028F0C5F0F8E582158270023C
:060659001583E038F022D9
:10065F00A3F8E0C5F025F0F0E5821582700215834E
:06066F00E0C838F0E822AB
:10067500BB010A89828A83E0F5F0A3E02250068750
:10068500F009E71922BBFE07E3F5F009E319228912
:0B069500828A83E493F5F07401932245
:1006A000E88FF0A4CC8BF0A42CFCE98EF0A42CFCF9
:1006B0008AF0EDA42CFCEA8EF0A4CDA8F08BF0A477
:1006C0002DCC3825F0FDE98FF0A42CCD35F0FCEBD6
:1006D0008EF0A4FEA9F0EB8FF0A4CFC5F02ECD399B
:0F06E000FEE43CFCEAA42DCE35F0FDE43CFC2208
:1006EF0075F008758200EF2FFFEE33FECD33CDCCC2
:1006FF0033CCC58233C5829BED9AEC99E582984045
:10070F000CF582EE9BFEED9AFDEC99FC0FD5F0D621
:10071F00E4CEFBE4CDFAE4CCF9A88222B800C1B94B
:10072F000059BA002DEC8BF084CFCECDFCE5F0CB89
:10073F00F97818EF2FFFEE33FEED33FDEC33FCEBC2
:10074F0033FB10D703994004EB99FB0FD8E5E4F97D
:10075F00FA227818EF2FFFEE33FEED33FDEC33FC6A
:10076F00C933C910D7059BE99A4007EC9BFCE99A5E
:10077F00F90FD8E0E4C9FAE4CCFB2275F010EF2FA3
:10078F00FFEE33FEED33FDCC33CCC833C810D707A3
:10079F009BEC9AE899400AED9BFDEC9AFCE899F8DE
:0E07AF000FD5F0DAE4CDFBE4CCFAE4C8F92271
:10280F00C2D5E830E70FB2D5E4C39BFBE49AFAE4F4
:10281F0099F9E498F8EC30E717B2D512284512076A
:10282F002BE4C39BFBE49AFAE499F9E498F880034C
:10283F0012072B30D50DE4C39FFFE49EFEE49DFDF0
:04284F00E49CFC22E7
:1007BD00EB9FF5F0EA9E42F0E99D42F0EC6480C8B3
:0607CD0064809845F02253
:1007D300EB9FF5F0EA9E42F0E99D42F0E89C45F07C
:0107E30022F3
:1007E400E8600FECC313FCED13FDEE13FEEF13FFF3
:0307F400D8F12217
:1007F700E86010ECA2E713FCED13FDEE13FEEF1318
:04080700FFD8F02204
:0C080B00E0FCA3E0FDA3E0FEA3E0FF2260
:10081700E493FC740193FD740293FE740393FF2227
:0C082700ECF0A3EDF0A3EEF0A3EFF02244
:10083300A8828583F0D083D08212084A12084A1214
:10084300084A12084AE473E493A3C583C5F0C58339
:10085300C8C582C8F0A3C583C5F0C583C8C582C80F
:010863002272
:0C086400A42582F582E5F03583F583229F
:060870008A838982E47313
:1021B400023019E493A3F8E493A34003F68001F2F8
:1021C40008DFF48029E493A3F85407240CC8C3332C
:1021D400C4540F4420C8834004F456800146F6DFFB
:1021E400E4800B01020408102040809015F4E47E82
:1021F400019360BCA3FF543F30E509541FFEE493F0
:10220400A360010ECF54C025E060A840B8E493A3B6
:10221400FAE493A3F8E493A3C8C582C8CAC583CAE1
:10222400F0A3C8C582C8CAC583CADFE9DEE780BE99
:01170D0000DB
:00000001FF
