:1045EC0000A8C0003F065B4F666D7D077F6F000122
:0845FC0002040810204080FFBA
:0E472900123F0B1248121242D3123ECD80FBFB
:0520A90042001CA55AD5
:1039E2008B2E8A2F89308D3174FFF532F533E4FD49
:1039F200EDC39531503EAB2EAA2FA9308D8275832F
:103A0200001205DB6233E4FCE53330E013E532C338
:103A120013FEE53313FFEE64A0FEEF6401FF80099D
:103A2200E532C313FEE53313FF8E328F330CBC082D
:093A3200D70D80BCAE32AF332287
:10405E0090001EE0702A90006CE07024E4FF743C27
:10406E002FF582E43400F583E0FE74242FF582E40C
:10407E003400F583EEF00FBF18E490001E7401F0CB
:01408E00220F
:10115600752301E4F5247B017A0079267D14123982
:10116600E28E258F26900024E064A560030214E435
:10117600A3E0645A60030214E4A3E064026003027D
:1011860014E4900028E060030214E4A3E064016024
:10119600030214E4900030E0640860030214E4A340
:1011A600E060030214E490003AE06F60030214E486
:1011B600E525FFA3E06F60030214E4E490001AF053
:1011C600A3F0F52274242522F582E43400F583E0A9
:1011D600FF74002522F582E43400F583E06F600396
:1011E600E4F5230522E522B418DA900023E0602F07
:1011F600E523602BE4F522746D2522F582E43400A4
:10120600F583E0FF74542522F582E43400F583EF7C
:10121600F00522E522B418DF90006C7401F022E498
:10122600F52274242522F582E43400F583E0FF7468
:10123600542522F582E43400F583EFF00522E522F9
:10124600B418DF900057E04480F0A37401F0E4A3E3
:10125600F090006104F075220E74542522F582E4A4
:101266003400F583E4F00522E522B416EC90002B59
:10127600E0FE90002AE0FDEEF527EDF52890002728
:10128600E0FB6401704A9000637402F0A304F0E48A
:10129600A3F090001F120894900066EFF090001FD4
:1012A600120894780812085A900067EFF090001F11
:1012B600120894781012085A900068EFF090001FF8
:1012C600120894781812085A900069EFF002147EFA
:1012D600EBB4020F90006374FFF0A3F0A3747FF0E9
:1012E60002147E900027E0B4160D900032E0FF1243
:1012F60043DB8F2402147E900027E0B4170D900084
:1013060032E0FF1244BC8F2402147E900027E06472
:10131600107051E5284527700302147B900018E0F1
:10132600B52723A3E0B5281E9000F8E0FF90002E15
:10133600E0FEB50711C39412500302147E9000F329
:10134600E0600302147E90002EE0FF1226588F24E0
:10135600E524600302147E900018E527F0A3E52833
:10136600F002147E900027E0B41306123E10021419
:101376007E900018E0B52711A3E0B5280C9000F880
:10138600E0FF90002EE06F600675240202147E9046
:101396000027E0B4110690002F02146C900027E09D
:1013A600FDB412299000F3E0900063F0900123E071
:1013B600900064F09000FBE0FEA3E0900065F0EE84
:1013C600A3F0900126E0900067F002147EED64140D
:1013D60070469000F8E0C39411401390002FE0FF90
:1013E6007B017A0079631231118F2402147E9000FA
:1013F6002FE0B401189000F8E0FF640F6004EFB42A
:10140600100B7B017A00796312392A806B7B017A93
:10141600007963121DCE8060900027E0FFB4152688
:10142600E4F52274042522F582E43401F583E0FE16
:1014360074632522F582E43400F583EEF00522E597
:1014460022B407DF8032EF64206008900027E06452
:101456002170229000F8E0FF640F6007EF641060CF
:10146600028012900027E0FF7B017A007932121485
:10147600E58F248003752401900062E524F07B014A
:101486007A0079567D141239E28E258F2690006AED
:10149600EFF0E525A3F0E4F52274242522F582E495
:1014A6003400F583E0FF74002522F582E43400F56C
:1014B60083EFF074542522F582E43400F583E0FFCF
:1014C600746D2522F582E43400F583EFF00522E5FC
:0F14D60022B418C59000237401F090006CF0222E
:1034110090001F120894EF2401FFE43EFEE43DFDFD
:10342100E43CFC90001F1208B090001AE0FEA3E0FB
:10343100FFE4FCFD7B607AEAF9F8D3120833400A15
:1034410090001AE475F0011206A31208FF90001A09
:10345100E0B40108A3E0B4F403123E1090006CE064
:1034610060271247A0EF702190006CE0B40204E4E1
:10347100F080167B017A0079547D187C001242ABF2
:10348100BF020690006C7402F090001EE0600D9087
:0D349100006CE0700790001EF01211562232
:103F0B00E490001EF090006CF0900023F0900018ED
:103F1B00F0A3F090001F1208BC00000000E490001A
:103F2B001AF0A3F01228577BFF7A3479117F011214
:0D3F3B0035B57BFF7A40795E7F090235B510
:1042D3007F607E097D007C001237217527017528D8
:1042E3000075291C752A00752B027B017A00793C25
:0742F3007D187C000241224E
:104348000342031502E302AD0274023A020001C8F7
:10435800019401630136010E00EB00CC00B1009915
:06436800008500730064F3
:0520AE004200F4D371B3
:10449F00E4FF12480C753E0A753F0A75400A7541D4
:0D44AF000A75420A7B0A7D0A7F0A0244401A
:1046AA00AB07AD038B3E8B3F8B408B418B42024461
:0146BA0040BF
:07325B00900126F0FF7E0048
:103262008E2E8F2FC3E52F94E8E52E940340127C17
:10327200037DE812064E7C007D0A12064EAF0580E1
:10328200027F0AAB07C3E52F9464E52E9400401633
:10329200AE2EAF2F7C007D6412064E7C007D0A129A
:1032A200064EAF0580027F0AAA07C3E52F940AE5FE
:1032B2002E94004016AE2EAF2F7C007D0A12064ED1
:1032C2007C007D0A12064EAF0580027F0A8F418A7A
:1032D200408B3F753E0AAE2EAF2F7C007D0A120650
:0C32E2004E8D427B0A7D0A7F0A024440A8
:10458400753E0A753F0A75400AE4F54190011FE043
:0B459400F5427B0A7D0A7F0A024440CA
:1043DB00EFD3940240037F0122900133E0700690EB
:1043EB000114E060037F032290011FEFF01245845C
:0343FB007F00221E
:1044BC00900133E0700C900114E07006EFD3940A75
:0D44CC0040037F03227E001232627F002237
:10306C008E258F26D3E5269442E5259403500BC379
:10307C00E5269464E525940050057EFC7F1922E436
:10308C00F527E52725E0244AF582E43443F583D37C
:10309C007401939526E4939525505DE52725E0244E
:1030AC0048F582E43443F583E493FA740193FBC34B
:1030BC009526FFEA9525FE7C007D0512063CE5274A
:1030CC0025E0244AF582E43443F583E493FC74014F
:1030DC0093FDC3EB9DFDEA9CFC12064EAA06AB07C2
:1030EC00AF277E007C007D0512063CEF24FBFFEE33
:1030FC0034FFCF2BCF3AFE220527E52764127082CE
:05310C007E007F55224A
:103E1000900114E060079001227401F022123AEC44
:103E2000E4900133F09000F3F012449F1245849027
:103E30000113E06019E4900118F078347C00FD7BF8
:0F3E4000017A017916FE7F0612059C122DAE2223
:103A94008D22900133E0604F9000F8E0FE640560F1
:103AA40005EE64067041E522603D900102E06F601E
:103AB400059000FD802EE522B4011B9001327401B3
:103AC400F09000F8E0B40606EF24FEFF8003EF0454
:103AD400FF7E00123262E522B4020C900132E060F3
:083AE400069001127401F022AA
:10460400E4FF123DD0AD07E4FF123A947F01123D5E
:08461400D0AD077F01023A94CA
:103BE500E4FF123CBCAD077F02123A947F05123CFC
:103BF500BCAD077F03123A947F02123CBCAD077F30
:103C050004123A947F04123CBCAD077F05123A9426
:103C15007F01123CBCAD077F06123A947F03123C2C
:083C2500BCAD077F07023A94D1
:103F8500120003AD07900133E060309000F8E06463
:103F95000A7028BD0107900103E04401F0BD020A43
:103FA500900103E030E0034402F0900103E0FFB428
:0C3FB50003047F0280007E0012326222B2
:1042FA001246FCEF6020900133E0601A9000F8E06B
:10430A00B40B13900115E0C394FF500AE004F0E0E7
:07431A00FF7E001232622257
:102CDB00900133E07003022DAD9000F8E0FF640F1C
:102CEB006008EF64106003022DAD7B017A01793B24
:102CFB007D061239E29001067408F0A3E004F0900F
:102D0B000141E0B50707AF06A3E06F600C900135FA
:102D1B00E004F0900105022DAA900108E004F09068
:102D2B00013BE064D3706FA3E0647170699000FEA7
:102D3B00E0FEA3E0FD90013DE0FCED6C7058EEFF72
:102D4B00A3E0FEEF6E704F9000F9A3E0FF90013F00
:102D5B00E0FEEF6E704090011EE0FE900140E0B58A
:102D6B000634900104E06006900134E004F0900119
:102D7B00047401F074F62EF582E43400F583C083FD
:102D8B00C082E0FE7401A807088002C333D8FC4E52
:102D9B00D082D083F022900105E004F0900136E060
:032DAB0004F0220F
:103FF700124818900133E0602B9000F8E0B40F24CA
:10400700900106EFF0BF0805122CDB800C9001052C
:10401700E004F0900137E004F07B017A01793B7D01
:05402700081247E2222F
:10392A008B298A2A892BE4FF74342FF582E4340127
:10393A00F583E0AB29AA2AA92B8F82758300120688
:10394A001A0FBF07E39000F9A3E0AB29AA2AA92B13
:10395A0090000412061A90011EE090000512061A41
:10396A009000F8E0B40F051245688003124795AB42
:0C397A0029AA2AA92B900006EF02061AC9
:1028570012464CE49000F8F09000F3F0900123F05A
:102867009000FBF0A3F09000FEF0A3F09000F9F0C9
:10287700A3F090011EF0900133F0900132F0900127
:1028870012F09000FDF0900103F0900115F0900117
:1028970014F090011DF0900122F0900113F09001C7
:1028A70000F0A3F0900124F0A3F0900120F0A3F032
:1028B7007F07900104E4F0A3DFFCE490011FF09090
:1028C7000127F0900126F012459F7D07E4FF12478C
:1028D700BE1244F67F9812408F1244201244D91238
:1028E70045137F2B1246EC7B017A01793B7D081259
:1028F70047E27BFF7A4679047F041235B57BFF7A7E
:102907003B79E57F071235B57BFF7A3F79857F05F0
:102917001235B57BFF7A4279FA7F061235B57BFF10
:102927007A2C79DB7F0A1235B57BFF7A3F79F77FFF
:102937000B1235B512449F12458490011C74FFF0A9
:01294700226D
:102658008F29E529C394014007E529D3941740033E
:102668007F0122900114E060037F0322123E109044
:1026780000F8E529F09000F37401F0E4900123F0EC
:102688009000FBF0A3F090011C74FFF0E49001228D
:10269800F07F07900104E4F0A3DFFC7F07E52964DD
:1026A8000D701C90011DE060037F04227F7F12459E
:1026B80030900104EFF0645AA3F0740112325BE524
:1026C80029B40C261247F9780B7C017D017E007F26
:1026D8000712059C782A7C007D007B017A01790B22
:1026E8007E007F0712059C122759E529C3940F40E5
:1026F80007E49000F6F0A3F0E529B40F167B017A01
:1027080001793B7D081247E27BFF7A3F79F77F0B1F
:102718001235B5E529B4102A752E017FB07E047DE7
:10272800007C00122E64752F017530007531F47528
:1027380032007533027B017A01793B7D087C0012F7
:1027480040F1E529C394114005AF29122C057F00FB
:01275800225E
:1014E5008F298B2A8A2B892C900114E060037F03B6
:1014F500229000F8E0C394114019AB2AAA2BA92C1D
:10150500AF291225568F2DE52D700590013304F076
:10151500AF2D2290011CE0FEB5290C9000F8E0C328
:10152500940F50037F00229000F8E0B40D0D900158
:101535001DE07004EEF460037F04229000F8E0FEE5
:10154500B40D14AB2AAA2BA92C1205C2FF900104D5
:10155500E06F60037F0522EEB4050AE529D3940206
:1015650040037F01229000F8E0B4060AE529D394F0
:101575000440037F01229000F8E0FF640F6008EF4C
:10158500641060030216EDE5296420600302164924
:10159500AB2AAA2BA92C9000011205DBFE1205C26D
:1015A500FDEDFF9000FEEEF0A3EFF09000021205B6
:1015B500DBFD9000F9E4F0A3EDF09000031205DBEC
:1015C50090011EF0EF4E6017D39000FAE09404905E
:1015D50000F9E09400500890011EE0940140037F5B
:1015E5000122E4F52D7404252DF582E43401F583FB
:1015F500E4F0052DE52DB407ECE4F52D7434252D27
:10160500F582E43401F583E4F0052DE52DB407EC0E
:10161500E4900127F0F52D743B252DF582E4340186
:10162500F583E4F0052DE52DB408EC9000F8E064B1
:101635000F60030216ED7B017A01793B7D081247A5
:10164500E20216EDE529642160030216EA900133F2
:10165500E070037F02229000F8E0B40F091245689C
:10166500EF60037F03229000F8E0B410091247955C
:10167500EF60037F032290014374D3F0A37471F0EC
:101685009000FEE0FEA3E0900145F0EEA3F090008F
:10169500F9A3E0900147F090011EE0900148F07B2E
:1016A500017A0179437D061239E2900149EFF0A3F1
:1016B500EEF09000F8E0B40F137B017A0179437DD9
:1016C50008123E8EEF640260107F03227B017A01CF
:1016D50079437D087C001241539001097401F09013
:1016E5000127F080037F01229001337401F09000FF
:1016F500F304F0E49000FBF0A3F090011CE529F061
:1017050090012674FFF0E4900132F0900112F09000
:1017150000FDF0900103F0900115F09000F8E0FF56
:10172500B40607E5292403FE8002AE29900102EEE6
:10173500F0EF640560129000F8E0FF64066009EFC1
:10174500640A6004EFB40B06E4FFFE1232629000F7
:10175500F8E0640D7029AB2AAA2BA92C1205C2FF4B
:10176500900104E06F60037F0522740212325B90E2
:101775000105E0FD7F7F12000E9001147401F090C9
:1017850000F8E0640E704D9001167403F0A374BB6D
:10179500F0A37406F0E4A3F0A3F0A3F0900113E026
:1017A500701C782E7C00FD7B017A017916FE7F0680
:1017B50012059C12436E9001137401F08016783463
:1017C5007C007D007B017A0179167E007F0612057B
:0717D5009C122DAE7F0022E3
:1008FF009000F8E0C394114003020D2C900114E016
:10090F00FF70030209FE9000FBE475F0011206A3CD
:10091F00EFB40128C39000FCE0941E9000FBE0941C
:10092F00004019900126740312325E7F7F1245300A
:10093F00900106EFF09001147403802D900114E0E4
:10094F00B4032FC39000FCE0941E9000FBE09400D2
:10095F004020900126740412325E900104E0FD7F66
:10096F007F12000E9001147402F0E49000FBF0A3CC
:10097F00F022900114E064026003020D2BC390007B
:10098F00FCE0941E9000FBE094005003020D2B90AE
:10099F000126740512325E7F7F124530900107EFFA
:1009AF00F0E4900114F0900133F09000F37403F031
:1009BF00900105E0FFA3E0B5070C900104E0FF9064
:1009CF000107E06F601D900104E0FF900107E06FE9
:1009DF0060047F0780027F06900123EFF090011DD6
:1009EF007401F0900122E07003020D2B020D28E438
:1009FF007B0AFAF9F890001F120894120793AC00C3
:100A0F00AD01AE02AF03E4FBFAF9F8C31208497067
:100A1F00381247EB78287C017D017E007F0A120592
:100A2F009C90012CE0FFA3E0900124CFF0A3EFF006
:100A3F0090012EE0FFA3E0900120CFF0A3EFF09004
:100A4F000100E475F0011206A3900133E070030278
:100A5F000D2B900127E060259000F8E0B40F0612EF
:100A6F004568EF600D9000F8E0B41011124795EF54
:100A7F00700B90010A7401F0E4900127F0E47B0AF7
:100A8F00FAF9F890001F120894120793AC00AD0109
:100A9F00AE02AF03E4FBFAF9F8C312084960030290
:100AAF000BC89000F8E064087057900124E0FEA393
:100ABF00E0FF12306C8E238F24E524B41916E52342
:100ACF00B4FC11753E0A753F1175401175411175D2
:100ADF004211801BC3E52364809480501D753E0A2C
:100AEF00753F0A75401175410AE524F404F5427B00
:100AFF000A7D0A7F0A1244408007AF24AE231232C8
:100B0F00629000F8E0B4090B900120E0FEA3E0FF33
:100B1F001232629000F8E0640C70431247F9780BC0
:100B2F007C017D017E007F0712059C90010DE0FE88
:100B3F00C4540FFFEE540FFD90010CE0FEC4540F90
:100B4F00F53EEE540FF53F75401190010BE0FEC4DA
:100B5F00540FF541EE540FF5427B111244409000B3
:100B6F00F8E0FF640F6005EF6410704DE4FDFC903A
:100B7F00011EE024F6F582E43400F583E0FB7A00F1
:100B8F0074017E00A804088005C333CE33CED8F994
:100B9F00FFEE5AFEEF5B4E60010D0CBC05D1753EAA
:100BAF000A90011EE004F53F75400A75410A8D4217
:100BBF007B0A7D0A7F0A1244409000FBE0FEA3E00F
:100BCF00FFE4FCFD7B607AEAF9F8D3120833400AA0
:100BDF009000FBE475F0011206A39000F8E06403A7
:100BEF00704E9000FBE0FEA3E0FF7C007D461206F6
:100BFF004E8F22900126E065226023E522F0C394F8
:100C0F0008500D7401A807088002C333D8FC800A6E
:100C1F00E522B408047FFF8002E4FF12480CE522AE
:100C2F00C3940A400B9000F37403F0E4900133F087
:100C3F009000F8E0640470679000FBE0FEA3E0FF13
:100C4F007C007D9612064E8F22900126E065226071
:100C5F003CE522F070047F13802BE522B4011A7556
:100C6F003E04753F057540067541077542087B03C5
:100C7F007D027F011244408014E522C3940A500A7A
:100C8F00E5222409FF1246AA800312449FE522C3DE
:100C9F00940A400B9000F37403F0E4900133F0904A
:100CAF0000F8E06407705C9000FBE07004A3E06460
:100CBF0001700A7D14FC7F207E031236329000FBF8
:100CCF00E07004A3E06432700A7D14FC7FB07E04F0
:100CDF001236329000FBE07004A3E06464700A7D6A
:100CEF0014FC7F087E07123632C39000FCE094821A
:100CFF009000FBE09400400BE4900133F09000F380
:100D0F007403F09000F8E0B40E12C39000FCE0946E
:0D0D1F00E09000FBE0942E4003123E1022F5
:101DCE008B298A2A892BE4F52CAB29AA2AA92B85E3
:101DDE002C82758300E412061A052CE52CB407E953
:101DEE009000F8E0FF64056005EF64067031900125
:101DFE0032E0AB29AA2AA92B120608900112E0ABF9
:101E0E0029AA2AA92B90000112061A9000FDE09033
:101E1E00000212061A900102E0900003021F429087
:101E2E0000F8E0FF64086005EF6409704690012435
:101E3E00A3E0AB29AA2AA92B120608900124E0AB35
:101E4E0029AA2AA92B90000112061A900120E0FE61
:101E5E00A3E090000212061AEE90000312061A90EA
:101E6E000100E0FEA3E090000412061AEE900005B9
:101E7E00021F429000F8E0FFB40A059001038007AC
:101E8E00EFB40B0D900115E0AB29AA2AA92B02067F
:101E9E00089000F8E0640C705E1247F9780B7C0134
:101EAE007D017E007F0712059C90010BE0AB29AAF5
:101EBE002AA92B12060890010CE0AB29AA2AA92BFD
:101ECE0090000112061A90010DE090000212061AFF
:101EDE0090010EE090000312061A90010FE09000A0
:101EEE000412061A900110E090000512061A9001D5
:101EFE0011E0900006803D9000F8E0640E703812FC
:101F0E00398678167C017D017E007F0612059C9035
:101F1E000116A3E0AB29AA2AA92B120608900116D6
:101F2E00E0AB29AA2AA92B90000112061A900118DB
:101F3E00E090000202061AE4F52C7404252CF582BA
:101F4E00E43401F583E0AB29AA2AA92B852C8275EE
:0D1F5E00830012061A052CE52CB407DE22C4
:10464C00E49001E1F09001E4F09001EE74FFF09041
:04465C000200F02246
:103801008E388F39D3E539940FE538942740067502
:10381100382775390FAE38AF397C037DE812064E73
:10382100AB07AE38AF397C007D6412064E7C007D5B
:103831000A12064EAA05AE38AF397C007D0A12067F
:103841004E7C007D0A12064E8D418A408B3F753EAB
:103851000AAE38AF397C007D0A12064E8D427B0AD2
:073861007D0A7F0A024440CA
:103798008F388C398D3AD3E53A940FE53994274020
:1037A80006753927753A0FAE39AF3A7C037DE812B2
:1037B800064EAB07AE39AF3A7C007D6412064E7CEC
:1037C800007D0A12064EAA05AE39AF3A7C007D0A82
:1037D80012064E7C007D0A12064E8D418A408B3FB0
:1037E800753E11AE39AF3A7C007D0A12064E8D4205
:0937F8007B117D11AF3802444041
:103AEC009001E1E0FF604CEFB41105E4FF123C2DB6
:103AFC009001E1E0B417031247AB9001E1E0FFC382
:103B0C0094124026EFB4130B753B64E4FB7D64FF09
:103B1C0012338190020074FFF0E4F5DB7F981240C1
:103B2C008F5392FC439103439003E49001E1F09096
:043B3C0001E4F0228E
:102C05008F2A9001E1E52AF0E49001E4F09001EECD
:102C150074FFF0E49001E8F09001EAF0A3F0900170
:102C2500E2F0A3F09001F0F0A3F0A3F0A3F090017F
:102C3500ECF0A3F09001EFF09001E7F09001E9F0DE
:102C4500E52AC39412404690020074FFF0E4F5DBD8
:102C55007F9812408F5392FC5391FC439003E52AD1
:102C6500B41503439103E52A64126005E52AB414FB
:102C7500095390FD439202439101E52AB41306538B
:102C850090FC439203E52AB41603439003E52AB466
:102C9500110312461CE52AB415057F9B12408FE5EA
:102CA5002AB412057F03123FC1E52AB413107F0130
:102CB500123FC1753B64E4FB7D64FF123381E52A55
:102CC500B41405E4FF123FC1E52AB416087F0212C9
:062CD5003FC11246DC22A3
:102556008F2E8B2F8A3089319001E1E0FFC39411D1
:102566004006EFD3941740037F02229001EEE0FE6F
:10257600B52E037F00229001E1E0FF64116013EFA6
:102586006413600EEF64126009EF64156004EFB423
:102596001607E52E60037F01229001E1E0FDB417E6
:1025A6000AE52ED3940240037F0122EDB41713E50A
:1025B6002EB4010EEE7008124800EF640160037F2E
:1025C60002229001E1E0B41717E52EB40212900141
:1025D600EEE0B40108124800EF640260037F0222B5
:1025E6009001E1E0FEB4140AE52ED3940140037F86
:1025F60001229001EEE52EF0E49001EAF0A3F090BE
:1026060001E404F09000F304F0E49001E8F0900196
:10261600E7F09001E9F0EEB41420E52EB4011BAB0F
:102626002FAA30A9319000011205DBFE1205C2FD6A
:10263600EDFF9001E5EEF0A3EFF09001E1E0B417B5
:102646000EE52E70051238688005AF2E1243217FE5
:02265600002260
:100D2C009001E1E0FF70030211559001E4E07003C3
:100D3C000211559001EAE475F0011206A39001EA44
:100D4C00E0FCA3E0FD9000FBECF0A3EDF0EF6411F0
:100D5C00600B9001E1E064136003020EFCD3ED9490
:100D6C0090EC940150047F0080489001EAE0FEA3CF
:100D7C00E0FFD39420EE940350067D017F01803276
:100D8C00D3EF944CEE940450047F0280259001EA3A
:100D9C00E0FEA3E0FFD394DCEE940550067D037FC8
:100DAC0003800FD3EF946CEE940750047F04800201
:100DBC007F058F259001EAE07004A3E06401600BCD
:100DCC009001E8E065257003020EAE9001E8E52580
:100DDC00F064026005E525B405047F00800DE5256F
:100DEC00C3940250047F0180027F028F26E52660A7
:100DFC00259001E1E0B4110FE5256003B403047FF5
:100E0C003C80157F788011E5256003B403047F1EB8
:100E1C0080027F4680027F008F279001E1E0641101
:100E2C007029FF123C2DE5266041B401067A037B44
:100E3C00E880047AFC7B18AD27E4FF122F19EF64CD
:100E4C000260289001237414F08020E526B401047C
:100E5C00AF2780027F00E526B40206AE27AB0680E2
:100E6C00027B00753B647D641233819001F0E4F0E9
:100E7C00A3E527F09001E1E0B41107E4FF12402C48
:100E8C0080027F009001F2E4F0A3EFF09001EFE517
:100E9C0026F0900126E525F0E527FD7C00AF261213
:100EAC003798C39001EBE094989001EAE0940850D5
:100EBC00030211559001E1E0B4111EE4FF123C2D28
:100ECC00E4FF12402C7E009001F2EEF0A3EFF060F4
:100EDC00139001237415F0800B753B64E4FB7D6467
:100EEC00FF123381E49001E4F09000F37403F022DC
:100EFC009001E1E0B417141200561248007E001263
:100F0C003801124800900126EFF0229001EAE0FE31
:100F1C00A3E0FF7C007D1412064EED4C6003021121
:100F2C00559001E2E475F0011206A39001E77401FB
:100F3C00F09001E1E0B415261247EB782E7C007D91
:100F4C00007E007F0A12059C9001F0E530F0A3E5CD
:100F5C0031F0E4A3F0A3F0AF31AE301238019001C0
:100F6C00E1E064127059123B408E288F299001F0F9
:100F7C00EEF0A3EFF0C39405E52864809480401153
:100F8C00D3E5299490E5286480948150047F0180F6
:100F9C00027F009001E7EFF0600D9001F0E0FEA3FE
:100FAC00E0FF1238018018753E0A753F117540112B
:100FBC007541117542117B0A7D0A7F0A12444090DB
:100FCC0001E1E0641460030210821247D98E288F6D
:100FDC00299001F0EEF0A3EFF0EE3395E0FDFC7BF1
:100FEC00007A8079FF78FFC3120833600FE529F48B
:100FFC007004E528647F60047F0180027F0090010B
:10100C00E7EFF09001EEE0700F9001E5E528F0A31A
:10101C00E529F0E4FFFE805BAE28AF29EE3395E0C6
:10102C00FDFCC006C0079001E5E0FEA3E0FBAA06AC
:10103C00EA3395E0F9F8D007D0061206FA8F2D8E18
:10104C002C8D2B8C2AEC33500B1208258F2D8E2CCB
:10105C008D2B8C2AE47F0F7E27FDFCAB2DAA2CA9AF
:10106C002BA82AD312083340067E277F0F8004AEAC
:10107C002CAF2D1238019001E1E0641660030211CF
:10108C00551246DC8E288F29E5294528700302115C
:10109C0040D3E5299400E5286480948040047F01C6
:1010AC0080027F029001EFEFF0AE28EE3395E085E1
:1010BC00292D8E2CF52BF52AAF2DAE2CFDAC2AEC60
:1010CC0033500B1208258F2D8E2C8D2B8C2A9001D2
:1010DC00ECE0FEA3E0FFC3740F9FFF74279EFEE4B9
:1010EC00FCFDAB2DAA2CA92BA82AD31208339001F6
:1010FC00EC40097427F0A3740FF08008E52C852DC3
:10110C00F01206A39001ECE0FFA3E09001F0CFF009
:10111C00A3EFF0D3E5299400E528648094807E0049
:10112C0040047F0180027F029001F2E04EF0A3E0C8
:10113C004FF08005E49001EFF09001EFE0FF90019B
:0A114C00ECE0FCA3E0FD123798224E
:103111008F298B2A8A2B892CE4FFAB2AAA2BA92C75
:103121008F82758300E412061A0FBF07ED9001E14B
:10313100E0B4170BAB2AAA2BA92CAF29021F6BE510
:103141002960037F01229001F0A3E0AB2AAA2BA9F9
:103151002C1206089001F0E0AB2AAA2BA92C9000B2
:103161000112061A9001F2E0FEA3E090000212069D
:103171001AEE90000312061A9001E2E0FEA3E0901D
:10318100000412061AEE90000512061A9001E1E001
:10319100FF64116004EFB413079001EFE0FF8005B5
:1031A1009001E7E0FFAB2AAA2BA92C900006EF12B1
:0531B100061A7F002258
:10468600E4FFFE0000000FBF00010EEF640A4E704B
:02469600F2220E
:10448000AD07E4FBED33B392C2124686C2C11246B9
:0F44900086ED25E0FDD2C11246860BBB08E62261
:103F4800AD07E4FCC291D2C1124686ED25E0547E4D
:103F58004480FF124480E4FDC2C1124686EC25E08D
:103F6800FFA290E4334FFCD2C11246860DBD08E88B
:0D3F7800D291124686C2C1124686AF0422C5
:0B4182007F14123F48EF54FCFD7F1437
:10418D00AC05AD07C291D2C1124686ED25E0547E35
:10419D00FF124480AF04124480D291124686C2C1F0
:0341AD0002468641
:0638CD007B017A01797A0B
:1038D3008B3E8A3F89408D417463F542F543E4F59D
:1038E30044E544C39541503AAB3EAA3FA9408544C1
:1038F300827583001205DB6543FDC454F06205ED58
:10390300FAE542FFEFFBED75F008A4FFE5F06AFE70
:10391300EF6BFFEDC4540FFBEF6B8E42F543054491
:0739230080BFAE42AF43225A
:064209007402900167F051
:10420F007F0D123F48EF547FFD7F0D12418D7F0CC4
:10421F00123F48EF4480FD7F0C12418DE4FD7F017A
:03422F0002418DBC
:10230F008F3A900158E0FF7006FCFE7F93800CEF30
:10231F007E00B401047F9580027F97E53A700B90A1
:10232F00017A7452F07A010223B1E53AB4010D90AB
:10233F00017AEFF0A37420F07A028066E53A640226
:10234F00704390017AEFF0A37470F0E4F53B745191
:10235F00253BF582E43401F583E0FF747C253BF5E2
:10236F0082E43401F583EFF0053BE53BB405DF7DF7
:10237F00071238CD8E3C8F3D900181EFF0E53CA3E5
:10238F00F07A09801D90017A7450F0E4A3F07D0279
:10239F001238CD8E3C8F3D90017CEFF0E53CA3F0E1
:1023AF007A047DF77F0212418DE4FD7F0112418D8A
:1023BF007D7F7F0412418D7F08123F48EF54F7FD58
:1023CF007F0812418D7F0E123F48EF547FFD7F0E25
:1023DF0012418D7D807F0A12418DE53A70047D0791
:1023EF0080027D007F0D12418DE4F53BE53BC39AE2
:1023FF005016747A253BF582E43401F583E0FD7FB6
:10240F000912418D053B80E47D0C7F0112418DE562
:10241F003A70047D8780027D807F0D12418DE4909C
:04242F000159F0223D
:103868005392FC5391FC43900343B41E53B3E1D2EB
:10387800C4C2C3D291C2C1E4900164F0900177F050
:10388800900159F090014FF090014BF0A3F0900196
:1038980067F0900156F0A3F0900150F090014EF0BF
:1038A80090016BF0900158F0900178F0A3F090012E
:1038B8004DF090016CF0900166F0900165F07D0F7D
:0538C8007F0102418DAB
:10432100AA0712420F900150EAF0E490014CF0907C
:1043310001777402F0E4900159F0BA010990014B40
:07434100F090016404F0227A
:0A47AB0012420F12418253C0E122B6
:06480000900164E0FF22BC
:10005600900159E0C394FF5003E004F0900177E06B
:10006600FA7054900159E0C3940550030204CB7F03
:1000760037123F4890014FEFF06004E0B4FF0302EF
:1000860001027D3D7F1112418D7D1E7F2D12418D16
:10009600E4FD7F2C12418D7D8D7F2A12418D7D3EA0
:1000A6007F2B12418D7D407F1512418D124182902A
:1000B600017774010203F5EAB40122900159E0C305
:1000C600940150030204CB7F14123F48EF4403FD12
:1000D6007F1412418D90017774070203F590017722
:1000E600E0FA64077030900159E0C3940A500302A5
:1000F60004CB7F11123F48EF643D6007900167749F
:1001060001F0229001647401F0E4900167F090011F
:100116007774020203F5EA6402703E900159E0C367
:10012600941450030204CB900164E064037003024C
:1001360004CB900150E070030204CBE4900158F028
:1001460090016BF0FF12230F900156E475F0011237
:1001560006A39001777403F022900177E0FAB40ABF
:1001660017900159E0C3940450030204CB12420FC6
:1001760090017774020203F5EA6403601190017737
:10018600E0FF64056008EF640960030204CB7F04A6
:10019600123F4890014DEFF05421700C900159E048
:1001A600C3940A50030204CB7F06123F489001799C
:1001B600EFF07F0A123F48900178EFF07F37123F49
:1001C6004890014FE0B5070A7F11123F48EF643DA2
:1001D600600D740112420B90017774020203F590D0
:1001E6000179E0541BFF700790014DE020E5639014
:1001F6000177E06403703690014DE030E02FEF7038
:100206002C900167F0900164E0B4021A900150E06E
:10021600B4021390014CE004F0C39403402990010A
:10022600647403F08021E490014BF0801A90017908
:10023600E0541B60047F0280027F06900167EFF0A6
:10024600E490014BF0A3F012420F90017774020282
:1002560003F5E490014CF07F0C123F48EF5407F58C
:1002660039900177E06403702CA3E0B40204E53909
:10027600600B12420990017774020203F57F09129E
:100286003F48900165EFF07F09123F48A3EFF01257
:10029600420F0203D6900177E064057074A3E0B4C0
:1002A6000504E539600B12420990017774020203D6
:1002B600F5E4FAF5387F09123F4874512538F5827E
:1002C600E43401F583EFF074512538F582E4340106
:1002D600F583E062020538E538C3940540D712423B
:1002E6000FEA60139001677402F0E490014BF090FE
:1002F600017774020203F57F0E123F48EF4480FD3A
:100306007F0E12418D7F0212230F9001777409F040
:1003160022900178E0B40304E53960119001677416
:1003260004F012420F90017774020203F5E4F538E7
:100336007F09123F4874682538F582E43401F58355
:10034600EFF00538E538C3940340E512420F7B0110
:100356007A0179687D011238D3900169E0B5070703
:10036600AF06A3E06F60129001677404F0E4900199
:100376004BF090017774028076900168E090016CF2
:10038600F030E258900151E0B48809900158E0C37A
:100396009402400C9001677403F090017714804F2B
:1003A60075380174512538F582E43401F583E0FF90
:1003B60090016BE0FE04F0745A2EF582E43401F5E8
:1003C60083EFF00538E538B404D9900158E004F01D
:1003D6007F0112230F9001777405F02290016BE0E4
:1003E600D3940640119001677403F090017714F0DE
:1003F600E4900159F022E4F53874512538F582E489
:100406003401F583E0FF90016BE0FE04F0745A2E90
:10041600F582E43401F583EFF00538E538B404D904
:1004260090016BE0FF90014EE0B507047F0180026A
:100436007F00E4F53890016BE0FEE538C39E50225C
:10044600745A2538F582E43401F583E0FD746D2590
:1004560038F582E43401F583E06D6002E4FF053887
:1004660080D3EF703590014BF090014EEEF0E4F53D
:100476003890016BE0FFE538C39F501E745A25384B
:10048600F582E43401F583E0FF746D2538F582E4E6
:100496003401F583EFF0053880D790014BE0C39423
:1004A600FF5003E004F090014BE0C3940240069035
:1004B60001647402F0E4900167F07F0312230F9049
:0604C6000177740AF02228
:101F6B008B2D8A2E892FE4F530AB2DAA2EA92F8528
:101F7B003082758300E412061A0530E530B407E9A8
:101F8B00EF704C900164E0AB2DAA2EA92F1206081E
:101F9B0090014FE0AB2DAA2EA92F90000112061A2B
:101FAB0090014BE090000212061A90014CE0900059
:101FBB000312061A900167E090000412061A9001B2
:101FCB0056A3E090000512061A90015602205FEF0F
:101FDB0064017033F530746D2530F582E43401F50E
:101FEB0083E0AB2DAA2EA92F8530827583001206B4
:101FFB001A0530E530B404DE90014EE0AB2DAA2E6D
:10200B00A92F9000048051EF64027051900177E08A
:10201B00AB2DAA2EA92F12060890014DE0AB2DAACD
:10202B002EA92F90000112061A900179E090000260
:10203B0012061A900178E090000312061A900165BF
:10204B00E090000412061A900166E090000512065B
:10205B001A90016CE090000612061A803EEF6403A2
:10206B00703675300490014EE0FFE530C39F502B66
:10207B00746D2530F582E43401F583E0FFE5307CA7
:10208B000024FCF582EC34FFF583AB2DAA2EA92F8F
:0E209B00EF12061A053080CD7F01227F002251
:0947B5008B88898C88898F888922
:1020B30052018F8686008686008686008686008685
:0920C300860086860041018409B3
:03002B0002480682
:0648060053BCEFD20F329B
:021C2200155259
:101C2400200F03021DCBC20F900183E0B4090040D2
:101C340003021DAD901C3FF8282873021C86021C69
:101C44005A021C6C021C98021C5A021C6C021CAF27
:101C5400021C5A021C6CAFBDEFFEADBE7C00E42D2D
:101C6400FFEC3E900185803CAFBDEFFEADBE7C0035
:101C7400E42DFFEC3E900187F0A3EFF0754B0102D9
:101C84001DB3AFBDEFFEADBE7C00E42DFFEC3E9076
:101C940001898010AFBDEFFEADBE7C00E42DFFECEA
:101CA4003E90018BF0A3EFF0021DB3AFBDEFFEAD8C
:101CB400BE7C00E42DFFEC3E90018DF0A3EFF0908C
:101CC400018DE0FEA3E07807CEC313CE13D8F9A8A4
:101CD40052F6C394065013A852E675F003A4248F59
:101CE400F582E43401F583E014F0900184E014F00B
:101CF4006003021DB37409F0A852E4F6A852E6FF8B
:101D0400C394064003021DB3EF75F003A4248FF5BA
:101D140082E43401F583E0C39480502AE6FF75F031
:101D240003A42490F582E43401F583E0D394804045
:101D340040EF75F003A42491F582E43401F5837433
:101D440001F0F54C802BA852E6FF75F003A4249013
:101D5400F582E43401F583E0C394805014EF75F008
:101D640003A42491F582E43401F5837402F0754CE4
:101D740001A852E6FF75F003A4248FF582E4340130
:101D8400F583E0FEEF75F003A42490F582E43401BA
:101D9400F583EEF0E675F003A4248FF582E43401B4
:101DA400F5837486F006021D0090018374FFF090A1
:101DB4000183E0D39407400374FFF0900183E004AF
:071DC400F09047B593F5BC58
:031DCB000552229C
:02473700155219
:09473900A852A64CE4F54CE6FF81
:03474200055222FB
:0247450015520B
:09474700A852A64BE4F54BE6FF75
:03475000055222ED
:10408F008F9D75BC88439720D2AD9000CA74FFF006
:10409F00A3741CF0A37422F0A374FFF0A37447F071
:1040AF00A37437F0A374FFF0A37447F0A37445F023
:0140BF0022DE
:0747EB007B017A01798522B0
:103CBC00C3EF64809480403BD3EF64809485503391
:103CCC00EFFD3395E0FC90019175F003ED1208EDDA
:103CDC00EC75F003A42583F583E0FE90019175F05B
:103CEC0003ED1208EDEC75F003A42583F583E4F0E5
:053CFC00AF06227F036A
:013D0100229F
:04425B001552155291
:10425F001247C7A852A60608A607A852E6FE08E608
:0F426F00FF4E600BEF24FFFFEE34FFFE1247D02F
:05427E0005520552226B
:1044200053B1EF43B21012003EE4F5D975DA49D228
:10443000DE9000C474FFF0A37442F0A3745BF0221A
:083632008E258F268C278D28C0
:10363A001247C7EF4E7066AF28AE271247D0C3E5D0
:10364A0026940AE5259400404BE47B18FAF9F89091
:10365A0045EC1208A0120793C006C007AE25AF2694
:10366A00AB07AA06E4F9F8D007D006120793AB070E
:10367A00AA06AFF9EFFEADE97C00E42DFFEC3ECFE0
:10368A002BCF3AAD07FCAF03AE021246BBD2D843EA
:0F369A00DA01800612003E53DAFE7F02227F0320
:0136A90022FE
:0C477D001247C7EF4E7002FF227F01229E
:102A3500E4F5809001FFE0FFB40800505F902A495B
:102A4500F8282873022A61022A67022A6D022A736E
:102A5500022A79022A83022A8D022A97C2A3C2A2D8
:102A65008016C2A3C2A2801AC2A3C2A2801EC2A39C
:102A7500C2A28022C2A3D2A2C2A1C2A08020C2A3A8
:102A8500D2A2C2A1D2A08016C2A3D2A2D2A1C2A0B4
:102A9500800CC2A3D2A2D2A1D2A08002D2A3C3EF3E
:102AA5006480948850299001FFE0FF3395E0FE741F
:102AB500F62FF58274013EF583E0FF3395E0FE7451
:102AC500F02FF58274453EF583E493F580801E90E2
:102AD50001FFE0FFB408133395E0FE74F62FF5828D
:102AE50074013EF583E0F5808003E4F5809001F5FF
:102AF500E0FF9001FFE004FEF0D3EF6480F8EE64A0
:102B050080984014E0D36480948850047408F022BF
:092B15009001F4E09001FFF022B0
:10459F00E4F5937594FF5395F043960F9000AF7425
:0B45AF00FFF0A3742AF0A37435F02283
:0947BE009001F4EFF0A3EDF022EC
:104440009001F6EFF0A3EDF0A3EBF0A3E53EF0A3AF
:10445000E53FF0A3E540F0A3E541F0A3E542F022FB
:06480C009001FEEFF02216
:1020CC00014F0041022A00410227054102288341A9
:0320DC0002298353
:103D0200209206900228E014F0900227E014F0704E
:103D1200347405F0A3E0FFC39480500EA3E09480B6
:103D22004018A37401F0F54F8010900229E0C3946B
:103D3200805007A37402F0754F01900229EFF090B2
:053D420002287483F06B
:013D47002259
:024753001552FD
:09475500A852A64FE4F54FE6FF5F
:03475E00055222DF
:1044D9009000BB74FFF0A37447F0A37453F09000ED
:0D44E900B874FFF0A3743DF0A37402F0223C
:0700030090022AE0FFE4F087
:01000A0022D3
:1020DF0001500049020C9494009494009494004190
:0320EF00020B1EC3
:02243300155240
:1024350020B20690020CE014F020B30690020FE0E3
:1024450014F0209706900212E014F090020BE014AD
:10245500F06003022553741EF0A852E4F6A852E674
:10246500FFC3648094834003022553EF3395E0FE58
:1024750090020C75F003EF1208EDEE75F003A4253C
:1024850083F583E0C39480503990020D75F003EF16
:102495001208EDEE75F003A42583F583E0D394804F
:1024A500405AE6FF3395E0FE90020E75F003EF12F9
:1024B50008EDEE75F003A42583F5837401F0F5505E
:1024C500803AA852E6FF3395E0FE90020D75F003C1
:1024D500EF1208EDEE75F003A42583F583E0C394B0
:1024E50080501990020E75F003EF1208EDEE75F0AD
:1024F50003A42583F5837402F0755001A852E6FF05
:10250500FD3395E0FC90020C75F003ED1208EDEC3F
:1025150075F003A42583F583E0FE90020D75F003A5
:10252500ED1208EDEC75F003A42583F583EEF0EFCD
:102535003395E0FE90020C75F003EF1208EDEE7591
:0E254500F003A42583F5837494F0060224624B
:032553000552220C
:024761001552EF
:09476300A852A650E4F550E6FF4F
:03476C00055222D1
:1044F6009000B574FFF0A37447F0A37461F09000C8
:0D450600B274FFF0A37424F0A37433F0220C
:103DD000EF600764016003BF0233EFFD3395E0FC41
:103DE00090020E75F003ED1208EDEC75F003A425BA
:103DF00083F583E0FE90020E75F003ED1208EDEC02
:0F3E000075F003A42583F583E4F0AF06227F035A
:013E0F002290
:1020F2005501A200000000000000000000000000E6
:0C21020000000000000000004101A100EE
:0217DC001552A4
:1017DE00A852E4F6A852E6FFC36480948340030245
:1017EE001A4DEF3395E0FE9001A275F007EF120847
:1017FE00EDEE75F007A42583F583E0FCA3E04C70B5
:10180E0003021A479001A475F007EF1208EDEE756A
:10181E00F007A42583F583E0FEA3E04E7003021AC1
:10182E0047E6FFFD3395E0FC9001A675F007ED123B
:10183E0008EDEC75F007A42583F58374FFF5F0121F
:10184E0006A345F06003021A479001A475F007ED58
:10185E001208EDEC75F007A42583F583E0FAA3E0FA
:10186E00FB9001A675F007ED1208EDEC75F007A4DC
:10187E002583F583EAF0A3EBF0EF3395E0FE9001BC
:10188E00A275F007EF1208EDEE75F007A42583F5AB
:10189E0083E0FCA3E0D39400EC648094804056A8CF
:1018AE0052E6FD3395E0FC9001A275F007ED1208AB
:1018BE00EDEC75F007A42583F58374FFF5F01206A1
:1018CE00A39001A875F007ED1208EDEC75F007A4D2
:1018DE002583F583E004F0D36480948340729001F5
:1018EE00A875F007EF1208EDEE75F007A42583F545
:1018FE0083E4F0805BA852E6FFFD3395E0FC900197
:10190E00A275F007ED1208EDEC75F007A42583F52E
:10191E0083E475F0011206A39001A875F007ED128D
:10192E0008EDEC75F007A42583F583E014F0C3648D
:10193E00809480501BEF3395E0FE9001A875F00760
:10194E00EF1208EDEE75F007A42583F5837403F00E
:10195E00A852E6FFFD3395E0FC9001A875F007ED67
:10196E001208EDEC75F007A42583F583E014603CB6
:10197E00146066147003021A1424036003021A3FE3
:10198E00EF14601014601924026003021A3FD2C1D2
:10199E00C2C280299001A1E054F04401F0021A3F26
:1019AE009001A1E0540F4410F0021A3FA852E61421
:1019BE00601114601924027078C2C1D2C2C2C3C2AF
:1019CE00C4806E9001A1E054F04402F08063900157
:1019DE00A1E0540F4420F08058A852E61460111470
:1019EE0060192402704BC2C1C2C2D2C3C2C48041AC
:1019FE009001A1E054F04404F080369001A1E0542F
:101A0E000F4440F0802BA852E61460111460192484
:101A1E0002701EC2C1C2C2C2C3D2C480149001A140
:101A2E00E054F04408F080099001A1E0540F448086
:0F1A3E00F09001A1E0FF12480CA852060217E237
:031A4D000552221D
:10461C0053B3E143B41E53C0E19000D974FFF0A32F
:08462C007417F0A374DCF02206
:102F19008F38EF3395E0FE9001A275F007EF1208A4
:102F2900EDEE75F007A42583F583E0FEA3E04E607E
:102F390003022FC1E538600A64016006E5386402BE
:102F49007076ED60737C007E037FE812064EAD3823
:102F5900ED3395E0FC9001A475F007ED1208EDEC56
:102F690075F007A42583F583EEF0A3EFF09001A493
:102F790075F007ED1208EDEC75F007A42583F583CC
:102F8900E0FEA3E0FF9001A675F007ED1208EDEC55
:102F990075F007A42583F583EEF0A3EFF09001A265
:102FA90075F007ED1208EDEC75F007A42583F5839C
:0B2FB900EAF0A3EBF07F02227F03226E
:103C2D00EF600764016003BF023AEFFD3395E0FCDE
:103C3D009001A275F007ED1208EDEC75F007A425C3
:103C4D0083F583E0FAA3E0FB9001A275F007ED1276
:103C5D0008EDEC75F007A42583F583E4F0A3F0AE31
:073C6D0002AF0322E4FEFF99
:013C7400222D
:10402C00EF600764016003BF0225EF3395E0FE905B
:10403C0001A275F007EF1208EDEE75F007A42583C9
:10404C00F583E0FEA3E04E60037F01227F00227F18
:02405C0003223D
:10210E004100850A4100AE0A4100F20A040E0000A9
:10211E0000000114004600EC0000FFFF8FFFC10D10
:10212E00C105C108C101C10E6024008AFF0029FF4C
:10213E000029FF0029FF0029FF0029FF0029FF00C9
:10214E0029FF0029FF0029FF0029FF0029FF002990
:10215E00603600AFFF0029FF0029FF0026FF00298F
:10216E00FF0026FF0029FF0026FF0029FF0029FFA0
:10217E000029FF0026FF0026FF0026FF0026FF0095
:0A218E0029FF0029FF0029FF0029A6
:0100290022B4
:030026007F002236
:103C7500438E805389F07BE07A287901780090455E
:103C8500EC1208A0123D8CEFF404F58A7BE07A284B
:103C9500790178009045EC1208A0123D8CC3E49F91
:103CA500FFE49EFE74019DFDE49CFC780812086DFE
:073CB5008F8CD28CD2A922F2
:03000B00023B9322
:043B9300C0E0C0D0FE
:103B9700D5080A75084C300D020514D20DA2037220
:103BA700045036150AE50A7030850C0AD207300A28
:103BB70017E50D6007150D438F01801D538FFEC25A
:103BC700B5D51615C20A8011050BE50BD39406402F
:093BD70008C203E5136002D206E6
:053BE000D0D0D0E0325E
:103B4000300E47C20E9045EC1208A0781012086D96
:103B50008E388F39900088E0FEA3E0FFE4FCFD7B07
:103B600019FAF9F8120708C006C007AE38AF39AB2A
:103B700007AA06E4F9F8D007D006123D8C780312A4
:103B8000086D9000EAEEF0A3EFF09000EAE0FEA3EB
:023B9000E0FF54
:013B92002210
:0947C7009000ECE0FEA3E0FF22EB
:0947D0009000ECEEF0A3EFF022E2
:1046BB009000F0EEF0A3EFF09000EEECF0A3EDF035
:0146CB0022CC
:03003E00C2B42227
:03003B00022FC4CD
:102FC400C0E0C083C082C0D075D000C004C005C0BA
:032FD40006C0072D
:102FD70030DF04C2DF807D30DA04C2DA807630D990
:102FE7003DC2D9AFFBEFFEADEB7C00E42DFFEC3E1D
:102FF70020000E900086F0A3EFF075DB11D2008061
:1030070053FE900086E0FCA3E0FDC3EF9DFFEE9C1E
:10301700A3F0A3EFF075DB00C200D20E803630D8E4
:1030270033C2D89000ECE07002A3E06022B2B49003
:1030370000EEE0FEA3E0F5EAEEF5FAA3E0FEA3E07A
:10304700FF9000EFE02FF09000EEE03EF08005C229
:04305700B453DAFE96
:10305B00D007D006D005D004D0D0D082D083D0E01A
:01306B003232
:06481200123C75D2AF223A
:10352A003004047F0180027F00200A047E018002A9
:10353A007E00EE5F6074E515C39509506830023667
:10354A00750D01E515131313541FAB17AA18A91902
:10355A00F5827583001205DBFFE515540704FEEFBB
:10356A00A806088002C333D8FC30D7057516038035
:10357A002F751601802AAB17AA18A91975F002E54A
:10358A0015A4F58285F0831205DBF50DE51575F0B6
:10359A0002A429F9EA35F0FA9000011205DBF516C2
:0A35AA000515D20A22C204438F1057
:0135B40022F4
:10294800900085E014F0701F740AF0D2059000AE74
:10295800E014F07012740AF0D2089000F2E014F05B
:102968007005740AF0D2019000AFA3E0FAA3E0F971
:102978001208F99000B2A3E0FAA3E0F91208F9905E
:1029880000BEA3E0FAA3E0F91208F99000CAA3E098
:10299800FAA3E0F91208F99000D9A3E0FAA3E0F944
:1029A8001208F99000E2A3E0FAA3E0F91208F990FE
:1029B80000D0A3E0FAA3E0F91208F9EF600C900048
:1029C800A2A3E0FAA3E0F91208F99000D3A3E0FA71
:1029D800A3E0F91208F9EF600E9000A5A3E0FAA3AE
:1029E800E0F91208F9D20BE512D394004016D5127B
:1029F8003030090C9000A8A3E0FAA3E0F91208F916
:102A0800D20C801D9000D6A3E0FAA3E0F91208F9D1
:102A1800EF600E9000A8A3E0FAA3E0F91208F9D23B
:0D2A28000C90008AA3E0FAA3E0F90208F97F
:1032EE009000C4A3E0FAA3E0F91208F99000C7A376
:1032FE00E0FAA3E0F91208F99000B8A3E0FAA3E00F
:10330E00F91208F990008DA3E0FAA3E0F91208F97A
:10331E009000B5A3E0FAA3E0F91208F9EF600C9063
:10332E000096A3E0FAA3E0F91208F99000BBA3E01F
:10333E00FAA3E0F91208F9EF600C90009CA3E0FAF2
:10334E00A3E0F91208F99000CDA3E0FAA3E0F91278
:10335E0008F9EF600C90009FA3E0FAA3E0F91208C1
:10336E00F930060EC2069000ABA3E0FAA3E0F91204
:03337E0008F92229
:103E4F00900090A3E0FAA3E0F91208F99000C1A343
:103E5F00E0FAA3E0F91208F9EF600C900099A3E0E3
:103E6F00FAA3E0F91208F99000DCA3E0FAA3E0F955
:0F3E7F001208F99000DFA3E0FAA3E0F90208F9B6
:1041DE00AF11AE10AD0FAC0E9000E51208B090000E
:1041EE00E9E514F0E4F511F510F50FF50EF5149060
:0B41FE000093A3E0FAA3E0F90208F927
:103ECD00300705C20712352A300D05C20D122948DB
:103EDD00300505C2051232EE300805C208123E4FFC
:103EED00300105C2011241DEE5112401F511E43561
:0E3EFD0010F510E4350FF50FE4350EF50E222A
:1035B5008B2A8A2B892CEFB40C0050709035C8F8F3
:1035C5002828730235EC0235F10235F60235FB0287
:1035D500360002360502360A02360F023614023666
:1035E5001902361E02362390008A803590008D80A0
:1035F50030900090802B900093802690009680213B
:1036050090009C801C900099801790009F801290DC
:1036150000A2800D9000A580089000A8800390006E
:0D362500ABE52AF0A3E52BF0A3E52CF02285
:0747F2007B017A0079E5224A
:0721980001510041022B0080
:0D002E0020A40975510190022B7401F022ED
:02476F001552E1
:09477100A852A651E4F551E6FF3F
:03477A00055222C3
:104513009000C174FFF0A37447F0A3746FF0900090
:0D452300BE74FFF0A37400F0A3742EF0220C
:0246FC00155255
:0A46FE0090022BE0A852F6FFE4F052
:0347080005522235
:04219F0041021D01DB
:1045BA00C295E4FEEF1392CC000000D29500EFC33F
:0845CA0013FFC2950EBE08ECC0
:0145D20022C6
:10463400E4FEEFC313FF30CC03430780D2950000A0
:0746440000C2950EBE08EB59
:01464B00224C
:1041B000F07F851241C3A3EFF07F871241C3A3EFC5
:0341C000F07F8904
:1041C300C296000000C295000000D296001245BAC4
:0A41D300124634D295000000C29697
:0141DD0022BF
:03446000A3E0FDD9
:10446300C296000000C295000000D296001245BA21
:0D447300AF051245BAD295000000C2962296
:0747F9007B017A0279162210
:1045D30078167C027D017B007A0079317E007F07AB
:0945E30012059CE490021DF02277
:10469800EFD3941F5009EF25E044C1FF0241C37FC7
:0246A8000122ED
:10423200AC07AB05ECD3941F501CE4FD7F8E1244F7
:1042420063EC25E044C0FFAD031244637D807F8EA2
:094252001244637F00227F012267
:0231B6001552B0
:1031B80090021DE060447F811241C3A852EFF6904F
:1031C8000216E06F7003023258A852E6F07F8312AD
:1031D80041C3A852EFF6A3E06F6075A852E612410A
:1031E800B0A3EFF07F8D1241C390021CEFF07F8BEC
:1031F8001241C390021BEFF08056900215E0FF04C5
:10320800F0EFC3940A4049E4F090021D04F0E4FD95
:103218007F8E124463900216E0FD7F801244637F24
:10322800821244607F84124460A3E0FD7F861244CA
:1032380063A3E0FD7F88124463A3E0FD7F8A124404
:1032480063A3E0FD7F8C1244637D807F8E1244630C
:03325800055222FA
:102759007F811241C3900216EFF07F831241C3A318
:10276900EF1241B0A3EFF07F8B1241C3A3EFF07FCB
:102779008D1241C3A3EFF0E4FD7F8E1244637F1EE7
:10278900124698EF64A560047F0180027F009002E1
:1027990016E05480FEA3E0D3945940047D018002E1
:1027A9007D00ED4EFE900218E0D394A440047D0113
:1027B90080027D00ED4EFE900219E0D39431400471
:1027C9007D0180027D00ED4EFE90021AE0D3941245
:1027D90040047D0180027D00ED4EFE90021BE0D396
:1027E900940740047D0180027D00ED4EFE90021C9D
:1027F900E0D3949940047D0180027D00ED4E4F6045
:102809003078317C007D007B007A00792A7E007F58
:102819000712059C1245D37DA57F1E1242327816F8
:102829007C027D017B007A00792A7E007F071205F0
:102839009C7DA97F901244637D807F8E12446390B2
:0E28490000DF74FFF0A37431F0A374B6F02228
:1046CC00D2C0000000D2CD000000C2C00000002209
:0D004600C2C0000000D2CD000000D2C022D8
:0B4393001243B712439EAF051243B760
:10439E00E4FFD2CD30C009EFC394FF50030F80F479
:0843AE00000000C2CD00000078
:0143B60022E4
:1043B700E4FEEF25E0FFC2CD00000092C000000040
:1043C700D2CD0000000EBE08E9C2CD000000D2C069
:0343D700000000E3
:0143DA0022C0
:1043FE00C2CD000000D2C000E4FED2CD0000EF25F9
:10440E00E0FDA2C0E4334DFF0000C2CD000EBE0899
:01441E00E9B4
:01441F00227A
:10000E00AC071246CC7FA01243B712439EAF041228
:05001E004393020046BF
:02453000AD07D5
:104532001246CC7FA01243931246CC7FA11243B7FE
:0945420012439E1243FE120046D2
:01454B00224D
:0B21A30048021ED4111A50400288A50B
:094660007F03124669D2C57F03F5
:0A466900AE071FEE60030080F72289
:10467300D2A7124660C2A77F03124669C2C57F0351
:0346830002466983
:0C478900C2A7124660D2A77F0302466957
:10454C00E4FFD2C530A709EFC394FA50030F80F4EF
:0C455C007F03124669C2C57F0302466956
:02428300AD0785
:10428500E4FBC2C57F03124669ED3392A7ED25E035
:10429500FD1246600BBB08EAC2C57F03124669D210
:0642A500C57F030246691B
:023D4800155212
:103D4A00900226E0640170371246737F2012428384
:103D5A0012454CA852E4F6A852E6FFC3940850173D
:103D6A00741E2FF582E43402F583E0FF12428312B7
:0F3D7A00454CA8520680E0124789E4900226F0DB
:033D8900055222BE
:10398600900220E025E025E0FFA3E0C413135403D2
:103996002F2466F53BE43403F53A900225E0540FF4
:1039A600F53C900223E0543FFF5403FEBE03057529
:1039B6003DFF8003E4F53DEF540CFEBE0C05753E5D
:1039C600FF8003E4F53EEF5430FFBF3005753FFF3F
:0B39D6008003E4F53F7B007A00793AA3
:0139E10022C3
:102DAE00D3E5359438E534940450047F0180027FD6
:102DBE0000C3E5359466E534940340047E01800239
:102DCE007E00EE5F60301239861206CF65357004D4
:102DDE00E5F065346020E535249AFD1313543F90D9
:102DEE000220F0ED5403FFC4333354C04410A3F05B
:102DFE009002267401F0123986E92402F9E43AFAB7
:102E0E001205C2653660047F0180027F00E536D36D
:102E1E00940F50047E0180027E00EE5F6011E53655
:102E2E00540FFF900225E054F04FF0A37401F07D93
:102E3E002AE5376003430501E5386003430504E5E1
:102E4E00396003430510900223E06D6008EDF090A9
:052E5E0002267401F0E2
:012E6300224C
:10436E0078347C007D007B007A00792E7E007F06FB
:10437E0012059C122DAE9000DC74FFF0A3743DF07C
:05438E00A37448F022B9
:103381008B3AAA077C007E037FE812064E90020763
:10339100EEF0A3EFF0E53BFD7C007E037FE8120633
:1033A1004EA3EEF0A3EFF0AF02AB07E4FAF9F89009
:1033B1000207E0FEA3E0FFE4FCFD120708EF243260
:1033C100FFE43EFEE43DFDE43CFCE47B64FAF9F8F5
:1033D100123D8C900201EEF0A3EFF0AF3AAB07E49F
:1033E100FAF9F8900209E0FEA3E0FFE4FCFD120700
:1033F10008EF2432FFE43EFEE43DFDE43CFCE47BC7
:1034010064FAF9F8123D8C900203EEF0A3EFF0227A
:103A3B00E4F52EF52DF52CF52BF52FD291AF2EAEFF
:103A4B002DAD2CAC2B78011208818F2E8E2D8D2C49
:103A5B008C2B00C291309015E4FAF9F8EF2401F5A4
:103A6B002EEA3EF52DE93DF52CE83CF52B052FE52F
:103A7B002FB418C700D2910000C291AF2EAE2DAD5E
:083A8B002CAC2B780812086D29
:013A93002210
:0947D900900205E0FEA3E0FF22BE
:0F46DC00900205E0FEA3E0FFE4900205F0A3F0DA
:0146EB0022AC
:102B1E00900200E0700F30900122123A3B900205B5
:102B2E00EEF0A3EFF0900200E0FF64017062051B6F
:102B3E00E51B7002051AFDD3900208E09D90020776
:102B4E00E0951A5005E4F51AF51BD3900202E095B4
:102B5E001B900201E0951A4004D2908002C29005AB
:102B6E001DE51D7002051CFDD390020AE09D90022A
:102B7E0009E0951C5005E4F51CF51DD3900204E008
:102B8E00951D900203E0951C4004D2918002C291E3
:102B9E00EF6402703E2090047F0180027F00E51EEC
:102BAE0060047E0180027E00EE5F60213091109005
:102BBE000206E004F07016900205E004F0800E901C
:102BCE000206E024FFF0900205E034FFF0A290E44C
:102BDE0033F51E900200E0B4031CE51F7002D29183
:102BEE00E51FB40105C29175DB21051FE51FC394D6
:062BFE00C84003E4F51FCE
:012C040022AD
:103FC100900200EFF07004C2918002D29190020041
:103FD100E0B40310E5A254CFF5A2E4F5D975DB01F5
:103FE100D2DE8003E4F5DB9000E274FFF0A3742BD2
:063FF100F0A3741EF02293
:1046EC0053B1DF43B220C2B5C20A8F0C438F1022E4
:030053000236AAC8
:1036AA00C0E0C083C082C0D075D000C000C001C0D5
:0336BA0002C00348
:1036BD00200313D203754608751300754500E50CFC
:1036CD00C313F50A803AE50BC394014031E5452556
:1036DD00E0F545E50BC3940340020545D54621E5CC
:1036ED0013C39547501A754608AB48AA49A94A8590
:1036FD001382758300E54512061A05138002C20375
:03370D00750B0039
:10371000D003D002D001D000D0D0D082D083D0E06E
:013720003276
:0947E2008B488A49894A8D47225F
:03481800AF1322B9
:1040C0002003047F0180027F00200A047E01800219
:1040D0007E00EE5F60188B178A188919EDC313F5FF
:1040E00009C202E4F515538FEFD2047F02227F0349
:0140F00022AD
:103E8E002003047F0180027F00200A047E0180024D
:103E9E007E00EE5F6026538FEF750D10751608D2FB
:103EAE000A438F018B178A188919ED75F008A4043F
:0F3EBE00F509D202E4F515D2047F02227F032218
:104568002003047F0180027F00200A047E0180026C
:0C4578007E00EE5F60037F00227F0122C6
:1021AE005501B70000000000000000000000000014
:0821BE00000001000000000018
:03004300021A504E
:101A5000C0E0C0F0C083C082C0D075D000C000C05C
:101A600001C002C003C004C005C006C007E59A302B
:101A7000E142539AFD9001BCE0FEA3E0FFC3900158
:101A8000BBE09F9001BAE09E501F9001B7E0FBA31E
:101A9000E0FAA3E0F9A3E475F0011206B985F0823B
:101AA000F5831205DBF59B800B9001BEE4F0E54E5B
:101AB0006002C2B7E59A20E003021C07539AFE3089
:101AC0000C0BC20C9001C4E4F0A3F0D209E54E6403
:101AD000026003021B619001C2E0FEA3E0FFA3E0ED
:101AE000FCA3E0FDC39FEC9E50719001BFE0FBA3FF
:101AF000E0FAA3E0F98D828C83E59B12061A90012F
:101B0000CAE0FEA3E0FFC3ED9FEC9E50409001C2EF
:101B1000E0FCA3E0FDEF9DEE9C50329001C7E0FB9E
:101B2000A3E0FAA3E0F99001C4E0FEA3E0FFF58290
:101B30008E831205DBFD9001BFE0FBA3E0FAA3E07A
:101B4000F98F828E831205DB6D6002C2099001C598
:101B5000E004F070069001C4E004F0854D12021C10
:101B6000079001C2E0FEA3E0FFA3E0FCA3E0FDC3F9
:101B70009FEC9E50779001BFE0FBA3E0FAA3E0F951
:101B80008D828C83E59B12061A9001CAE0FEA3E0C9
:101B9000FFC3ED9FEC9E50469001C2E0FCA3E0FD28
:101BA000EF9DEE9C50389001C7E0FBA3E0FAA3E064
:101BB000F99001C4E0FEA3E0FFF5828E831205DBFD
:101BC000FD9001BFE0FBA3E0FAA3E0F98F828E83D2
:101BD0001205DB6D60089001C474FFF0A3F0900162
:101BE000C5E004F070069001C4E004F09001C2E08A
:101BF000FEA3E0FFC39001C5E09F9001C4E09E40BA
:101C0000069001C67401F0D007D006D005D004D0EC
:101C100003D002D001D000D0D0D082D083D0F0D079
:021C2000E032B0
:02470B00155245
:0A470D009001C6E0A852F6FFE4F0A8
:0347170005522226
:01002A0022B3
:102E64008F2D8E2C8D2B8C2A852E4EE54E70028054
:102E74000343BA01E54E70179000E274FFF0A374A7
:102E840000F0A3742AF0E4F5DBD290D2918020C242
:102E9400B7AB2DAA2CA92BA82AE47F407E9CFDFC6D
:102EA4001207938F4DE54D7003754D01854D1275D5
:102EB4009A10E47B04FAF9F89045EC1208A0120782
:102EC40093AB2DAA2CA92BA82A120793EFF404F58F
:102ED400D7E47B04FAF9F89045EC1208A0120793A2
:102EE400AB2DAA2CA92BA82A120793C3E49FFFE4B5
:102EF4009EFE74019DFDE49CFC780812085A8FD64E
:102F0400438E1443AF019000D674FFF0A37447F0CE
:052F1400A3740BF02284
:1040F1009001BFEBF0A3EAF0A3E9F0A3ECF0A3ED8C
:10410100F09001CAE532F0A3E533F09001C7E52F45
:10411100F0A3E530F0A3E531F0D20CE49001C6F054
:01412100227B
:104153009001BEE070269001B7EBF0A3EAF0A3E96B
:10416300F0E4A3F0A3F0A3ECF0A3EDF0A37401F04B
:0F417300E54E6002D2B7439A027F02227F0322F9
:0B4795009001BEE07002FF227F0122B5
:1021C6005501CC00000000000000000000000000E7
:0821D600000001000000000000
:030023000221DFD8
:1021DF00C0E0C0F0C083C082C0D075D000C000C0C6
:1021EF0001C002C003C004C005C006C00730993B40
:1021FF00C2999001D1E0FEA3E0FFC39001D0E09F10
:10220F009001CFE09E501F9001CCE0FBA3E0FAA31A
:10221F00E0F9A3E475F0011206B985F082F5831297
:10222F0005DBF59980059001D3E4F0209803022295
:10223F00F4C298300B09C20B9001D9E4F0A3F090CF
:10224F0001D7E0FEA3E0FFA3E0FCA3E0FDC39FECFA
:10225F009E50779001D4E0FBA3E0FAA3E0F98D82C2
:10226F008C83E59912061A9001DFE0FEA3E0FFC30D
:10227F00ED9FEC9E50469001D7E0FCA3E0FDEF9D53
:10228F00EE9C50389001DCE0FBA3E0FAA3E0F9905C
:10229F0001D9E0FEA3E0FFF5828E831205DBFD90EE
:1022AF0001D4E0FBA3E0FAA3E0F98F828E8312053D
:1022BF00DB6D60089001D974FFF0A3F09001DAE0B4
:1022CF0004F070069001D9E004F09001D7E0FEA36E
:1022DF00E0FFC39001DAE09F9001D9E09E400690A5
:1022EF0001DB7401F0D007D006D005D004D003D0A5
:1022FF0002D001D000D0D0D082D083D0F0D0E03245
:02471A00155236
:0A471C009001DBE0A852F6FFE4F084
:0347260005522217
:103721008F258E248D238C22759850438E40538E85
:10373100FE53890FE47B04FAF9F89045EC1208A0D6
:10374100120793AB25AA24A923A822120793EFF409
:1037510004F58BE47B04FAF9F89045EC1208A01209
:103761000793AB25AA24A923A822120793C3E49F98
:10377100FFE49EFE74019DFDE49CFC780812085A4A
:103781008F8DC2ABD28ED2AC9000D374FFF0A374F4
:0737910047F0A3741AF022B7
:104122009001D4EBF0A3EAF0A3E9F0A3ECF0A3ED45
:10413200F09001DFE52AF0A3E52BF09001DCE52702
:10414200F0A3E528F0A3E529F0D20BE49001DBF01F
:01415200224A
:1042AB009001D3E0701F9001CCEBF0A3EAF0A3E9EF
:1042BB00F0E4A3F0A3F0A3ECF0A3EDF0A37401F0F2
:0842CB00D2997F02227F032239
:0B47A0009001D3E07002FF227F012295
:0300000002349E29
:0C349E00787FE4F6D8FD7581520234E519
:1004CC00E709F608DFFA8046E709F208DFFA803E12
:1004DC0088828C83E709F0A3DFFA8032E309F608FF
:1004EC00DFFA8078E309F208DFFA807088828C8367
:1004FC00E309F0A3DFFA806489828A83E0A3F6081B
:10050C00DFFA805889828A83E0A3F208DFFA804CF4
:10051C0080D280FA80C680D4806980F280338010CB
:10052C0080A680EA809A80A880DA80E280CA803334
:10053C0089828A83ECFAE493A3C8C582C8CCC583AC
:10054C00CCF0A3C8C582C8CCC583CCDFE9DEE7807C
:10055C000D89828A83E493A3F608DFF9ECFAA9F0FB
:10056C00EDFB2289828A83ECFAE0A3C8C582C8CC51
:10057C00C583CCF0A3C8C582C8CCC583CCDFEADE6A
:10058C00E880DB89828A83E493A3F208DFF980CCCC
:10059C0088F0EF60010E4E60C388F0ED2402B404C5
:1005AC000050B9F582EB2402B4040050AF2323456C
:0605BC00822390051C7370
:1005C200BB010689828A83E0225002E722BBFE0237
:0905D200E32289828A83E493226A
:1005DB00BB010CE58229F582E5833AF583E02250D5
:1005EB0006E92582F8E622BBFE06E92582F8E2221F
:0D05FB00E58229F582E5833AF583E4932239
:10060800BB010689828A83F0225002F722BBFE01D1
:02061800F322CB
:10061A00F8BB010DE58229F582E5833AF583E8F016
:10062A00225006E92582C8F622BBFE05E92582C8C2
:02063A00F222AA
:10063C00EF8DF0A4A8F0CF8CF0A428CE8DF0A42ED2
:02064C00FE228C
:10064E00BC000BBE0029EF8DF084FFADF022E4CC90
:10065E00F875F008EF2FFFEE33FEEC33FCEE9DEC59
:10066E00984005FCEE9DFE0FD5F0E9E4CEFD22ED9F
:10067E00F8F5F0EE8420D21CFEADF075F008EF2FE9
:10068E00FFED33FD4007985006D5F0F222C398FDDA
:05069E000FD5F0EA2277
:1006A300C5F0F8A3E028F0C5F0F8E58215827002E2
:0606B3001583E038F0227F
:1006B900A3F8E0C5F025F0F0E582158270021583F4
:0606C900E0C838F0E82251
:1006CF00BB010A89828A83E0F5F0A3E022500687F6
:1006DF00F009E71922BBFE07E3F5F009E3192289B8
:0B06EF00828A83E493F5F074019322EB
:0E06FA00C3EF9BFFEE9AFEED99FDEC98FC22FB
:10070800E88FF0A4CC8BF0A42CFCE98EF0A42CFC90
:100718008AF0EDA42CFCEA8EF0A4CDA8F08BF0A40E
:100728002DCC3825F0FDE98FF0A42CCD35F0FCEB6D
:100738008EF0A4FEA9F0EB8FF0A4CFC5F02ECD3932
:0F074800FEE43CFCEAA42DCE35F0FDE43CFC229F
:1007570075F008758200EF2FFFEE33FECD33CDCC59
:1007670033CCC58233C5829BED9AEC99E5829840DC
:100777000CF582EE9BFEED9AFDEC99FC0FD5F0D6B9
:10078700E4CEFBE4CDFAE4CCF9A88222B800C1B9E3
:100797000059BA002DEC8BF084CFCECDFCE5F0CB21
:1007A700F97818EF2FFFEE33FEED33FDEC33FCEB5A
:1007B70033FB10D703994004EB99FB0FD8E5E4F915
:1007C700FA227818EF2FFFEE33FEED33FDEC33FC02
:1007D700C933C910D7059BE99A4007EC9BFCE99AF6
:1007E700F90FD8E0E4C9FAE4CCFB2275F010EF2F3B
:1007F700FFEE33FEED33FDCC33CCC833C810D7073B
:100807009BEC9AE899400AED9BFDEC9AFCE899F875
:0E0817000FD5F0DAE4CDFBE4CCFAE4C8F92208
:103D8C00C2D5E830E70FB2D5E4C39BFBE49AFAE462
:103D9C0099F9E498F8EC30E717B2D5123DC2120746
:103DAC0093E4C39BFBE49AFAE499F9E498F8800352
:103DBC0012079330D50DE4C39FFFE49EFEE49DFDF6
:043DCC00E49CFC2255
:0E082500C3E49FFFE49EFEE49DFDE49CFC22E4
:10083300EB9FF5F0EA9E42F0E99D42F0EC6480C83C
:0608430064809845F022DC
:10084900EB9FF5F0EA9E42F0E99D42F0E89C45F005
:01085900227C
:10085A00E8600FECC313FCED13FDEE13FEEF13FF7C
:03086A00D8F122A0
:10086D00E86010ECA2E713FCED13FDEE13FEEF13A1
:04087D00FFD8F0228E
:10088100E8600FEFC333FFEE33FEED33FDEC33FCD5
:03089100D8F12279
:0C089400E0FCA3E0FDA3E0FEA3E0FF22D7
:1008A000E493FC740193FD740293FE740393FF229E
:0C08B000ECF0A3EDF0A3EEF0A3EFF022BB
:1008BC00A8828583F0D083D0821208D31208D31279
:1008CC0008D31208D3E473E493A3C583C5F0C5839E
:1008DC00C8C582C8F0A3C583C5F0C583C8C582C886
:0108EC0022E9
:0C08ED00A42582F582E5F03583F5832216
:0608F9008A838982E4738A
:1034AA00024729E493A3F8E493A34003F68001F2C8
:1034BA0008DFF48029E493A3F85407240CC8C33323
:1034CA00C4540F4420C8834004F456800146F6DFF2
:1034DA00E4800B01020408102040809020A9E47EB9
:1034EA00019360BCA3FF543F30E509541FFEE493E7
:1034FA00A360010ECF54C025E060A840B8E493A3AE
:10350A00FAE493A3F8E493A3C8C582C8CAC583CAD8
:10351A00F0A3C8C582C8CAC583CADFE9DEE780BE90
:0121DE000000
:00000001FF
