:10425A0000A8C0003F065B4F666D7D077F6F0001B7
:08426A0002040810204080FF4F
:0E438100123BC5124467123F2E123B8780FB91
:051E3A0042001CA55A46
:103603008B2D8A2E892F8D3074FFF531F532E4FD31
:10361300EDC39530503EAB2DAA2EA92F8D82758315
:103623000012065F6232E4FCE53230E013E531C399
:1036330013FEE53213FFEE64A0FEEF6401FF800981
:10364300E531C313FEE53213FF8E318F320CBC0814
:09365300D70D80BCAE31AF32226C
:103D100090001EE0702A90006CE07024E4FF743C78
:103D20002FF582E43400F583E0FE74242FF582E45D
:103D30003400F583EEF00FBF18E490001E7401F01C
:013D40002260
:100DB000752301E4F5247B017A0079267D1412362F
:100DC000038E258F26900024E064A5600302112C79
:100DD000A3E0645A600302112CA3E06402600302E2
:100DE000112C900028E0600302112CA3E064016044
:100DF0000302112C900030E06408600302112CA360
:100E0000E0600302112C90003AE06F600302112CA5
:100E1000E525FFA3E06F600302112CE490001AF0B7
:100E2000A3F0F52274242522F582E43400F583E052
:100E3000FF74002522F582E43400F583E06F60033F
:100E4000E4F5230522E522B418DA900023E0602FB0
:100E5000E523602BE4F522746D2522F582E434004D
:100E6000F583E0FF74542522F582E43400F583EF26
:100E7000F00522E522B418DF90006C7401F022E442
:100E8000F52274242522F582E43400F583E0FF7412
:100E9000542522F582E43400F583EFF00522E522A3
:100EA000B418DF900057E04480F0A37401F0E4A38D
:100EB000F090006104F075220E74542522F582E44E
:100EC0003400F583E4F00522E522B416EC90002B03
:100ED000E0FE90002AE0FDEEF527EDF528900027D2
:100EE000E0FB640170499000637402F0A3F0E4A396
:100EF000F090001F120918900066EFF090001F128A
:100F0000091878081208DE900067EFF090001F12B1
:100F1000091878101208DE900068EFF090001F1298
:100F2000091878181208DE900069EFF00210C6EB7D
:100F3000B4020D90006374FFF0A3F0A3F00210C69A
:100F4000900027E0B4160D900032E0FF12400F8FA2
:100F5000240210C6900027E0B4170D900032E0FF85
:100F60001240F38F240210C6900027E064107042F4
:100F7000E528452770030210C3900018E0B5271438
:100F8000A3E0B5280F9000F8E0FF90002EE06F700E
:100F9000030210C690002EE0FF1222CD8F24E5241C
:100FA00060030210C6900018E527F0A3E528F002C0
:100FB00010C6900027E0B41306123A8B0210C690B8
:100FC0000018E0B52711A3E0B5280C9000F8E0FF69
:100FD00090002EE06F60067524020210C690002774
:100FE000E0B4110690002F0210B4900027E0FDB489
:100FF00012299000F3E0900063F0900123E090004C
:1010000064F09000FBE0FEA3E0900065F0EEA3F03A
:10101000900126E0900067F00210C6ED641470465F
:101020009000F8E0C39411401390002FE0FF7B0183
:101030007A007963122D5E8F240210C690002FE093
:10104000B401189000F8E0FF640F6004EFB4100BD7
:101050007B017A00796312354B806B7B017A0079D2
:1010600063121C9D8060900027E0FFB41526E4F514
:101070002274042522F582E43401F583E0FE7463D2
:101080002522F582E43400F583EEF00522E522B452
:1010900007DF8032EF64206008900027E064217051
:1010A000229000F8E0FF640F6007EF641060028098
:1010B00012900027E0FF7B017A00793212112D8F08
:1010C000248003752401900062E524F07B017A00FE
:1010D00079567D141236038E258F2690006AEFF024
:1010E000E525A3F0E4F52274242522F582E43400FA
:1010F000F583E0FF74002522F582E43400F583EFE8
:10110000F074542522F582E43400F583E0FF746D19
:101110002522F582E43400F583EFF00522E522B4C0
:0D11200018C59000237401F090006CF022BF
:1030F40090001F120918EF2401FFE43EFEE43DFD99
:10310400E43CFC90001F12093490001AE0FEA3E096
:10311400FFE4FCFD7B607AEAF9F8D31208B7400AB1
:1031240090001AE475F00112072712098390001A1F
:10313400E0B40108A3E0B4F403123A8B90006CE00D
:1031440060271243F8EF702190006CE0B40204E4AD
:10315400F080167B017A0079547D187C00123F06BA
:10316400BF020690006C7402F090001EE0600D90A7
:0D317400006CE0700790001EF0120DB022FC
:103BC500E490001EF090006CF0900023F090001837
:103BD500F0A3F090001F12094000000000E49000DF
:103BE5001AF0A3F01224CC7BFF7A3079F47F01120E
:0D3BF50032987BFF7A3D79107F09023298EB
:103F2E007F607E097D007C001234047527017528A0
:103F3E000075291C752A00752B027B017A00793CCD
:073F4E007D187C00023DD448
:103F7C000342031502E302AD0274023A020001C8C7
:103F8C00019401630136010E00EB00CC00B10099E5
:063F9C00008500730064C3
:051E3F004200F4D37124
:1040D600E4FF124461753E0A753F0A75400A754150
:0D40E6000A75420A7B0A7D0A7F0A02409695
:1042F200AB07AD038B3E8B3F8B408B418B42024021
:014302009624
:072F3E00900126F0FF7E0068
:102F45008E2D8F2EC3E52E94E8E52D940340127C3B
:102F5500037DE81206D27C007D0A1206D2AF0580F9
:102F6500027F0AAB07C3E52E9464E52D9400401655
:102F7500AE2DAF2E7C007D641206D27C007D0A1238
:102F850006D2AF0580027F0AAA07C3E52E940AE59B
:102F95002D94004016AE2DAF2E7C007D0A1206D270
:102FA5007C007D0A1206D2AF0580027F0A8F418A16
:102FB500408B3F753E0AAE2DAF2E7C007D0A120672
:0C2FC500D28D427B0A7D0A7F0A024096F2
:1041D800753E0A753F0A75400AE4F54190011FE0F3
:0B41E800F5427B0A7D0A7F0A02409628
:10400F00EFD3940240037F0122900133E0700690BA
:10401F000114E060037F032290011FEFF01241D8DB
:03402F007F0022ED
:1040F300900133E0700C900114E07006EFD3940A42
:0D41030040037F03227E00122F457F002223
:102CB9008E258F26D3E5269442E5259403500BC330
:102CC900E5269464E525940050057EFC7F1922E4ED
:102CD900F527E52725E0247EF582E4343FF583D303
:102CE9007401939526E4939525505DE52725E02405
:102CF9007CF582E4343FF583E493FA740193FBC3D2
:102D09009526FFEA9525FE7C007D051206C0E5277C
:102D190025E0247EF582E4343FF583E493FC7401D5
:102D290093FDC3EB9DFDEA9CFC1206D2AA06AB07F4
:102D3900AF277E007C007D051206C0EF24FBFFEE65
:102D490034FFCF2BCF3AFE220527E5276412708284
:052D59007E007F552201
:103A8B00900114E060079001227401F02212370DAF
:103A9B00E4900133F09000F3F01240D61241D8902D
:103AAB000113E06019E4900118F078337C00FD7B82
:0F3ABB00017A017916FE7F0612062012294A228F
:1036B5008D22900133E0604F9000F8E0FE640560D4
:1036C50005EE64067041E522603D900102E06F6001
:1036D500059000FD802EE522B4011B900132740196
:1036E500F09000F8E0B40606EF24FEFF8003EF0437
:1036F500FF7E00122F45E522B4020C900132E060F6
:08370500069001127401F0228C
:10427200E4FF123A4BAD07E4FF1236B57F01123A62
:084282004BAD077F010236B5C8
:10386000E4FF123937AD077F021236B57F051239F2
:1038700037AD077F031236B57F02123937AD077FA8
:10388000041236B57F04123937AD077F051236B5FD
:103890007F01123937AD077F061236B57F03123923
:0838A00037AD077F070236B5C2
:103C0200120003AD07900133E060309000F8E064E9
:103C12000A7028BD0107900103E04401F0BD020AC9
:103C2200900103E030E0034402F0900103E0FFB4AE
:0C3C320003047F0280007E00122F452258
:103F5500124354EF6020900133E0601A9000F8E0BE
:103F6500B40B13900115E0C394FF500AE004F0E090
:073F7500FF7E00122F452220
:10287700900133E070030229499000F8E0FF640FEC
:102887006008EF641060030229497B017A01793BF4
:102897007D061236039001067408F0A3E004F09059
:1028A7000141E0B50707AF06A3E06F600C90013563
:1028B700E004F0900105022946900108E004F09039
:1028C700013BE064D3706FA3E0647170699000FE10
:1028D700E0FEA3E0FD90013DE0FCED6C7058EEFFDB
:1028E700A3E0FEEF6E704F9000F9A3E0FF90013F69
:1028F700E0FEEF6E704090011EE0FE900140E0B5F3
:102907000634900104E06006900134E004F0900181
:10291700047401F074F62EF582E43400F583C08365
:10292700C082E0FE7401A807088002C333D8FC4EBA
:10293700D082D083F022900105E004F0900136E0C8
:0329470004F02277
:103C740012446D900133E0602B9000F8E0B40F24FF
:103C8400900106EFF0BF0805122877800C9001051B
:103C9400E004F0900137E004F07B017A01793B7D88
:053CA40008124430226B
:10354B008B298A2A892BE4FF74342FF582E434010A
:10355B00F583E0AB29AA2AA92B8F8275830012066B
:10356B009E0FBF07E39000F9A3E0AB29AA2AA92B72
:10357B0090000412069E90011EE090000512069E1C
:10358B009000F8E0B40F051241BC80031243EDAB81
:0C359B0029AA2AA92B900006EF02069E28
:1024CC00E49000F8F09000F3F0900123F09000FB02
:1024DC00F0A3F09000FEF0A3F09000F9F0A3F090C0
:1024EC00011EF0900133F0900132F0900112F09047
:1024FC0000FDF0900103F0900115F0900114F090A4
:10250C00011DF0900122F0900113F0900100F0A356
:10251C00F0900124F0A3F0900120F0A3F07F07903D
:10252C000104E4F0A3DFFCE490011FF0900127F01C
:10253C00900126F01241F37D07E4FF12440C124186
:10254C004A7F98123D4112407612412D1241677F0D
:10255C002B1243447B017A01793B7D081244307B7A
:10256C00FF7A4279727F041232987BFF7A38796055
:10257C007F071232987BFF7A3C79027F05123298E2
:10258C007BFF7A3F79557F061232987BFF7A287948
:10259C00777F0A1232987BFF7A3C79747F0B123268
:0E25AC00981240D61241D890011C74FFF02204
:1022CD008F29E529C394014007E529D394184003CC
:1022DD007F0122900114E060037F0322123A8B905C
:1022ED0000F8E529F09000F37401F0E4900123F07B
:1022FD009000FBF0A3F090011C74FFF0E49001221C
:10230D00F07F07900104E4F0A3DFFC7F07E529646B
:10231D000D701C90011DE060037F04227F7F124130
:10232D0084900104EFF0645AA3F07401122F3EE57E
:10233D0029B40C2612444E780B7C017D017E007F62
:10234D0007120620782A7C007D007B017A01790B2B
:10235D007E007F071206201223CEE529C3940F407D
:10236D0007E49000F6F0A3F0E529B40F167B017A8F
:10237D0001793B7D081244307BFF7A3C79747F0BE9
:10238D00123298E529B4102A752E017FB07E047D96
:10239D00007C00122A00752F017530007531F4751F
:1023AD0032007533027B017A01793B7D087C001286
:1023BD003DA3E529C394114005AF29122EA87F0036
:0123CD0022ED
:10112D008F298B2A8A2B892C900114E060037F0371
:10113D00229000F8E0C3941140119001337401F036
:10114D00AB2AAA2BA92CAF290221C390011CE0FECA
:10115D00B5290C9000F8E0C3940F50037F00229046
:10116D0000F8E0B40D0D90011DE07004EEF4600385
:10117D007F04229000F8E0FEB40D14AB2AAA2BA92F
:10118D002C120646FF900104E06F60037F0522EEEE
:10119D00B4050AE529D3940240037F01229000F89B
:1011AD00E0B4060AE529D3940440037F01229000A0
:1011BD00F8E0FF640F6008EF64106003021309E5A7
:1011CD002964206003021265AB2AAA2BA92C90007A
:1011DD000112065FFE120646FDEDFF9000FEEEF0D9
:1011ED00A3EFF090000212065FFD9000F9E4F0A36A
:1011FD00EDF090000312065F90011EF0EF4E6017A8
:10120D00D39000FAE094049000F9E0940050089017
:10121D00011EE0940140037F01227F07900104E449
:10122D00F0A3DFFC7F07900134E4F0A3DFFCE49032
:10123D000127F07F0890013BE4F0A3DFFC7F0890CD
:10124D0000F8E0640F60030213097B017A01793B1A
:10125D007D08124430021309E5296421600302134D
:10126D0006900133E070037F02229000F8E0B40F86
:10127D00091241BCEF60037F03229000F8E0B41027
:10128D00091243EDEF60037F032290014374D3F005
:10129D00A37471F09000FEE0FEA3E0900145F0EE26
:1012AD00A3F09000F9A3E0900147F090011EE090AB
:1012BD000148F07B017A0179437D061236039001D6
:1012CD0049EFF0A3EEF09000F8E0B40F137B017A34
:1012DD000179437D08123B48EF640260107F0322C1
:1012ED007B017A0179437D087C00123E059001094E
:1012FD007401F0900127F080037F01229001337477
:10130D0001F09000F304F0E49000FBF0A3F09001E5
:10131D001CE529F090012674FFF0E4900132F09065
:10132D000112F09000FDF0900103F0900115F09086
:10133D0000F8E0FFB40607E5292403FE8002AE297C
:10134D00900102EEF0EF640560129000F8E0FF648A
:10135D00066009EF640A6004EFB40B06E4FFFE12A9
:10136D002F459000F8E0640D7029AB2AAA2BA92C0B
:10137D00120646FF900104E06F60037F05227402A0
:10138D00122F3E900105E0FD7F7F12000E9001149B
:10139D007401F09000F8E0640E704D900116740326
:1013AD00F0A374BBF0A37406F0E4A3F0A3F0A3F0D4
:1013BD00900113E0701C782D7C00FD7B017A017982
:1013CD0016FE7F06120620123FA29001137401F043
:1013DD00801678337C007D007B017A0179167E00C2
:0B13ED007F0612062012294A7F002212
:100983009000F8E0C394114003020056900114E074
:10099300FF7003020A829000FBE475F0011207273F
:1009A300EFB40128C39000FCE0941E9000FBE09498
:1009B3000040199001267403122F417F7F12418456
:1009C300900106EFF09001147403802D900114E060
:1009D300B4032FC39000FCE0941E9000FBE094004E
:1009E30040209001267404122F41900104E0FD7F02
:1009F3007F12000E9001147402F0E49000FBF0A348
:100A0300F022900114E064026003020DAFC3900072
:100A1300FCE0941E9000FBE094005003020DAF90A5
:100A230001267405122F417F7F124184900107EF45
:100A3300F0E4900114F0900133F09000F37403F0AC
:100A4300900105E0FFA3E0B5070C900104E0FF90DF
:100A53000107E06F601D900104E0FF900107E06F64
:100A630060047F0780027F06900123EFF090011D51
:100A73007401F0900122E07003020DAF020DACE4AB
:100A83007B0AFAF9F890001F120918120817AC0034
:100A9300AD01AE02AF03E4FBFAF9F8C31208CD705F
:100AA3003812444078287C017D017E007F0A1206BB
:100AB3002090012CE0FFA3E0900124CFF0A3EFF0FE
:100AC30090012EE0FFA3E0900120CFF0A3EFF09080
:100AD3000100E475F001120727900133E07003026F
:100AE3000DAF900127E060259000F8E0B40F0612E7
:100AF30041BCEF600D9000F8E0B410111243EDEF2C
:100B0300700B90010A7401F0E4900127F0E47B0A72
:100B1300FAF9F890001F120918120817AC00AD017A
:100B2300AE02AF03E4FBFAF9F8C31208CD60030287
:100B33000C4C9000F8E064087057900124E0FEA389
:100B4300E0FF122CB98E238F24E524B41916E52374
:100B5300B4FC11753E0A753F11754011754111754D
:100B63004211801BC3E52364809480501D753E0AA7
:100B7300753F0A75401175410AE524F404F5427B7B
:100B83000A7D0A7F0A1240968007AF24AE23122FF4
:100B9300459000F8E0B4090B900120E0FEA3E0FFCC
:100BA300122F459000F8E0640C704312444E780B0A
:100BB3007C017D017E007F0712062090010DE0FE7F
:100BC300C4540FFFEE540FFD90010CE0FEC4540F0C
:100BD300F53EEE540FF53F75401190010BE0FEC456
:100BE300540FF541EE540FF5427B111240969000DD
:100BF300F8E0FF640F6005EF6410704DE4FDFC90B6
:100C0300011EE024F6F582E43400F583E0FB7A006C
:100C130074017E00A804088005C333CE33CED8F90F
:100C2300FFEE5AFEEF5B4E60010D0CBC05D1753E25
:100C33000A90011EE004F53F75400A75410A8D4292
:100C43007B0A7D0A7F0A1240969000FBE0FEA3E038
:100C5300FFE4FCFD7B607AEAF9F8D31208B7400A97
:100C63009000FBE475F0011207279000F8E064039D
:100C7300704E9000FBE0FEA3E0FF7C007D46120671
:100C8300D28F22900126E065226023E522F0C394EF
:100C930008500D7401A807088002C333D8FC800AEA
:100CA300E522B408047FFF8002E4FF124461E522D9
:100CB300C3940A400B9000F37403F0E4900133F003
:100CC3009000F8E0640470679000FBE0FEA3E0FF8F
:100CD3007C007D961206D28F22900126E065226069
:100CE3003CE522F070047F13802BE522B4011A75D2
:100CF3003E04753F057540067541077542087B0341
:100D03007D027F011240968014E522C3940A500AA3
:100D1300E5222409FF1242F280031240D6E522C3E2
:100D2300940A400B9000F37403F0E4900133F090C5
:100D330000F8E06407705C9000FBE07004A3E064DB
:100D430001700A7D14FC7F207E031233159000FB93
:100D5300E07004A3E06432700A7D14FC7FB07E046B
:100D63001233159000FBE07004A3E06464700A7D05
:100D730014FC7F087E07123315C39000FCE09482B5
:100D83009000FBE09400400BE4900133F09000F3FB
:100D93007403F09000F8E0B40E12C39000FCE094EA
:0D0DA300E09000FBE0942E4003123A8B22FA
:101C9D008B298A2A892BE4F52CAB29AA2AA92B8515
:101CAD002C82758300E412069E052CE52CB407E901
:101CBD009000F8E0FF64056005EF64067031900157
:101CCD0032E0AB29AA2AA92B12068C900112E0ABA7
:101CDD0029AA2AA92B90000112069E9000FDE090E2
:101CED00000212069E900102E0900003021E119068
:101CFD0000F8E0FF64086005EF6409704690012468
:101D0D00A3E0AB29AA2AA92B12068C900124E0ABE3
:101D1D0029AA2AA92B90000112069E900120E0FE0F
:101D2D00A3E090000212069EEE90000312069E9014
:101D3D000100E0FEA3E090000412069EEE90000567
:101D4D00021E119000F8E0FFB40A05900103800710
:101D5D00EFB40B0D900115E0AB29AA2AA92B0206B1
:101D6D008C9000F8E0640C705E12444E780B7C0190
:101D7D007D017E007F0712062090010BE0AB29AAA2
:101D8D002AA92B12068C90010CE0AB29AA2AA92BAB
:101D9D0090000112069E90010DE090000212069E29
:101DAD0090010EE090000312069E90010FE090004E
:101DBD000412069E900110E090000512069E9001FF
:101DCD0011E0900006803D9000F8E0640E7038122E
:101DDD0035A778167C017D017E007F0612062090C6
:101DED000116A3E0AB29AA2AA92B12068C90011685
:101DFD00E0AB29AA2AA92B90000112069E9001188A
:101E0D00E090000202069EE4F52C7404252CF58268
:101E1D00E43401F583E0AB29AA2AA92B852C827520
:0D1E2D00830012069E052CE52CB407DE2272
:1034E4008E388F39D3E539940FE538942740067523
:1034F400382775390FAE38AF397C037DE81206D210
:10350400AB07AE38AF397C007D641206D27C007DF7
:103514000A1206D2AA05AE38AF397C007D0A12061B
:10352400D27C007D0A1206D28D418A408B3F753EC3
:103534000AAE38AF397C007D0A1206D28D427B0A6E
:073544007D0A7F0A02409698
:10347B008F388C398D3AD3E53A940FE53994274040
:10348B0006753927753A0FAE39AF3A7C037DE812D2
:10349B0006D2AB07AE39AF3A7C007D641206D27C04
:1034AB00007D0A1206D2AA05AE39AF3A7C007D0A1E
:1034BB001206D27C007D0A1206D28D418A408B3FC8
:1034CB00753E11AE39AF3A7C007D0A1206D28D42A1
:0934DB007B117D11AF380240960F
:10370D009001BDE0FF604FEFB41105E4FF1238A842
:10371D009001BDE0B418031243149001BDE0FFC346
:10372D0094124020EFD39417501A7F01123C3E752E
:10373D003B64E4FB7D64FF1230647F02123C3E7FEC
:10374D0098123D415392FC439103439003E4900141
:07375D00BDF09001C0F02255
:102EA8008F2A9001BDE52AF0E49001C0F09001CA94
:102EB80074FFF0E49001C4F09001C6F0A3F0900113
:102EC800BEF0A3F09001CCF0A3F0A3F0A3F0900122
:102ED800C8F0A3F09001CBF09001C3F09001C5F0C9
:102EE8007F98123D41E52AB4110312428AE52A640B
:102EF800126005E52AB4160A7F02123C3E7F9B1237
:102F08003D41E52AB413057F03123C3EE52AB4147B
:102F1800107F01123C3E753B64E4FB7D64FF123078
:102F280064E52AB41505E4FF123C3EE52AB417050A
:062F38007F02123C3E2264
:1021C3008F2D8B2E8A2F89309001BDE0FFC3941190
:1021D3004006EFD3941840037F02229001CAE0FE29
:1021E300B52D037F00229001BDE0FF6411600EEF67
:1021F30064146009EF64136004EFB41707E52D60FE
:10220300037F01229001BDE0FDB4180AE52DD394AC
:102213000240037F0122EDB41813E52DB4010EEE45
:102223007008124455EF640160037F02229001BDE0
:10223300E0B41817E52DB402129001CAE0B4010806
:10224300124455EF640260037F02229001BDE0FF58
:1022530064126009EF64156004EFB4160AE52DD328
:10226300940140037F01229001CAE52DF0E490011F
:10227300C6F0A3F09001C004F09000F304F0E490E2
:1022830001C4F09001C3F09001C5F09001BDE0B42A
:102293001520E52DB4011BAB2EAA2FA93090000108
:1022A30012065FFE120646FDEDFF9001C1EEF0A39C
:1022B300EFF09001BDE0B4180EE52D7005123ACA97
:0A22C3008005AF2D1240327F00228B
:100056009001BDE0FF700302054F9001C0E0700300
:1000660002054F9001C6E475F0011207279001C6FC
:10007600E0FCA3E0FD9000FBECF0A3EDF0EF6411D3
:10008600600B9001BDE064146003020226D3ED9478
:1000960090EC940150047F0080489001C6E0FEA3D6
:1000A600E0FFD39420EE940350067D017F01803259
:1000B600D3EF944CEE940450047F0280259001C641
:1000C600E0FEA3E0FFD394DCEE940550067D037FAB
:1000D60003800FD3EF946CEE940750047F048002E4
:1000E6007F058F259001C6E07004A3E06401600BD4
:1000F6009001C4E0652570030201D89001C4E5258E
:10010600F064026005E525B405047F00800DE52551
:10011600C3940250047F0180027F028F26E5266089
:10012600259001BDE0B4110FE5256003B403047FFB
:100136003C80157F788011E5256003B403047F1E9B
:1001460080027F4680027F008F279001BDE0641108
:100156007029FF1238A8E5266041B401067A037BB0
:10016600E880047AFC7B18AD27E4FF122B66EF6467
:100176000260289001237414F08020E526B401045F
:10018600AF2780027F00E526B40206AE27AB0680C5
:10019600027B00753B647D641230649001CCE4F010
:1001A600A3E527F09001BDE0B41107E4FF123CDEA1
:1001B60080027F009001CEE4F0A3EFF09001CBE542
:1001C60026F0900126E525F0E527FD7C00AF2612F6
:1001D600347BC39001C7E094989001C6E094085020
:1001E6000302054F9001BDE0B4111EE4FF1238A8CA
:1001F600E4FF123CDE7E009001CEEEF0A3EFF0604D
:10020600139001237415F0800B753B64E4FB7D6449
:10021600FF123064E49001C0F09000F37403F02202
:100226009001BDE0B418141213F81244557E001262
:1002360034E4124455900126EFF0229001C6E0FE08
:10024600A3E0FF7C007D141206D2ED4C600302058C
:100256004F9001BEE475F0011207279001C37401A7
:10026600F09001BDE0FF64126008EF6416600302BF
:100276000364124440782E7C007D007E007F0A12C3
:1002860006209001CCE52EF0A3E52FF0A3E530F093
:10029600A3E531F09001BDE064129001CC60030249
:1002A600035CE0FEA3E0FF7C037DE81206D2AA070A
:1002B600C0029001CCE0FEA3E0FF7C007D64120644
:1002C600D27C007D0A1206D2AA05C0029001CCE0BB
:1002D600FEA3E0FF7C007D0A1206D27C007D0A1296
:1002E60006D2AB05C003A3E0FEA3E0FF7C037DE8D6
:1002F6001206D2AB079001CEE0FEA3E0FF7C007DA4
:10030600641206D27C007D0A1206D2AA059001CE9E
:10031600E0FEA3E0FF7C007D0A1206D27C007D0A87
:100326001206D28D418A408B3F9001CCE0FEA3E0BD
:10033600FF7C007D0A1206D28D3EA3E0FEA3E0FFFD
:100346007C007D0A1206D28D42D003D003D005D0A0
:10035600071240968008E0FEA3E0FF1234E4900105
:10036600BDE0641370591237BB8E288F299001CCDB
:10037600EEF0A3EFF0C39405E52864809480401165
:10038600D3E5299490E5286480948150047F018008
:10039600027F009001C3EFF0600D9001CCE0FEA358
:1003A600E0FF1234E48018753E0A753F117540115E
:1003B6007541117542117B0A7D0A7F0A124096909B
:1003C60001BDE06415600302047C1244278E288F69
:1003D600299001CCEEF0A3EFF0EE3395E0FDFC7B27
:1003E600007A8079FF78FFC31208B7600FE529F419
:1003F6007004E528647F60047F0180027F0090011D
:10040600C3EFF09001CAE0700F9001C1E528F0A398
:10041600E529F0E4FFFE805BAE28AF29EE3395E0D8
:10042600FDFCC006C0079001C1E0FEA3E0FBAA06E2
:10043600EA3395E0F9F8D007D00612077E8F2D8EA5
:100446002C8D2B8C2AEC33500B1208A98F2D8E2C59
:100456008D2B8C2AE47F0F7E27FDFCAB2DAA2CA9C1
:100466002BA82AD31208B740067E277F0F8004AE3A
:100476002CAF2D1234E49001BDE064176003020531
:100486004F1243348E288F29E5294528700302052B
:100496003AD3E5299400E5286480948040047F01DE
:1004A60080027F029001CBEFF0AE28EE3395E08517
:1004B600292D8E2CF52BF52AAF2DAE2CFDAC2AEC72
:1004C60033500B1208A98F2D8E2C8D2B8C2A900160
:1004D600C8E0FEA3E0FFC3740F9FFF74279EFEE4EF
:1004E600FCFDAB2DAA2CA92BA82AD31208B7900184
:1004F600C840097427F0A3740FF08008E52C852DF9
:10050600F01207279001C8E0FFA3E09001CCCFF0DE
:10051600A3EFF0D3E5299400E528648094807E005B
:1005260040047F0180027F029001CEE04EF0A3E0FE
:100536004FF08005E49001CBF09001CBE0FF9001F5
:0A054600C8E0FCA3E0FD12347B22A4
:102D5E008F298B2A8A2B892CE4FFAB2AAA2BA92C2C
:102D6E008F82758300E412069E0FBF07ED9001BDA2
:102D7E00E0B4180BAB2AAA2BA92CAF29022AB5E571
:102D8E002960037F01229001CCA3E0AB2AAA2BA9D4
:102D9E002C12068C9001CCE0AB2AAA2BA92C900009
:102DAE000112069E9001CEE0FEA3E09000021206F4
:102DBE009EEE90000312069E9001BEE0FEA3E090F0
:102DCE00000412069EEE90000512069E9001BDE0D4
:102DDE00FF64116004EFB414079001CBE0FF80058F
:102DEE009001C3E0FFAB2AAA2BA92C900006EF128C
:052DFE00069E7F00228B
:07443900000000000000225A
:10411000E4FEEF33B392C2124439C2C1124439EF04
:0D41200025E0FFD2C11244390EBE08E62290
:103CA900E4FDC291D2C1124439EF25E0547E44802B
:103CB900FF124110E4FFC2C1124439ED25E0FEA212
:103CC90090E4334EFDD2C11244390FBF08E8D291B6
:053CD900C2C1AF05228D
:10420E00C291D2C1124439EF25E0547EFF12411003
:0A421E00AF05124110D291C2C12277
:10376400AC07E4FD7F0112420E7D7F7F0412420EFE
:103774000D7F0A12420EEC60047D0080027D077FFB
:103784000D12420EEC60047D9380027D527F09127B
:10379400420EEC60077D207F0912420E7D0C7F01F2
:1037A40012420EEC60047D8080027D877F0D124200
:0737B4000EE49001B0F022C9
:103ACA005392FC5391FC43900343B41E53B3E1D287
:103ADA00C4C2C3E49001B6F09001BCF09001B0F00A
:103AEA009001ABF09001A9F0A3F09001B7F090011A
:0F3AFA00ADF0A3F09001ACF07D0F7F0102420E02
:104032009001ACEFF0E49001AAF09001BC7402F0A0
:10404200E49001B0F0BF01099001A9F09001B6041B
:02405200F0225A
:10431400E4FD7F0112420E7F1412420E53C0E122CB
:064455009001B6E0FF2219
:1013F8009001B0E004F09001BCE0FC70579001B09F
:10140800E0C3940550030216AA7F37123CA9900145
:10141800ABEFF0604DE0B4FF0280477D3D7F1112D5
:10142800420E7D1E7F2D12420EE4FD7F2C12420ECD
:101438007D8D7F2A12420E7D3E7F2B12420E7D400B
:101448007F1512420E7D037F1412420E9001BC7468
:10145800010216A4ECB401227F11123CA9EF643DED
:1014680060079001B77401F0229001B67401F0E4AE
:10147800A3F09001BC74020216A49001BCE0FA64C7
:101488000270369001B0E0C3941450030216AA907B
:1014980001B6E0640370030216AA9001ACE0700381
:1014A8000216AAE4FF1237649001ADE475F0011248
:1014B80007279001BC7403F022EA6403600C9001D2
:1014C800BCE0FA640560030215D57F04123CA9ABA1
:1014D80007EB5431700C9001B0E0C3940A5003023A
:1014E80016AAE4FD7F0D12420E7F37123CA9900127
:1014F800ABE0B5070A7F11123CA9EF643D600D907F
:1015080001B77401F09001BC040216A47F06123CD6
:10151800A9EF541B7005EB543070479001BCE0FFF5
:1015280064037025EB30E0219001B6E0B4021A9014
:1015380001ACE0B402139001AAE004F0C3940340A4
:10154800199001B67403F08011EFB4030D9001B641
:10155800E064026005E49001A9F09001BC74020205
:1015680016A4E49001AAF09001BCE0640370347FF3
:101578000A123CA9BF020A7F0C123CA9EF5407606B
:101588000C9001B77402F09001BC0216A47F0912F6
:101598003CA97F09123CA97F011237649001BC74F1
:1015A80005F0227F0A123CA9BF050A7F0C123CA94C
:1015B800EF5407600C9001B77402F09001BC02165A
:1015C800A4E49001AFF09001BC7406F022EA64062E
:1015D80060030216AA7F09123CA99001AFE0FE043D
:1015E800F074B12EF582E43401F583EFF09001AF89
:1015F800E0C3940550030216AAE4FFFE74B12EF569
:1016080082E43401F583E062070EBE04EF9001B571
:10161800E06F60079001B77402800C9001B1E0B4EC
:10162800880D9001B77403F0E49001A9F080687BFD
:1016380001E4FE74B12EF582E43401F583E0FF7411
:10164800B82EF582E43401F583E06F6002E4FB0E06
:10165800BE04E0EB70219001A9F0FE74B12EF58272
:10166800E43401F583E0FF74B82EF582E43401F523
:1016780083EFF00EBE04E49001A9E0C394FF500389
:10168800E004F09001A9E0C3940240069001B6740A
:1016980002F0E49001B7F09001BC7402F0E490010C
:0316A800B0F0227D
:102AB5008B2D8A2E892FE4FEAB2DAA2EA92F8E826F
:102AC500758300E412069E0EBE07EDEF704F900170
:102AD500B6E0AB2DAA2EA92F12068C9001ABE0AB68
:102AE5002DAA2EA92F90000112069E9001A9E09013
:102AF500000212069E9001AAE090000312069E9025
:102B050001B7E090000412069E9001ADA3E090008D
:102B15000512069E9001ADE09000068039EF640134
:102B25007039FE74B82EF582E43401F583E0AB2DDF
:102B3500AA2EA92F8E8275830012069E0EBE04E36F
:102B45009001A9E060047F0480027F00AB2DAA2ECE
:102B5500A92F900004EF12069E80037F01227F00BB
:012B6500224D
:094403008B88898C88898F8889D7
:101E4400520157868600868600868600868600862E
:091E5400860086860041014C095C
:03002B0002445B31
:06445B0053BCEFD20F324A
:021AF10015508E
:101AF300200F03021C9AC20F90014BE0B40900406F
:101B030003021C7C901B0EF8282873021B55021B32
:101B130029021B3B021B67021B29021B3B021B7E84
:101B2300021B29021B3BAFBDEFFEADBE7C00E42DC3
:101B3300FFEC3E90014D803CAFBDEFFEADBE7C009F
:101B4300E42DFFEC3E90014FF0A3EFF07549010245
:101B53001C82AFBDEFFEADBE7C00E42DFFEC3E90DA
:101B630001518010AFBDEFFEADBE7C00E42DFFEC54
:101B73003E900153F0A3EFF0021C82AFBDEFFEAD28
:101B8300BE7C00E42DFFEC3E900155F0A3EFF090F6
:101B93000155E0FEA3E07807CEC313CE13D8F9A80E
:101BA30050F6C394065013A850E675F003A42457C7
:101BB300F582E43401F583E014F090014CE014F075
:101BC3006003021C827409F0A850E4F6A850E6FFF3
:101BD300C394064003021C82EF75F003A42457F557
:101BE30082E43401F583E0C39480502AE6FF75F064
:101BF30003A42458F582E43401F583E0D3948040B0
:101C030040EF75F003A42459F582E43401F583749D
:101C130001F0F54A802BA850E6FF75F003A4245881
:101C2300F582E43401F583E0C394805014EF75F03A
:101C330003A42459F582E43401F5837402F0754A50
:101C430001A850E6FF75F003A42457F582E434019C
:101C5300F583E0FEEF75F003A42458F582E4340124
:101C6300F583EEF0E675F003A42457F582E434011E
:101C7300F5837486F006021BCF90014B74FFF0903E
:101C8300014BE0D39407400374FFF090014BE00451
:071C9300F090440393F5BC3F
:031C9A00055022D0
:02438F001550C7
:09439100A850A64AE4F54AE6FF33
:03439A00055022A9
:02439D001550B9
:09439F00A850A649E4F549E6FF27
:0343A8000550229B
:103D41008F9D75BC88439720D2AD9000CA74FFF057
:103D5100A3741AF0A374F1F0A374FFF0A37443F0F9
:103D6100A3748FF0A374FFF0A37443F0A3749DF0C8
:013D7100222F
:074440007B017A01794D2296
:10393700C3EF64809480403BD3EF64809485503319
:10394700EFFD3395E0FC90015975F003ED12097115
:10395700EC75F003A42583F583E0FE90015975F01B
:1039670003ED120971EC75F003A42583F583E4F0E8
:05397700AF06227F03F2
:01397C002228
:043EB600155015503E
:103EBA00124415A850A60608A607A850E6FE08E66A
:0F3ECA00FF4E600BEF24FFFFEE34FFFE12441E8D
:053ED900055005502218
:1040760053B1EF43B21012003EE4F5D975DA49D2D6
:10408600DE9000C474FFF0A3743EF0A374B6F02271
:083315008E258F268C278D28E0
:10331D00124415EF4E7066AF28AE2712441EC3E55A
:10332D0026940AE5259400404BE47B18FAF9F890B1
:10333D00425A120924120817C006C007AE25AF263F
:10334D00AB07AA06E4F9F8D007D006120817AB07A9
:10335D00AA06AFF9EFFEADE97C00E42DFFEC3ECF00
:10336D002BCF3AAD07FCAF03AE02124303D2D843C5
:0F337D00DA01800612003E53DAFE7F02227F0340
:01338C00221E
:0C43D500124415EF4E7002FF227F0122FF
:1026A700E4F5809001DBE0FFB40800505F9026BBA3
:1026B700F82828730226D30226D90226DF0226E548
:1026C7000226EB0226F50226FF022709C2A3C2A2B1
:1026D7008016C2A3C2A2801AC2A3C2A2801EC2A32E
:1026E700C2A28022C2A3D2A2C2A1C2A08020C2A33A
:1026F700D2A2C2A1D2A08016C2A3D2A2D2A1C2A046
:10270700800CC2A3D2A2D2A1D2A08002D2A3C3EFCF
:102717006480948850299001DBE0FF3395E0FE74D4
:10272700D22FF58274013EF583E0FF3395E0FE7406
:102737005E2FF58274423EF583E493F580801E9008
:1027470001DBE0FFB408133395E0FE74D22FF58266
:1027570074013EF583E0F5808003E4F5809001D1B4
:10276700E0FF9001DBE004FEF0D3EF6480F8EE6455
:1027770080984014E0D36480948850047408F02251
:092787009001D0E09001DBF0228A
:1041F300E4F5937594FF5395F043960F9000AF74D5
:0B420300FFF0A37426F0A374A7F022C4
:09440C009001D0EFF0A3EDF022C5
:104096009001D2EFF0A3EDF0A3EBF0A3E53EF0A381
:1040A600E53FF0A3E540F0A3E541F0A3E542F022A9
:064461009001DAEFF022E9
:101E5D00014D004102060041020305410204834188
:031E6D00020583E8
:10397D00209206900204E014F0900203E014F0701F
:10398D00347405F0A3E0FFC39480500EA3E094803F
:10399D004018A37401F0F54D8010900205E0C3941A
:1039AD00805007A37402F0754D01900205EFF09061
:0539BD0002047483F018
:0139C20022E2
:0243AB001550AB
:0943AD00A850A64DE4F54DE6FF11
:0343B6000550228D
:10412D009000BB74FFF0A37443F0A374ABF0900048
:0D413D00B874FFF0A37439F0A3747DF02274
:07000300900206E0FFE4F0AB
:01000A0022D3
:101E7000014E004901E89494009494009494004128
:031E800001E71E59
:0220A0001550D9
:1020A20020B2069001E8E014F020B3069001EBE0C4
:1020B20014F02097069001EEE014F09001E7E0148E
:1020C200F060030221C0741EF0A850E4F6A850E6A6
:1020D200FFC36480948340030221C0EF3395E0FE86
:1020E2009001E875F003EF120971EE75F003A42573
:1020F20083F583E0C3948050399001E975F003EFD2
:10210200120971EE75F003A42583F583E0D3948060
:10211200405AE6FF3395E0FE9001EA75F003EF12B4
:102122000971EE75F003A42583F5837401F0F54E71
:10213200803AA850E6FF3395E0FE9001E975F0037E
:10214200EF120971EE75F003A42583F583E0C394C1
:102152008050199001EA75F003EF120971EE75F0E3
:1021620003A42583F5837402F0754E01A850E6FF9F
:10217200FD3395E0FC9001E875F003ED120971EC76
:1021820075F003A42583F583E0FE9001E975F00361
:10219200ED120971EC75F003A42583F583EEF0EFDF
:1021A2003395E0FE9001E875F003EF120971EE75C8
:0E21B200F003A42583F5837494F0060220CF79
:0321C000055022A5
:0243B90015509D
:0943BB00A850A64EE4F54EE6FF01
:0343C4000550227F
:10414A009000B574FFF0A37443F0A374B9F0900023
:0D415A00B274FFF0A37420F0A374A0F02253
:103A4B00EF600764016003BF0233EFFD3395E0FCC9
:103A5B009001EA75F003ED120971EC75F003A425E2
:103A6B0083F583E0FE9001EA75F003ED120971EC2A
:0F3A7B0075F003A42583F583E4F0AF06227F03E3
:013A8A002219
:101E830055016A000000000000000000000000008F
:0C1E930000000000000000004101690098
:0216AB001550D8
:1016AD00A850E4F6A850E6FFC3648094834003027B
:1016BD00191CEF3395E0FE90016A75F007EF1209E2
:1016CD0071EE75F007A42583F583E0FCA3E04C7063
:1016DD000302191690016C75F007EF120971EE7582
:1016ED00F007A42583F583E0FEA3E04E70030219F5
:1016FD0016E6FFFD3395E0FC90016E75F007ED12D7
:10170D000971EC75F007A42583F58374FFF5F012CC
:10171D00072745F0600302191690016C75F007ED6F
:10172D00120971EC75F007A42583F583E0FAA3E0A7
:10173D00FB90016E75F007ED120971EC75F007A4C1
:10174D002583F583EAF0A3EBF0EF3395E0FE9001EE
:10175D006A75F007EF120971EE75F007A42583F590
:10176D0083E0FCA3E0D39400EC648094804056A801
:10177D0050E6FD3395E0FC90016A75F007ED120916
:10178D0071EC75F007A42583F58374FFF5F012074E
:10179D002790017075F007ED120971EC75F007A433
:1017AD002583F583E004F0D3648094834072900127
:1017BD007075F007EF120971EE75F007A42583F52A
:1017CD0083E4F0805BA850E6FFFD3395E0FC9001CB
:1017DD006A75F007ED120971EC75F007A42583F514
:1017ED0083E475F00112072790017075F007ED1273
:1017FD000971EC75F007A42583F583E014F0C3643B
:10180D00809480501BEF3395E0FE90017075F007CA
:10181D00EF120971EE75F007A42583F5837403F0BB
:10182D00A850E6FFFD3395E0FC90017075F007EDD3
:10183D00120971EC75F007A42583F583E014603C63
:10184D001460661470030218E32403600302190E7A
:10185D00EF1460101460192402600302190ED2C136
:10186D00C2C28029900169E054F04401F002190EC2
:10187D00900169E0540F4410F002190EA850E614BF
:10188D00601114601924027078C2C1D2C2C2C3C2E1
:10189D00C4806E900169E054F04402F080639001C1
:1018AD0069E0540F4420F08058A850E614601114DC
:1018BD0060192402704BC2C1C2C2D2C3C2C48041DE
:1018CD00900169E054F04404F08036900169E054D1
:1018DD000F4440F0802BA850E614601114601924B9
:1018ED0002701EC2C1C2C2C2C3D2C48014900169AB
:1018FD00E054F04408F08009900169E0540F4480F1
:0F190D00F0900169E0FF124461A850060216B184
:03191C0005502251
:10428A0053B3E143B41E53C0E19000D974FFF0A3C5
:08429A007416F0A374ABF022CE
:102B66008F38EF3395E0FE90016A75F007EF120992
:102B760071EE75F007A42583F583E0FEA3E04E60B1
:102B860003022C0EE538600A64016006E53864022B
:102B96007076ED60737C007E037FE81206D2AD3856
:102BA600ED3395E0FC90016C75F007ED120971ECC0
:102BB60075F007A42583F583EEF0A3EFF090016C82
:102BC60075F007ED120971EC75F007A42583F583FE
:102BD600E0FEA3E0FF90016E75F007ED120971ECBF
:102BE60075F007A42583F583EEF0A3EFF090016A54
:102BF60075F007ED120971EC75F007A42583F583CE
:0B2C0600EAF0A3EBF07F02227F032224
:1038A800EF600764016003BF023AEFFD3395E0FC67
:1038B80090016A75F007ED120971EC75F007A425FF
:1038C80083F583E0FAA3E0FB90016A75F007ED1237
:1038D8000971EC75F007A42583F583E4F0A3F0AE35
:0738E80002AF0322E4FEFF22
:0138EF0022B6
:103CDE00EF600764016003BF0225EF3395E0FE90AD
:103CEE00016A75F007EF120971EE75F007A42583CE
:103CFE00F583E0FEA3E04E60037F01227F00227F6A
:023D0E0003228E
:101E9F004100850A4100AE0A4100F20A040E00001B
:101EAF0000000114004600EC0000FFFF8FFFC10D82
:101EBF00C105C108C101C10E6024008AFF0029FFBE
:101ECF000029FF0029FF0029FF0029FF0029FF003B
:101EDF0029FF0029FF0029FF0029FF0029FF002902
:101EEF00603600AFFF0029FF0029FF0026FF002901
:101EFF00FF0026FF0029FF0026FF0029FF0029FF12
:101F0F000029FF0026FF0026FF0026FF0026FF0006
:0A1F1F0029FF0029FF0029FF002917
:0100290022B4
:030026007F002236
:1038F000438E805389F07BE07A28790178009042EA
:103900005A120924123A07EFF404F58A7BE07A2868
:103910007901780090425A120924123A07C3E49FB1
:10392000FFE49EFE74019DFDE49CFC78081208F102
:073930008F8CD28CD2A9227A
:03000B0002380EAA
:04380E00C0E0C0D086
:10381200D5080A75084C300D020514D20DA20372A8
:10382200045036150AE50A7030850C0AD207300AB0
:1038320017E50D6007150D438F01801D538FFEC2E2
:10384200B5D51615C20A8011050BE50BD3940640B7
:0938520008C203E5136002D2066E
:05385B00D0D0D0E032E6
:1037BB00300E47C20E90425A12092478101208F1AB
:1037CB008E388F39900088E0FEA3E0FFE4FCFD7B90
:1037DB0019FAF9F812078CC006C007AE38AF39AB2F
:1037EB0007AA06E4F9F8D007D006123A07780312B5
:1037FB0008F19000EAEEF0A3EFF09000EAE0FEA3F0
:02380B00E0FFDC
:01380D002298
:094415009000ECE0FEA3E0FF22A0
:09441E009000ECEEF0A3EFF02297
:104303009000F0EEF0A3EFF09000EEECF0A3EDF0F0
:014313002287
:03003E00C2B42227
:03003B00022C1183
:102C1100C0E0C083C082C0D075D000C004C005C070
:032C210006C007E3
:102C240030DF04C2DF807D30DA04C2DA807630D946
:102C34003DC2D9AFFBEFFEADEB7C00E42DFFEC3ED3
:102C440020000E900086F0A3EFF075DB11D2008017
:102C540053FE900086E0FCA3E0FDC3EF9DFFEE9CD5
:102C6400A3F0A3EFF075DB00C200D20E803630D89B
:102C740033C2D89000ECE07002A3E06022B2B490BA
:102C840000EEE0FEA3E0F5EAEEF5FAA3E0FEA3E031
:102C9400FF9000EFE02FF09000EEE03EF08005C2E0
:042CA400B453DAFE4D
:102CA800D007D006D005D004D0D0D082D083D0E0D1
:012CB80032E9
:064467001238F0D2AF2272
:10320D003004047F0180027F00200A047E018002C9
:10321D007E00EE5F6074E515C39509506830023687
:10322D00750D01E515131313541FAB17AA18A91922
:10323D00F58275830012065FFFE515540704FEEF56
:10324D00A806088002C333D8FC30D7057516038055
:10325D002F751601802AAB17AA18A91975F002E56A
:10326D0015A4F58285F08312065FF50DE51575F051
:10327D0002A429F9EA35F0FA90000112065FF5165D
:0A328D000515D20A22C204438F1077
:013297002214
:1025BA00900085E014F0701F740AF0D2059000AE06
:1025CA00E014F07012740AF0D2089000F2E014F0ED
:1025DA007005740AF0D2019000AFA3E0FAA3E0F903
:1025EA0012097D9000B2A3E0FAA3E0F912097D90E6
:1025FA0000BEA3E0FAA3E0F912097D9000CAA3E0A5
:10260A00FAA3E0F912097D9000D9A3E0FAA3E0F950
:10261A0012097D9000E2A3E0FAA3E0F912097D9085
:10262A0000D0A3E0FAA3E0F912097DEF600C900054
:10263A00A2A3E0FAA3E0F912097D9000D3A3E0FA7D
:10264A00A3E0F912097DEF600E9000A5A3E0FAA3BA
:10265A00E0F912097DD20BE512D394004016D51287
:10266A003030090C9000A8A3E0FAA3E0F912097D22
:10267A00D20C801D9000D6A3E0FAA3E0F912097DDE
:10268A00EF600E9000A8A3E0FAA3E0F912097DD248
:0D269A000C90008AA3E0FAA3E0F902097D8C
:102FD1009000C4A3E0FAA3E0F912097D9000C7A311
:102FE100E0FAA3E0F912097D9000B8A3E0FAA3E0AA
:102FF100F912097D90008DA3E0FAA3E0F912097D91
:103001009000B5A3E0FAA3E0F912097DEF600C90FE
:103011000096A3E0FAA3E0F912097D9000BBA3E0BA
:10302100FAA3E0F912097DEF600C90009CA3E0FA8D
:10303100A3E0F912097D9000CDA3E0FAA3E0F91213
:10304100097DEF600C90009FA3E0FAA3E0F912095B
:103051007D30060EC2069000ABA3E0FAA3E0F912A0
:03306100097D22C4
:103B0900900090A3E0FAA3E0F912097D9000C1A307
:103B1900E0FAA3E0F912097DEF600C900099A3E0A7
:103B2900FAA3E0F912097D9000DCA3E0FAA3E0F919
:0F3B390012097D9000DFA3E0FAA3E0F902097DF5
:103E6200AF11AE10AD0FAC0E9000E5120934900008
:103E7200E9E514F0E4F511F510F50FF50EF51490DF
:0B3E82000093A3E0FAA3E0F902097D21
:103B8700300705C20712320D300D05C20D1225BAD6
:103B9700300505C205122FD1300805C208123B09AE
:103BA700300105C201123E62E5112401F511E43529
:0E3BB70010F510E4350FF50FE4350EF50E2273
:103298008B2A8A2B892CEFB40C0050709032ABF833
:1032A8002828730232CF0232D40232D90232DE0227
:1032B80032E30232E80232ED0232F20232F702322F
:1032C800FC02330102330690008A803590008D801D
:1032D80030900090802B900093802690009680215B
:1032E80090009C801C900099801790009F801290FD
:1032F80000A2800D9000A580089000A8800390008F
:0D330800ABE52AF0A3E52BF0A3E52CF022A5
:074447007B017A0079E522F8
:071F2900014F004102070017
:0D002E0020A409754F019002077401F02213
:0243C70015508F
:0943C900A850A64FE4F54FE6FFF1
:0343D20005502271
:104167009000C174FFF0A37443F0A374C7F09000EC
:0D417700BE74FFF0A37400F0A3742EF022BC
:02435400155002
:0A435600900207E0A850F6FFE4F023
:03436000055022E3
:041F30004101F90171
:10422800C295E4FEEF1392CC000000D29500EFC3D4
:0842380013FFC2950EBE08EC55
:01424000225B
:1042A200E4FEEFC313FF30CC03430780D295000036
:0742B20000C2950EBE08EBEF
:0142B90022E2
:103E3400F07F85123E47A3EFF07F87123E47A3EF42
:033E4400F07F8983
:103E4700C296000000C295000000D29600124228D8
:0A3E57001242A2D295000000C296AC
:013E6100223E
:0340B600A3E0FD87
:1040B900C296000000C295000000D2960012422864
:0D40C900AF05124228D295000000C29622D9
:07444E007B017A0179F222E3
:1042410078F27C017D017B007A0079317E007F0765
:09425100120620E49001F9F022AC
:1042E000EFD3941F5009EF25E044C1FF023E477F02
:0242F0000122A9
:103E8D00AC07AB05ECD3941F501CE4FD7F8E1240A4
:103E9D00B9EC25E044C0FFAD031240B97D807F8EA3
:093EAD001240B97F00227F0122BE
:022E0300155068
:102E05009001F9E060447F81123E47A850EFF690AB
:102E150001F2E06F7003022EA5A850E6F07F831241
:102E25003E47A850EFF6A3E06F6075A850E6123E46
:102E350034A3EFF07F8D123E479001F8EFF07F8BC2
:102E4500123E479001F7EFF080569001F1E0FF0444
:102E5500F0EFC3940A4049E4F09001F904F0E4FD71
:102E65007F8E1240B99001F2E0FD7F801240B97F5C
:102E7500821240B67F841240B6A3E0FD7F861240E1
:102E8500B9A3E0FD7F881240B9A3E0FD7F8A124017
:102E9500B9A3E0FD7F8C1240B97D807F8E1240B9C9
:032EA500055022B3
:1023CE007F81123E479001F2EFF07F83123E47A3CA
:1023DE00EF123E34A3EFF07F8B123E47A3EFF07F58
:1023EE008D123E47A3EFF0E4FD7F8E1240B97F1EA3
:1023FE001242E0EF64A560047F0180027F0090012D
:10240E00F2E05480FEA3E0D3945940047D01800293
:10241E007D00ED4EFE9001F4E0D394A440047D01C6
:10242E0080027D00ED4EFE9001F5E0D39431400424
:10243E007D0180027D00ED4EFE9001F6E0D39412F8
:10244E0040047D0180027D00ED4EFE9001F7E0D349
:10245E00940740047D0180027D00ED4EFE9001F850
:10246E00E0D3949940047D0180027D00ED4E4F60D3
:10247E003078317C007D007B007A00792A7E007FE7
:10248E00071206201242417DA57F1E123E8D78F264
:10249E007C017D017B007A00792A7E007F0712067F
:1024AE00207DA97F901240B97D807F8E1240B99019
:0E24BE0000DF74FFF0A3742EF0A37403F0226D
:10432400D2C0000000D2CD000000C2C000000022B4
:0D004600C2C0000000D2CD000000D2C022D8
:0B3FC700123FEB123FD2AF05123FEBA0
:103FD200E4FFD2CD30C009EFC394FF50030F80F449
:083FE200000000C2CD00000048
:013FEA0022B4
:103FEB00E4FEEF25E0FFC2CD00000092C000000010
:103FFB00D2CD0000000EBE08E9C2CD000000D2C039
:03400B00000000B2
:01400E00228F
:10405400C2CD000000D2C000E4FED2CD0000EF25A6
:10406400E0FDA2C0E4334DFF0000C2CD000EBE0847
:01407400E962
:014075002228
:10000E00AC071243247FA0123FEB123FD2AF041273
:05001E003FC70200468F
:02418400AD0785
:104186001243247FA0123FC71243247FA1123FEBA4
:09419600123FD2124054120046FF
:01419F0022FD
:0B1F34004801FAD4111A50400288A5A1
:0942BA007F031242C3D2C57F0349
:0A42C300AE071FEE60030080F72233
:1042CD00D2A71242BAC2A77F031242C3C2C57F034F
:0342DD000242C3D7
:0C43E100C2A71242BAD2A77F030242C357
:1041A000E4FFD2C530A709EFC394FA50030F80F49F
:0C41B0007F031242C3C2C57F030242C35A
:023EDE00AD072E
:103EE000E4FBC2C57F031242C3ED3392A7ED25E088
:103EF000FD1242BA0BBB08EAC2C57F031242C3D20D
:063F0000C57F030242C36D
:0239C30015509D
:1039C500900202E0640170371242CD7F20123EDE84
:1039D5001241A0A850E4F6A850E6FFC3940850177A
:1039E50074FA2FF582E43401F583E0FF123EDE120E
:0F39F50041A0A8500680E01243E1E4900202F0E6
:033A040005502248
:1035A7009001FCE025E025E0FFA3E0C413135403DA
:1035B7002F2466F53AE43403F539900201E0540FFD
:1035C700F53B9001FFE0543FFF5403FEBE03057532
:1035D7003CFF8003E4F53CEF540CFEBE0C05753D43
:1035E700FF8003E4F53DEF5430FFBF3005753EFF24
:0B35F7008003E4F53E7B007A00793988
:0136020022A5
:10294A00D3E5349438E533940450047F0180027F40
:10295A0000C3E5349466E533940340047E018002A3
:10296A007E00EE5F60301235A7120753653470049B
:10297A00E5F065336020E534249AFD1313543F9043
:10298A0001FCF0ED5403FFC4333354C04410A3F0E8
:10299A009002027401F01235A7E92402F9E43AFA26
:1029AA00120646653560047F0180027F00E535D353
:1029BA00940F50047E0180027E00EE5F6011E535BF
:1029CA00540FFF900201E054F04FF0A37401F07D20
:1029DA002AE5366003430501E5376003430504E54C
:1029EA003860034305109001FFE06D6008EDF09038
:0529FA0002027401F06F
:0129FF0022B5
:103FA20078337C007D007B007A00792D7E007F06CD
:103FB20012062012294A9000DC74FFF0A37439F033
:053FC200A374C3F0220E
:103064008B3AAA077C007E037FE81206D29001E324
:10307400EEF0A3EFF0E53BFD7C007E037FE8120653
:10308400D2A3EEF0A3EFF0AF02AB07E4FAF9F890A5
:1030940001E3E0FEA3E0FFE4FCFD12078CEF243221
:1030A400FFE43EFEE43DFDE43CFCE47B64FAF9F815
:1030B400123A079001DDEEF0A3EFF0AF3AAB07E46C
:1030C400FAF9F89001E5E0FEA3E0FFE4FCFD120745
:1030D4008CEF2432FFE43EFEE43DFDE43CFCE47B63
:1030E40064FAF9F8123A079001DFEEF0A3EFF02248
:10365C00E4F52EF52DF52CF52BF52FD291AF2EAEE2
:10366C002DAD2CAC2B78011209058F2E8E2D8D2CA7
:10367C008C2B00C291309015E4FAF9F8EF2401F587
:10368C002EEA3EF52DE93DF52CE83CF52B052FE512
:10369C002FB418C700D2910000C291AF2EAE2DAD41
:0836AC002CAC2B78081208F188
:0136B40022F3
:094427009001E1E0FEA3E0FF2298
:0F4334009001E1E0FEA3E0FFE49001E1F0A3F0CF
:014343002257
:102790009001DCE0700F3090012212365C9001E174
:1027A000EEF0A3EFF09001DCE0FF64017062051B26
:1027B000E51B7002051AFDD39001E4E09D9001E352
:1027C000E0951A5005E4F51AF51BD39001DEE0956B
:1027D0001B9001DDE0951A4004D2908002C2900562
:1027E0001DE51D7002051CFDD39001E6E09D9001E2
:1027F000E5E0951C5005E4F51CF51DD39001E0E0E3
:10280000951D9001DFE0951C4004D2918002C29199
:10281000EF6402703E2090047F0180027F00E51E7D
:1028200060047E0180027E00EE5F60213091109096
:1028300001E2E004F070169001E1E004F0800E90F7
:1028400001E2E024FFF09001E1E034FFF0A290E427
:1028500033F51E9001DCE0B4031CE51F7002D29139
:10286000E51FB40105C29175DB21051FE51FC39467
:06287000C84003E4F51F5F
:01287600223F
:103C3E009001DCEFF07004C2918002D2919001DC11
:103C4E00E0B40310E5A254CFF5A2E4F5D975DB017B
:103C5E00D2DE8003E4F5DB9000E274FFF0A374275C
:063C6E00F0A37490F022A7
:1043440053B1DF43B220C2B5C20A8F0C438F10228F
:0300530002338DE8
:10338D00C0E0C083C082C0D075D000C000C001C0F5
:03339D0002C00368
:1033A000200313D203754408751300754300E50C20
:1033B000C313F50A803AE50BC394014031E5432578
:1033C000E0F543E50BC3940340020543D54421E5F2
:1033D00013C39545501A754408AB46AA47A94885BA
:1033E0001382758300E54312069E05138002C20313
:0333F000750B005A
:1033F300D003D002D001D000D0D0D082D083D0E08F
:013403003296
:094430008B468A4789488D45221C
:03446D00AF132268
:103D72002003047F0180027F00200A047E0180026A
:103D82007E00EE5F60188B178A188919EDC313F550
:103D920009C202E4F515538FEFD2047F02227F039A
:013DA20022FE
:103B48002003047F0180027F00200A047E01800296
:103B58007E00EE5F6026538FEF750D10751608D244
:103B68000A438F018B178A188919ED75F008A40488
:0F3B7800F509D202E4F515D2047F02227F032261
:1041BC002003047F0180027F00200A047E0180021C
:0C41CC007E00EE5F60037F00227F012276
:101F3F0055017F00000000000000000000000000BD
:081F4F00000001000000000089
:0300430002191F80
:10191F00C0E0C0F0C083C082C0D075D000C000C08E
:10192F0001C002C003C004C005C006C007E59A305D
:10193F00E142539AFD900184E0FEA3E0FFC39001C2
:10194F0083E09F900182E09E501F90017FE0FBA3F8
:10195F00E0FAA3E0F9A3E475F00112073D85F082E8
:10196F00F58312065FF59B800B900186E4F0E54C42
:10197F006002C2B7E59A20E003021AD6539AFE30EE
:10198F000C0BC20C90018CE4F0A3F0D209E54C646F
:10199F00026003021A3090018AE0FEA3E0FFA3E089
:1019AF00FCA3E0FDC39FEC9E5071900187E0FBA369
:1019BF00E0FAA3E0F98D828C83E59B12069E9001DD
:1019CF0092E0FEA3E0FFC3ED9FEC9E504090018A92
:1019DF00E0FCA3E0FDEF9DEE9C503290018FE0FB09
:1019EF00A3E0FAA3E0F990018CE0FEA3E0FFF582FB
:1019FF008E8312065FFD900187E0FBA3E0FAA3E060
:101A0F00F98F828E8312065F6D6002C20990018D7D
:101A1F00E004F0700690018CE004F0854B12021A7E
:101A2F00D690018AE0FEA3E0FFA3E0FCA3E0FDC394
:101A3F009FEC9E5077900187E0FBA3E0FAA3E0F9BB
:101A4F008D828C83E59B12069E900192E0FEA3E0AF
:101A5F00FFC3ED9FEC9E504690018AE0FCA3E0FD92
:101A6F00EF9DEE9C503890018FE0FBA3E0FAA3E0CE
:101A7F00F990018CE0FEA3E0FFF5828E8312065FE2
:101A8F00FD900187E0FBA3E0FAA3E0F98F828E833C
:101A9F0012065F6D600890018C74FFF0A3F0900147
:101AAF008DE004F0700690018CE004F090018AE064
:101ABF00FEA3E0FFC390018DE09F90018CE09E405C
:101ACF000690018E7401F0D007D006D005D004D057
:101ADF0003D002D001D000D0D0D082D083D0F0D0AC
:021AEF00E032E3
:024363001550F3
:0A43650090018EE0A850F6FFE4F08E
:03436F00055022D4
:01002A0022B3
:102A00008F2D8E2C8D2B8C2A852E4CE54C700280C0
:102A10000343BA01E54C70179000E274FFF0A37411
:102A200000F0A3742AF0E4F5DBD290D2918020C2AA
:102A3000B7AB2DAA2CA92BA82AE47F407E9CFDFCD5
:102A40001208178F4BE54B7003754B01854B1275C0
:102A50009A10E47B04FAF9F890425A1209241208F9
:102A600017AB2DAA2CA92BA82A120817EFF404F5EE
:102A7000D7E47B04FAF9F890425A12092412081795
:102A8000AB2DAA2CA92BA82A120817C3E49FFFE498
:102A90009EFE74019DFDE49CFC78081208DE8FD632
:102AA000438E1443AF019000D674FFF0A37443F03B
:052AB000A37463F02295
:103DA300900187EBF0A3EAF0A3E9F0A3ECF0A3ED15
:103DB300F0900192E532F0A3E533F090018FE52F07
:103DC300F0A3E530F0A3E531F0D20CE490018EF0DE
:013DD30022CD
:103E0500900186E0702690017FEBF0A3EAF0A3E92C
:103E1500F0E4A3F0A3F0A3ECF0A3EDF0A37401F09C
:0F3E2500E54C6002D2B7439A027F02227F03224C
:0B43ED00900186E07002FF227F012299
:101F57005501940000000000000000000000000090
:081F6700000001000000000071
:03002300021F7049
:101F7000C0E0C0F0C083C082C0D075D000C000C037
:101F800001C002C003C004C005C006C00730993BB1
:101F9000C299900199E0FEA3E0FFC3900198E09FF1
:101FA000900197E09E501F900194E0FBA3E0FAA3FC
:101FB000E0F9A3E475F00112073D85F082F5831284
:101FC000065FF599800590019BE4F02098030220BC
:101FD00085C298300B09C20B9001A1E4F0A3F090E8
:101FE000019FE0FEA3E0FFA3E0FCA3E0FDC39FECA4
:101FF0009E507790019CE0FBA3E0FAA3E0F98D826C
:102000008C83E59912069E9001A7E0FEA3E0FFC332
:10201000ED9FEC9E504690019FE0FCA3E0FDEF9DFC
:10202000EE9C50389001A4E0FBA3E0FAA3E0F99005
:1020300001A1E0FEA3E0FFF5828E8312065FFD9012
:10204000019CE0FBA3E0FAA3E0F98F828E831206E5
:102050005F6D60089001A174FFF0A3F09001A2E011
:1020600004F070069001A1E004F090019FE0FEA34F
:10207000E0FFC39001A2E09F9001A1E09E40069086
:1020800001A37401F0D007D006D005D004D003D04E
:1020900002D001D000D0D0D082D083D0F0D0E032B6
:024372001550E4
:0A4374009001A3E0A850F6FFE4F06A
:03437E00055022C5
:103404008F258E248D238C22759850438E40538EA5
:10341400FE53890FE47B04FAF9F890425A12092406
:10342400120817AB25AA24A923A822120817EFF41F
:1034340004F58BE47B04FAF9F890425A1209241239
:103444000817AB25AA24A923A822120817C3E49FAE
:10345400FFE49EFE74019DFDE49CFC78081208DEE6
:103464008F8DC2ABD28ED2AC9000D374FFF0A37414
:0734740043F0A37472F02283
:103DD40090019CEBF0A3EAF0A3E9F0A3ECF0A3EDCF
:103DE400F09001A7E52AF0A3E52BF09001A4E527C4
:103DF400F0A3E528F0A3E529F0D20BE49001A3F0A9
:013E0400229B
:103F060090019BE0701F900194EBF0A3EAF0A3E907
:103F1600F0E4A3F0A3F0A3ECF0A3EDF0A37401F09A
:083F2600D2997F02227F0322E1
:0B43F80090019BE07002FF227F012279
:0300000002318149
:0C318100787FE4F6D8FD7581500231C85B
:10055000E709F608DFFA8046E709F208DFFA803E8D
:1005600088828C83E709F0A3DFFA8032E309F6087A
:10057000DFFA8078E309F208DFFA807088828C83E2
:10058000E309F0A3DFFA806489828A83E0A3F60896
:10059000DFFA805889828A83E0A3F208DFFA804C70
:1005A00080D280FA80C680D4806980F28033801047
:1005B00080A680EA809A80A880DA80E280CA8033B0
:1005C00089828A83ECFAE493A3C8C582C8CCC58328
:1005D000CCF0A3C8C582C8CCC583CCDFE9DEE780F8
:1005E0000D89828A83E493A3F608DFF9ECFAA9F077
:1005F000EDFB2289828A83ECFAE0A3C8C582C8CCCD
:10060000C583CCF0A3C8C582C8CCC583CCDFEADEE5
:10061000E880DB89828A83E493A3F208DFF980CC47
:1006200088F0EF60010E4E60C388F0ED2402B40440
:100630000050B9F582EB2402B4040050AF232345E7
:0606400082239005A07367
:10064600BB010689828A83E0225002E722BBFE02B2
:09065600E32289828A83E49322E5
:10065F00BB010CE58229F582E5833AF583E0225050
:10066F0006E92582F8E622BBFE06E92582F8E2229A
:0D067F00E58229F582E5833AF583E49322B4
:10068C00BB010689828A83F0225002F722BBFE014D
:02069C00F32247
:10069E00F8BB010DE58229F582E5833AF583E8F092
:1006AE00225006E92582C8F622BBFE05E92582C83E
:0206BE00F22226
:1006C000EF8DF0A4A8F0CF8CF0A428CE8DF0A42E4E
:0206D000FE2208
:1006D200BC000BBE0029EF8DF084FFADF022E4CC0C
:1006E200F875F008EF2FFFEE33FEEC33FCEE9DECD5
:1006F200984005FCEE9DFE0FD5F0E9E4CEFD22ED1B
:10070200F8F5F0EE8420D21CFEADF075F008EF2F64
:10071200FFED33FD4007985006D5F0F222C398FD55
:050722000FD5F0EA22F2
:10072700C5F0F8A3E028F0C5F0F8E582158270025D
:060737001583E038F022FA
:10073D00A3F8E0C5F025F0F0E5821582700215836F
:06074D00E0C838F0E822CC
:10075300BB010A89828A83E0F5F0A3E02250068771
:10076300F009E71922BBFE07E3F5F009E319228933
:0B077300828A83E493F5F07401932266
:0E077E00C3EF9BFFEE9AFEED99FDEC98FC2276
:10078C00E88FF0A4CC8BF0A42CFCE98EF0A42CFC0C
:10079C008AF0EDA42CFCEA8EF0A4CDA8F08BF0A48A
:1007AC002DCC3825F0FDE98FF0A42CCD35F0FCEBE9
:1007BC008EF0A4FEA9F0EB8FF0A4CFC5F02ECD39AE
:0F07CC00FEE43CFCEAA42DCE35F0FDE43CFC221B
:1007DB0075F008758200EF2FFFEE33FECD33CDCCD5
:1007EB0033CCC58233C5829BED9AEC99E582984058
:1007FB000CF582EE9BFEED9AFDEC99FC0FD5F0D635
:10080B00E4CEFBE4CDFAE4CCF9A88222B800C1B95E
:10081B000059BA002DEC8BF084CFCECDFCE5F0CB9C
:10082B00F97818EF2FFFEE33FEED33FDEC33FCEBD5
:10083B0033FB10D703994004EB99FB0FD8E5E4F990
:10084B00FA227818EF2FFFEE33FEED33FDEC33FC7D
:10085B00C933C910D7059BE99A4007EC9BFCE99A71
:10086B00F90FD8E0E4C9FAE4CCFB2275F010EF2FB6
:10087B00FFEE33FEED33FDCC33CCC833C810D707B6
:10088B009BEC9AE899400AED9BFDEC9AFCE899F8F1
:0E089B000FD5F0DAE4CDFBE4CCFAE4C8F92284
:103A0700C2D5E830E70FB2D5E4C39BFBE49AFAE4EA
:103A170099F9E498F8EC30E717B2D5123A3D120855
:103A270017E4C39BFBE49AFAE499F9E498F8800356
:103A370012081730D50DE4C39FFFE49EFEE49DFDF9
:043A4700E49CFC22DD
:0E08A900C3E49FFFE49EFEE49DFDE49CFC2260
:1008B700EB9FF5F0EA9E42F0E99D42F0EC6480C8B8
:0608C70064809845F02258
:1008CD00EB9FF5F0EA9E42F0E99D42F0E89C45F081
:0108DD0022F8
:1008DE00E8600FECC313FCED13FDEE13FEEF13FFF8
:0308EE00D8F1221C
:1008F100E86010ECA2E713FCED13FDEE13FEEF131D
:04090100FFD8F02209
:10090500E8600FEFC333FFEE33FEED33FDEC33FC50
:03091500D8F122F4
:0C091800E0FCA3E0FDA3E0FEA3E0FF2252
:10092400E493FC740193FD740293FE740393FF2219
:0C093400ECF0A3EDF0A3EEF0A3EFF02236
:10094000A8828583F0D083D08212095712095712EA
:100950000957120957E473E493A3C583C5F0C5830F
:10096000C8C582C8F0A3C583C5F0C583C8C582C801
:010970002264
:0C097100A42582F582E5F03583F5832291
:06097D008A838982E47305
:10318D00024381E493A3F8E493A34003F68001F294
:10319D0008DFF48029E493A3F85407240CC8C33343
:1031AD00C4540F4420C8834004F456800146F6DF12
:1031BD00E4800B0102040810204080901E3AE47E4A
:1031CD00019360BCA3FF543F30E509541FFEE49307
:1031DD00A360010ECF54C025E060A840B8E493A3CE
:1031ED00FAE493A3F8E493A3C8C582C8CAC583CAF9
:1031FD00F0A3C8C582C8CAC583CADFE9DEE780BEB1
:011F6F000071
:00000001FF
