:102E060000A8C0003F065B4F666D7D077F6F000818
:0E2E160040014148BF86DBCFE6EDFD87FFEFB0
:0E2EBF001224A7122F281228F6122B6980FB6E
:041DBB00026DA55AB6
:092BDE0085313785323885333921
:062BE7008B348A358936AB
:102BED00E4FFAB37AA38A9398F82758300120883A9
:102BFD00AB34AA35A9368F827583001208C20FBF78
:022C0D0018E0CD
:012C0F0022A2
:102947008B2B8A2C892D900018120883700B122B61
:10295700DEAB2BAA2CA92D8017AB2EAA2FA930905E
:1029670000181208837018122BDEAB2EAA2FA9307D
:1029770090001874011208C2900019E40208C205F9
:0829870077E577700205762266
:1027F9008B228A238924AB25AA26A927900018129F
:102809000883602F8B378A388939AB22AA23A924F8
:10281900122BE7AB22AA23A92490001874011208ED
:10282900C2900019E41208C2AB25AA26A927900074
:10283900188010AB22AA23A924900018E41208C218
:08284900900019E41208C222FC
:102A1E009000C4E0603D122EFCEF70379000C5E0D0
:102A2E0060127525017526007527787B017A00796D
:102A3E00AC1227F99000C4E06019A3E070157B0179
:102A4E007A0079AC7D18FC122D55BF02069000C598
:042A5E007401F022ED
:102A62009000DEE0603D122EF1EF70379000DFE063
:102A720060127525017526007527927B017A00790F
:102A8200C61227F99000DEE06019A3E070157B0101
:102A92007A0079C67D18FC122CA4BF02069000DFD2
:042AA2007401F022A9
:102D7D00E57860090577E5777018057622753701D6
:102D8D007538007539307B017A007900122BE775A3
:032D9D0078012298
:102DA000E57960090577E5777018057622753701B2
:102DB0007538007539487B017A007918122BE77550
:032DC00079012274
:1025B1008B2B8A2C892DAB2EAA2FA93090000A745F
:1025C100081208C290000CE41208C290000D7401B8
:1025D1001208C290000E74011208C2AB2BAA2CA9DA
:1025E1002D900009120883B401047F1F80027F012E
:1025F100AB2EAA2FA93090000FEF1208C2AB2BAA65
:102601002CA92D9000091208837F00AB2EAA2FA9B7
:1026110030900010EF1208C290001174011208C22C
:0F26210090001274011208C2900013E40208C264
:10253000E4F52FF5307531017532017533617D0198
:10254000121125EF706A752E01752F0175306175B6
:1025500031017532007533E07B017A0079F4121491
:10256000B2900162E0B401189000ECE07012752E98
:1025700001752F007530E07B017A0179611225B178
:10258000752E01752F007530607B017A0079E0129D
:1025900012EDEF701B85282E85292F852A30753185
:1025A00001753200753360AB25AA26A92712294789
:0125B0002208
:101F4200E578601EE4F5787525017526007527ACE5
:101F5200752801752900752A787B017A00790012AB
:101F62002530E579601EE4F5797525017526007541
:101F720027C6752801752900752A927B017A007996
:101F8200181225307B017A0079F412241D90014A3F
:101F9200E06403704990014DE06043900158E070A5
:101FA2003D0570E5707002056FC3940AE56F9400F9
:101FB2004039754508AE6FAF707C007D0A120C7611
:101FC2008F498E488D478C46E4F54AF54BF54CF522
:101FD2004D7B017A0079F47D05121CDC800D9001A5
:101FE2004AE064036005E4F56FF570122A1E022AC6
:011FF200628C
:102DC300E4FF122AEA8F227F01122AEA8F23E522E7
:102DD300B401057F01122F22E523B40105E4FF129C
:022DE3002F229D
:012DE50022CB
:1027240012000378717C007D007E007F051208444E
:1027340090014EE0FEA3E0FF7C007D641208E4AB50
:102744000790014EE0FEA3E0FF7C007D0A1208E43E
:102754007C007D0A1208E48D268B2590014DE0FB58
:10276400A3E0FEA3E0FF7C007D0A1208E48D27E5C8
:102774007560047F0C80027F0A8F28E577457660B8
:10278400047F0C80027F0A8F2990014AE0FD7F01BB
:03279400022DE62D
:1024A700E4F578F579900090F09000C4F09000AAD8
:1024B700F09000DEF0F576F577F56FF5707B017A31
:1024C7000079F47D0112209B122E5D7D07E4FF1237
:1024D7002F0775250A75260A75270A75280A75298B
:1024E7000A7B0AE4FD7F01122DE6E4FF122F221278
:1024F7002E247BFF7A2D797D7F091226307BFF7A88
:102507002D79A07F0A1226307BFF7A1F79427F013F
:102517001226307BFF7A2779247F031226307BFF30
:092527007A2D79C37F04022630ED
:1028F6007F607E097D007C001226AD7526017FB0C3
:102906007E047D007C00121E8D75270075280075DB
:10291600296D752A00752B027B017A0079307D18A6
:102926007C00122C7375270075280075296D752A91
:1029360000752B027B017A0079487D187C00022CF9
:01294600424E
:05002600F9E4352CFA9D
:0E002B00900001120883FE12086AFDEDFF220C
:0B2EDB00ED1208B0900001EC0208C2EC
:0A2797008B668A6789688C698D6A79
:1027A10074FFF56BF56CE4FDFCC3ED956AEC95697E
:1027B1005041AB66AA67A9688D828C831208836237
:1027C1006CE4FBE56C30E015E56BC313FEE56C13BF
:1027D100FFEE64A0F56BEF6401F56C800BE56BC354
:1027E10013F56BE56C13F56C0BBB08D70DBD000140
:0727F1000C80B6AE6BAF6C6B
:0127F80022BE
:0612ED008B2B8A2C892DD9
:1012F30012086A640160037F0322AB2BAA2CA92D79
:1013030090000A120883D3940840037F04229000BC
:101313000B12088354FC60037F0522AB2EAA2FA96E
:101323003074A51208B0AB2EAA2FA9309000017417
:101333005A1208C2AB2BAA2CA92D12086AAB2EAAEB
:101343002FA9309000021208C2AB2BAA2CA92D9012
:101353000001120883AB2EAA2FA9309000031208B4
:10136300C2AB2BAA2CA92D900002120883AB2EAA84
:101373002FA9309000041208C2AB2BAA2CA92D90E0
:101383000003120883AB2EAA2FA930900005120880
:10139300C2E92406F9E43AFAC003C002C001AB2B48
:1013A300AA2CA92D90000412097AFDACF0D001D02B
:1013B30002D003122EDBAB2EE5302408F9E4352FDF
:1013C300FAC003C002C001AB2BAA2CA92D900006C2
:1013D30012097AFDACF0D001D002D003122EDBABA0
:1013E3002BAA2CA92D900008120883AB2EAA2FA993
:1013F3003090000A1208C2AB2BAA2CA92D90000929
:10140300120883AB2EAA2FA93090000B1208C2AB8F
:101413002BAA2CA92D90000A120883AB2EAA2FA960
:101423003090000C1208C2AB2BAA2CA92D90000BF4
:10143300120883AB2EAA2FA93090000D1208C2E424
:10144300F531AB2BAA2CA92D90000A120883FFE5D6
:1014530031C39F5016E9240CF9E43AFA7E00E925DA
:1014630031F9EE3AFA12086AFF80027F00E531246F
:101473000EF582E433F583AB2EAA2FA930EF1208C1
:10148300C20531E531B408BAAB2EE5302402F9E4E4
:10149300352FFA7D147C00122797AD07AC06AB2ECF
:0E14A300E5302416F9E4352FFA122EDB7F0017
:0114B1002218
:081125008D2E8B2B8A2C892DE5
:10112D0012086AB4A50A900001120883645A60037C
:10113D007F0122E92402F9E43AFA7D147C0012279A
:10114D0097C006C007AB2BE52D2416120026D0053F
:10115D00D004EF6D7002EE6C60037F0222AB2BAA00
:10116D002CA92D900002120883640160037F0322D5
:10117D0090000C120883D3940840037F0422900042
:10118D000D12088354FC60037F05229000051208A0
:10119D0083FF652E6007EFF460037F0622E530457F
:1011AD002F6017E92406F9E43AFA12002BEF6530A7
:1011BD007003EE652F60037F0722AB2BAA2CA92DA0
:1011CD00900002120883AB31AA32A9331208B0ABDA
:1011DD002BAA2CA92D900003120883AB31AA32A99A
:1011ED00339000011208C2AB2BAA2CA92D9000043C
:1011FD00120883AB31AA32A9339000021208C2AB98
:10120D002BAA2CA92D900005120883AB31AA32A967
:10121D00339000031208C2AB2BE52D2406120026D5
:10122D00AB31AA32A933900004EE8FF0120A56ABFF
:10123D002BE52D2408120026AB31AA32A9339000DC
:10124D0006EE8FF0120A56AB2BAA2CA92D90000A90
:10125D00120883AB31AA32A9339000081208C2AB31
:10126D002BAA2CA92D90000B120883AB31AA32A901
:10127D00339000091208C2AB2BAA2CA92D90000C9B
:10128D00120883AB31AA32A93390000A1208C2ABFF
:10129D002BAA2CA92D90000D120883AB31AA32A9CF
:1012AD003390000B1208C2E4F534AF347E00740E97
:1012BD002FF582E433F583AB2BAA2CA92D120883CD
:1012CD00FDAB31E533240CF9E43532FAE92FF9EEB3
:0F12DD003AFAED1208B00534E534B408CD7F00BD
:0112EC0022DF
:102BA700E4F5F0120A37900002E4F5F0120A5690A5
:102BB7000004E4F5F0120A56900006120C1A000001
:102BC700000090000AE41208C290000BE41208C249
:072BD70090000CE40208C2AB
:102E780012094FFFAEF04E600CEFB50508EEB50431
:082E8800047F0180027F00229B
:102CD300E4F5F0120A37900002E4F5F0120A569078
:102CE3000004E4F5F0120A5690000674011208C2BB
:0E2CF300900007E41208C2900008E40208C234
:06213F008B5D8A5E895FE2
:10214500900008120883700BD3E5659440E564940C
:102155000040037F0022AB5DAA5EA95FE475F00134
:102165001209B2AB5DAA5EA95F900007ED1208C225
:10217500900004E5648565F0120A56E4FFFEC3EF9E
:102185009565EE9564502AAB61AA62A9638F828E2C
:1021950083120883FDAB5DE55F2409F9E4355EFA3A
:1021A500E92FF9EA3EFAED1208B00FBF00010E80E3
:1021B500CDAB61AA62A963AD65AC64122797AB5D2F
:1021C500AA5EA95F900002EE8FF0120A56900008F1
:0721D50074011208C27F0132
:0121DC0022E0
:06164A008B438A44894530
:10165000ED75F004A4F54B85F04A90000412097A68
:10166000AEF02406F54DE43EF54C900008120883D8
:10167000600BC3E54B954DE54A954C40037F002236
:02168000E4FD87
:10168200ED7E00254BF54FEE354AF54EC3E54F95FD
:101692004DE54E954C400FAB47AA48A9498D82753E
:1016A2008300E4021781E54F454E701AAB43AA440A
:1016B200A945900006120883AB47AA48A9498D8222
:1016C200758300021781E54F6401454E701AAB43E2
:1016D200AA44A945900007120883AB47AA48A94922
:1016E2008D82758300021781E54F6402454E7019A1
:1016F200AB43AA44A94590000412097AAB47AA4811
:10170200A9498D827583008076E54F6403454E704A
:101712001BAB43AA44A94590000412097AE5F0AB39
:1017220047AA48A9498D827583008053E54F640416
:10173200454E7019AB43AA44A94590000212097A9A
:10174200AB47AA48A9498D827583008032E54F6470
:1017520005454EAB43AA44A945700A9000021209FE
:101762007AE5F0800FE54F2403FFE4354E8F82F5D2
:1017720083120883AB47AA48A9498D827583001258
:0217820008C29B
:0B1784000DED640460030216827F017B
:01178F002237
:102D2C00900008120883600B12094F6D7003E5F0D8
:102D3C006C60037F0022900008E41208C29000042B
:092D4C00E4F5F0120A567F0122A1
:102E4100900008120883600F90000412097A24068A
:0C2E5100FFE435F0FE80047E007F0022CC
:07000E00E9240CF9E43AFAC1
:0E001500900001120883FE12086AFDEDFF2222
:1021DD008B418A428943900001120883FFE4FCFD84
:1021ED00FE7808120BC7A804C005C006C007120868
:1021FD006AFFD003D002D001EB4FFFEAFEE9FDE804
:10220D00FCC004C005C006C007AB41AA42A943905B
:10221D000002120883FFE4FCFDFE7810120BC7D0FC
:10222D0003D002D001D000EF4BFFEE4AFEED49FD89
:10223D00EC48FCC004C005C006C007AB41AA42A9CA
:10224D0043900003120883FFE4FCFDFE7818120B87
:10225D00C7D003D002D001D000EF4BFFEE4AFEED08
:06226D0049FDEC48FC22D3
:0B2EE600ED1208B0900001EC0208C2E1
:10298F008F608E5F8D5E8C5DEF1208B0AF60AE5FB3
:10299F00AD5EAC5D7808120BA0900001EF1208C27B
:1029AF00AF60AE5FAD5EAC5D7810120BA090000211
:1029BF00EF1208C2AF60AE5FAD5EAC5D7818120B60
:0829CF00A0900003EF0208C212
:042C1000AB07AA065E
:102C1400ED6203E4FDEB30E011EAC313FEEB13FFB6
:102C2400EE64A0FEEF6401FF8007EAC313FEEB131A
:0D2C3400FFAA06AB070DBD08DCAE02AF0322
:012C41002270
:0918C00085313C85323D85333E43
:0618C9008B358A368937D9
:1018CF00AB3CAA3DA93E74011208B0AB38AA39A9A6
:1018DF003AF5827583001208834480AB3CAA3DA978
:1018EF003E9000011208C2AB35AA36A937900058B6
:1018FF00120883AB3CAA3DA93E9000021208C2AB6E
:10190F0038AA39A93A900002120883AB3CAA3DA924
:10191F003E9000031208C2AB38AA39A93A900004CE
:10192F0012097AFFAB3CAA3DA93E900004E5F08F67
:10193F00F0120A56AB38AA39A93A90000612097A62
:10194F00FFAB3CAA3DA93E900006E5F08FF0120ACE
:10195F0056AB38AA39A93A900008120883AB3CAAB3
:10196F003DA93E9000081208C2AB38AA39A93A9097
:10197F000009120883AB3CAA3DA93E90000912084A
:10198F00C290000A74011208C290000B7401120871
:10199F00C2E53B6013AB3CE53E240BF9E4353DFA61
:1019AF0012086A44021208B0AB3CAA3DA93E90004F
:1019BF000CE53B1208C27F01AB3CE53E240CF9E479
:1019CF00353DFAEF7C0029F9EC3AFAE41208B00F32
:0319DF00BF08E559
:0119E20022E2
:10209B008B228A2389248D25122BA7AB22E524249E
:1020AB000DF9E43523FA122CD3AB22AA23A92490E1
:1020BB000056E41208C2900057E41208C290005870
:1020CB00E5251208C2900059E41208C290005AE4A8
:1020DB00F5F0120A5690005CE4F5F0120A569000E7
:1020EB005EE4F5F0120A5690006074FFF5F0120AE8
:1020FB0056900062E41208C2900063E41208C2908A
:10210B000064E41208C2900065E4F5F0120A5690E0
:10211B000067E4F5F0120A56900069E41208C290C9
:10212B00006AE41208C290006BE41208C290006CC3
:04213B00E40208C2F0
:060046008B358A36893774
:10004C00AB38AA39A93A900001120883FF64016009
:10005C0004EFB402037F00229000011208836403B2
:10006C00600302015490000412097A45F0600A9072
:10007C00000A120883640860037F0322AB35AA369A
:10008C00A937900056120883FF60136406600FEFC7
:10009C00B4020890001512088360037F0122AB356F
:1000AC00AA36A937122BA7AB38AA39A93A90000463
:1000BC0012097AFFAB35AA36A937E5F08FF0120A90
:1000CC0037AB38E53A240CF9E43539FA1221DDABBB
:1000DC0035AA36A937900006120BDAAB38AA39A923
:1000EC003A900010120883AB35AA36A93790000A53
:1000FC001208C2AB38E53A2411F9E43539FA12008A
:10010C0015AB35AA36A937900002EE8FF0120A56BD
:10011C00AB38AA39A93A900013120883AB35AA362A
:10012C00A93790000B1208C290006074FFF5F01212
:10013C000A56900062E41208C2900063E41208C2EE
:10014C009000567401020751AB38AA39A93A9000B5
:10015C000412097AFDACF0AB35AA36A937122E7809
:10016C00EF70037F0622AB38AA39A93A900001122E
:10017C000883120C4A07570401AF05028C0602F7DC
:10018C0007071F0807390904281004831104CC122F
:10019C0006EE13060B14054715058A1606D8200023
:1001AC00000771AB35AA36A937900056120883B4F4
:1001BC000110AB38AA39A93A90000A1208836408D6
:1001CC0060037F042290000C1208836005D3940C0A
:1001DC0040037F0322AB35AA36A937900062120880
:1001EC0083FFAB38AA39A93A90000C120883D39F2D
:0501FC0050037F032207
:10020100E4F53DAB35AA36A93790006012097AFFB3
:10021100AEF0AB38E53A240CF9E43539FA7C00E963
:10022100253DF9EC3AFA12086AFD122C10AB35AAF9
:1002310036A937900060EE8FF0120A56053DE53D74
:05024100C3940840BE5B
:10024600AB38AA39A93A90000C120883AB35AA3606
:10025600A9379000621208C2AB38AA39A93A9000B1
:100266000C120883B4051C90000D120883B4010417
:100276007F0180027F00AB35AA36A937900063EF75
:100286001208C27F0022AB35AA36A9379000561253
:100296000883B40110AB38AA39A93A90000A1208AB
:1002A60083640260037F042212000E8E3B8F3CABF8
:1002B60035AA36A93790000212097AB53C15E53BF6
:1002C600B5F01090006012097A653C7004E53B6554
:1002D600F060037F0322900004E53B853CF0120AA0
:1002E6005690000C74011208C29000567402020760
:1002F60051AB35AA36A937900058120883640160BD
:10030600037F0522AB38AA39A93A90000812088360
:10031600D3940F40037F0322AB35AA36A93790004A
:1003260056120883FEB403037F0122EEB40208903E
:10033600000C12088370037F0422AB38AA39A93A4D
:1003460090000A120883C39403400AE9240D1200A0
:1003560011EF4E70037F0322AB38AA39A93A9000F9
:1003660008120883B40511AB35AA36A93790006385
:1003760012088370037F0422AB38AA39A93A900089
:100386000C120883AB35AA36A93790000A1208C2A8
:1003960090005674031208C290005AE475F00112D8
:1003A60009EAAB38AA39A93A900008120883AB3596
:1003B600AA36A9379000591208C2AB38AA39A93A09
:1003C600900008120883FFC3940B400AEFD3940DE4
:1003D60050047F0180027F00AB35AA36A937900012
:1003E60064EF1208C2900064120883601BAB38AA3F
:1003F60039A93A900008120883B40D067E037FE8F7
:10040600800A7E0B7FB880047E007F00AB35AA365B
:10041600A93790005CEE8FF0120A56900057E4025E
:100426000751AB35AA36A937900056120883B40394
:1004360010AB38AA39A93A90000A120883640860FA
:10044600037F0422E9240E1200118E3B8F3CE53C0B
:10045600453B600BD3E53C9460E53B94EA40037F63
:100466000322AB38AA39A93A900008120883AB35A3
:10047600AA36A9379000591208C20205ECAB35AA74
:1004860036A937900056120883B40310AB38AA3940
:10049600A93A90000A120883640660037F042212B8
:1004A600000EAB35AA36A93790005A12097A6F703A
:1004B60003EE65F060037F032290005EE475F001B1
:1004C6001209EA7F0022AB38AA39A93A90000A122B
:1004D6000883640360037F0322AB35AA36A93790ED
:1004E60000151208836022AB38E53A240CF9E4358E
:1004F60039FA120015AB35AA36A93790000D120944
:0C0506007A6F7003EE65F060037F0B223B
:10051200E9240DF9E43AFAC003C002C001AB38AADB
:1005220039A93A90000E120883FD754700754800FC
:1005320075493DD001D002D00312164AEF70037FF5
:020542000B228A
:100544007F0022AB38AA39A93A90000A12088364C2
:100554000260037F032212000EAC06AD07AB35E543
:1005640037240DF9E43536FA122D2CEF70037F0B86
:1005740022AB35AA36A93790005674021208C290ED
:100584000059E4020751AB35AA36A9379000561238
:100594000883B40310AB38AA39A93A90000A1208A8
:1005A40083640460037F042212000EAB35AA36A9CB
:1005B4003790005A12097A6F7003EE65F060037F7A
:1005C4000322AB38E53A240EF9E43539FA12001562
:1005D4008E3B8F3CE53C453B600BD3E53C9460E5AA
:1005E4003B94EA40037F0322E53C2409FFE4353BC6
:1005F400FE7C007D0A1208E4AB35AA36A9379000C8
:100604005CEE8FF002076BAB35AA36A93790005623
:100614001208836403702E9000641208836026AB72
:1006240038AA39A93A90000A120883B403171200B1
:100634000EAB35AA36A93790005A12097A6F7003A7
:10064400EE65F060037F0422AB38AA39A93A900022
:100654000E120883B4011EAB35AA36A937E4F5455A
:10066400F549F548F547F546F54A754B01F54CF55E
:100674004D7D028059AB38AA39A93A90000E120870
:1006840083B4021FAB35AA36A937754505E4F5498D
:10069400F548F547F546F54AF54BF54C754D017DA2
:1006A40003802BAB38AA39A93A90000E120883B400
:1006B400031FAB35AA36A93775450EE4F549F5484D
:1006C400F547F546F54AF54BF54CF54D7D05021C0D
:1006D400DC7F0322AB38AA39A93A90000A120883B6
:1006E400640560037F03227F0022AB35AA36A93755
:1006F400900056120883FF64036008EF64046003EB
:100704007F042290005774061208C29000567405A4
:100714001208C290005CE4F5F0804CAB35AA36A90F
:1007240037900056120883640360037F042290000C
:100734005674048018AB35AA36A9379000561208AF
:1007440083640460037F042290005674031208C279
:100754007F0022AB35AA36A93790005674061208DA
:0F076400C290005CE4F5F0120A567F00227F0578
:010773002263
:060D34008B358A36893779
:100D3A00E53B6003020F52AB38AA39A93A90000189
:100D4A0012088364026003020E05AB3CAA3DA93E69
:100D5A0090000A74081208C2AB35AA36A937900067
:100D6A0056120883AB3CAA3DA93E90000D1208C258
:100D7A00E9240EF9E43AFAC003C002C001AB35AA6D
:100D8A0036A93790005A12097AFDACF0D001D00288
:100D9A00D003122EE6AB35AA36A9379000591208AD
:100DAA0083AB3CAA3DA93E9000101208C2AB35AAFB
:100DBA0036A937900057120883AB3CAA3DA93E904A
:100DCA0000111208C2E92412F9E43AFAC003C00277
:100DDA00C001AB35AA36A937900015120883600EF8
:100DEA0090000D12097AFFAEF0AC06FD80047C007B
:100DFA007D00D001D002D003022EE6AB38AA39A971
:100E0A003A90000112088364126003020EB9AB3CE7
:100E1A00AA3DA93E90000A74081208C2E9240DF9F5
:100E2A00E43AFAC003C002C001AB35AA36A937902A
:100E3A00000D12097AFDACF0D001D002D003122EB7
:100E4A00E6AB38AA39A93A90000E120883AB3CAA3D
:100E5A003DA93E90000F1208C2AB35E537240DF9C3
:100E6A00E43536FAC003C002C001AB38AA39A93A40
:100E7A0090000E120883FD75470075480075493FBA
:100E8A00D001D002D00312164AAB3CAA3DA93E902B
:100E9A000010E53F1208C2900011E5401208C29006
:100EAA000012E5411208C2900013E542020F4FAB4F
:100EBA0038AA39A93A900001120883642060030213
:100ECA000F52AB3CAA3DA93E90000A74061208C212
:100EDA00AB38AA39A93A90000C120883AB3CAA3D58
:100EEA00A93E90000D1208C2AB38AA39A93A90005F
:100EFA000D120883AB3CAA3DA93E90000E1208C20F
:100F0A00AB38AA39A93A90000E120883AB3CAA3D25
:100F1A00A93E90000F1208C2AB38AA39A93A90002C
:100F2A000F120883AB3CAA3DA93E9000101208C2DA
:100F3A00AB38AA39A93A900010120883AB3CAA3DF3
:080F4A00A93E9000111208C23B
:010F5200227C
:0614B2008B2B8A2C892D12
:1014B80090006C120883700302158CAB2EAA2FA91A
:1014C8003090000612097AFFAEF0AB2BAA2CA92D9A
:1014D80090006512097A6F7003E5F06E60030215DB
:1014E8008CAB2EAA2FA93090000412097AFFAEF017
:1014F800AB2BAA2CA92D90006712097A6F7003E50F
:10150800F06E600302158CAB2EAA2FA93090000252
:10151800120883FFAB2BAA2CA92D9000691208830F
:101528006F7061AB2EAA2FA930900001120883FFBB
:10153800AB2BAA2CA92D90006A1208836F704585E1
:101548002E38852F3985303A90006B120883F53B89
:101558001218C0852E38852F3985303AAB2BAA2C26
:10156800A92D90006B120883F53B85313C85323DEF
:1015780085333E120D34AB2BAA2CA92D90006B128B
:101588000883FF22852E38852F3985303AAB2BAA60
:101598002CA92D1200468F34AB2EAA2FA93090000B
:1015A8000612097AFFAB2BAA2CA92D900065E5F04D
:1015B8008FF0120A56AB2EAA2FA9309000041209F8
:1015C8007AFFAB2BAA2CA92D900067E5F08FF012BB
:1015D8000A56AB2EAA2FA930900002120883AB2B13
:1015E800AA2CA92D9000691208C2AB2EAA2FA930E7
:1015F800900001120883AB2BAA2CA92D90006A1227
:1016080008C290006BE5341208C290006C74011295
:1016180008C2852E38852F3985303A85343B121813
:10162800C0852E38852F3985303A85343B85313C45
:1016380085323D85333EAB2BAA2CA92D120D34AF34
:01164800346D
:01164900227E
:081CDC00AF058B418A428943E8
:101CE400900056120883FE64036008EE64056003E6
:101CF4007F0422AB41AA42A94390001512088360D5
:101D0400037F0722AB41AA42A94390005A12097AE1
:101D1400FDACF07B007A00794E122EE6AB41AA426C
:101D2400A943900059120883F5508F51854552906C
:101D3400006412088360047F0380027F018F53755F
:101D440054017B007A007955AF49AE48AD47AC46A3
:101D540012298F7A007959AD4BAC4A122EE67A00DB
:101D6400795BAD4DAC4C122EE6AB41E543240DF945
:101D7400E43542FA75610075620075634E7564005E
:101D840075650F7D0112213FEF70037F0722AB4180
:101D9400AA42A943900057E5451208C2900064E4A2
:101DA4001208C290005CE4F5F0120A5690005674D2
:061DB400061208C27F00C8
:011DBA002206
:10241D008B228A238924900056120883FF6403704F
:10242D003490005C12097A45F0602A90005C74FFCC
:10243D00F5F01209EA90005C12097A45F0705AAB7A
:10244D0022AA23A924900057740F1208C290005697
:10245D0074050208C2EF6405703FAB22AA23A924BC
:08246D00900015120883703184
:10247500900057120883FFB406047E0780027E038E
:102485008E258F45E4F549F548F547F546F54AF5B6
:102495004BF54C754D01AB22AA23A924AD25121C81
:0124A500DC5A
:0124A6002213
:101BF300E4F580900218E0FFB40800505F901C07E2
:101C0300F8282873021C1F021C25021C2B021C31FE
:101C1300021C37021C41021C4B021C55C2A3C2A268
:101C23008016C2A3C2A2801AC2A3C2A2801EC2A3EC
:101C3300C2A28022C2A3D2A2C2A1C2A08020C2A3F8
:101C4300D2A2C2A1D2A08016C2A3D2A2D2A1C2A004
:101C5300800CC2A3D2A2D2A1D2A08002D2A3C3EF8E
:101C6300648094885029900218E0FF3395E0FE7455
:101C73000F2FF58274023EF583E0FF3395E0FE7487
:101C83000A2FF582742E3EF583E493F580801E902F
:101C93000218E0FFB408133395E0FE740F2FF582AA
:101CA30074023EF583E0F5808003E4F58090020E34
:101CB300E0FF900218E004FEF0D3EF6480F8EE64D6
:101CC30080984014E0D36480948850047408F02210
:091CD30090020DE0900218F022CD
:102E5D00E4F5937594FF5395F043960F90019F748D
:0B2E6D00FFF0A3741BF0A374F3F0222D
:092F070090020DEFF0A3EDF022A1
:102DE60090020FEFF0A3EDF0A3EBF0A3E525F0A31F
:102DF600E526F0A3E527F0A3E528F0A3E529F022D0
:062F2200900217EFF022FF
:101DBF00011E0049021A94940094940094940041D7
:031DCF0002191ED8
:0219E300151FCE
:1019E50020B20690021AE014F020B30690021DE022
:1019F50014F0209706900220E014F0900219E014EC
:101A0500F06003021B03741EF0A81FE4F6A81FE68E
:101A1500FFC3648094834003021B03EF3395E0FE0C
:101A250090021A75F003EF120C3EEE75F003A42533
:101A350083F583E0C39480503990021B75F003EF62
:101A4500120C3EEE75F003A42583F583E0D3948054
:101A5500405AE6FF3395E0FE90021C75F003EF1245
:101A65000C3EEE75F003A42583F5837401F0F51E95
:101A7500803AA81FE6FF3395E0FE90021B75F00340
:101A8500EF120C3EEE75F003A42583F583E0C394B5
:101A950080501990021C75F003EF120C3EEE75F0A4
:101AA50003A42583F5837402F0751E01A81FE6FFC4
:101AB500FD3395E0FC90021A75F003ED120C3EEC37
:101AC50075F003A42583F583E0FE90021B75F003F2
:101AD500ED120C3EEC75F003A42583F583EEF0EFD3
:101AE5003395E0FE90021A75F003EF120C3EEE7589
:0E1AF500F003A42583F5837494F006021A1200
:031B0300051F2299
:022ECD00151FCF
:092ECF00A81FA61EE4F51EE6FF93
:032ED800051F22B1
:102E24009001A574FFF0A3742EF0A374CDF090016B
:0D2E3400A274FFF0A37419F0A374E3F02260
:102AEA00EF600764016003BF0233EFFD3395E0FC3A
:102AFA0090021C75F003ED120C3EEC75F003A42550
:102B0A0083F583E0FE90021C75F003ED120C3EEC97
:0F2B1A0075F003A42583F583E4F0AF06227F0353
:012B29002289
:101DD2004101750A41019E0A4101E20A040E000016
:101DE20000000114004601DC0000FFFF8FFFC10D5F
:101DF200C105C108C101C10E6024017AFF000AFFBA
:101E0200000AFF000AFF000AFF000AFF000AFF00A3
:101E12000AFF000AFF000AFF000AFF000AFF000A89
:101E22006036019FFF000AFF000AFF003EFF000A22
:101E3200FF003EFF000AFF003EFF000AFF000AFF0C
:101E4200000AFF003EFF003EFF003EFF003EFF0093
:0A1E52000AFF000AFF000AFF000A61
:01000A0022D3
:03003E007F00221E
:1029D700438E805389F07BE07A2879017800902E26
:1029E70006120BFE122AA6EFF404F58A7BE07A287A
:1029F70079017800902E06120BFE122AA6C3E49FD7
:102A0700FFE49EFE74019DFDE49CFC7808120BB365
:072A17008F8CD28CD2A922A2
:03000B000228A424
:0428A400C0E0C0D000
:1028A800D5080A75084C300D020514D20DA2037222
:1028B800045036150AE50A7030850C0AD207300A2A
:1028C80017E50D6007150D438F01801D538FFEC25C
:1028D800B5D51615C20A8011050BE50BD394064031
:0928E80008C203E5136002D206E8
:0528F100D0D0D0E03260
:10285100300E47C20E902E06120BFE7810120BB3EB
:102861008E1A8F1B900178E0FEA3E0FFE4FCFD7B54
:1028710019FAF9F8120A83C006C007AE1AAF1BABEA
:1028810007AA06E4F9F8D007D006122AA67803129F
:102891000BB39001DAEEF0A3EFF09001DAE0FEA3C2
:0228A100E0FF56
:0128A3002212
:092F10009001DCE0FEA3E0FF22C9
:092F19009001DCEEF0A3EFF022C0
:102E90009001E0EEF0A3EFF09001DEECF0A3EDF096
:012EA000220F
:032F2E00C2B42208
:03003B00021FF3AE
:101FF300C0E0C083C082C0D075D000C004C005C09B
:0320030006C0070D
:1020060030DF04C2DF807D30DA04C2DA807630D970
:102016003DC2D9AFFBEFFEADEB7C00E42DFFEC3EFD
:1020260020000E900176F0A3EFF075DB11D2008050
:1020360053FE900176E0FCA3E0FDC3EF9DFFEE9C0E
:10204600A3F0A3EFF075DB00C200D20E803630D8C5
:1020560033C2D89001DCE07002A3E06022B2B490F3
:1020660001DEE0FEA3E0F5EAEEF5FAA3E0FEA3E06A
:10207600FF9001DFE02FF09001DEE03EF08005C228
:04208600B453DAFE77
:10208A00D007D006D005D004D0D0D082D083D0E0FB
:01209A003213
:062F28001229D7D2AF22EE
:102392003004047F0180027F00200A047E01800253
:1023A2007E00EE5F6074E515C39509506830023611
:1023B200750D01E515131313541FAB17AA18A919AC
:1023C200F582758300120883FFE515540704FEEFBA
:1023D200A806088002C333D8FC30D70575160380DF
:1023E2002F751601802AAB17AA18A91975F002E5F4
:1023F20015A4F58285F083120883F50DE51575F0B5
:1024020002A429F9EA35F0FA900001120883F516C0
:0A2412000515D20A22C204438F1000
:01241C00229D
:101B0600900175E014F0701F740AF0D20590019EE2
:101B1600E014F07012740AF0D2089001E2E014F0BA
:101B26007005740AF0D20190019FA3E0FAA3E0F9D0
:101B3600120C709001A2A3E0FAA3E0F9120C7090C7
:101B460001AEA3E0FAA3E0F9120C709001BAA3E08B
:101B5600FAA3E0F9120C709001C9A3E0FAA3E0F928
:101B6600120C709001D2A3E0FAA3E0F9120C709067
:101B760001C0A3E0FAA3E0F9120C70EF600C90012B
:101B860092A3E0FAA3E0F9120C709001C3A3E0FA65
:101B9600A3E0F9120C70EF600E900195A3E0FAA392
:101BA600E0F9120C70D20BE512D394004016D51250
:101BB6003030090C900198A3E0FAA3E0F9120C70FA
:101BC600D20C801D9001C6A3E0FAA3E0F9120C70B6
:101BD600EF600E900198A3E0FAA3E0F9120C70D220
:0D1BE6000C90017AA3E0FAA3E0F9020C7064
:102273009001B4A3E0FAA3E0F9120C709001B7A3A4
:10228300E0FAA3E0F9120C709001A8A3E0FAA3E02E
:10229300F9120C7090017DA3E0FAA3E0F9120C701F
:1022A3009001A5A3E0FAA3E0F9120C70EF600C9083
:1022B3000186A3E0FAA3E0F9120C709001ABA3E04E
:1022C300FAA3E0F9120C70EF600C90018CA3E0FA12
:1022D300A3E0F9120C709001BDA3E0FAA3E0F91298
:1022E3000C70EF600C90018FA3E0FAA3E0F9120CDD
:1022F3007030060EC20690019BA3E0FAA3E0F91228
:032303000C702239
:102B2A00900180A3E0FAA3E0F9120C709001B1A31E
:102B3A00E0FAA3E0F9120C70EF600C900189A3E0AF
:102B4A00FAA3E0F9120C709001CCA3E0FAA3E0F921
:0F2B5A00120C709001CFA3E0FAA3E0F9020C7007
:102D0100AF11AE10AD0FAC0E9001D5120C0E9001AB
:102D1100D9E514F0E4F511F510F50FF50EF5149061
:0B2D21000183A3E0FAA3E0F9020C70AC
:102B6900300705C207122392300D05C20D121B064C
:102B7900300505C205122273300805C208122B2A36
:102B8900300105C201122D01E5112401F511E435C9
:0E2B990010F510E4350FF50FE4350EF50E22A1
:102630008B228A238924EFB40C005070902643F833
:1026400028287302266702266C022671022676026B
:10265000267B02268002268502268A02268F0226F3
:102660009402269902269E90017A803590017D8001
:1026700030900180802B90018380269001868021FC
:1026800090018C801C900189801790018F8012909E
:102690000192800D9001958008900198800390012F
:0D26A0009BE522F0A3E523F0A3E524F02242
:070003007B017A0179D5228F
:101E5C005501E3000000000000000000000000003D
:081E6C0000000100000000006D
:03004300020F5356
:100F5300C0E0C0F0C083C082C0D075D000C000C064
:100F630001C002C003C004C005C006C007E59A3033
:100F7300E142539AFD9001E8E0FEA3E0FFC3900134
:100F8300E7E09F9001E6E09E501F9001E3E0FBA3A2
:100F9300E0FAA3E0F9A3E475F00112093985F082C0
:100FA300F583120883F59B800B9001EAE4F0E51DBD
:100FB3006002C2B7E59A20E00302110A539AFE3099
:100FC3000C0BC20C9001F0E4F0A3F0D209E51D6410
:100FD3000260030210649001EEE0FEA3E0FFA3E0D1
:100FE300FCA3E0FDC39FEC9E50719001EBE0FBA3DB
:100FF300E0FAA3E0F98D828C83E59B1208C290018D
:10100300F6E0FEA3E0FFC3ED9FEC9E50409001EE9F
:10101300E0FCA3E0FDEF9DEE9C50329001F3E0FB7A
:10102300A3E0FAA3E0F99001F0E0FEA3E0FFF5826C
:101033008E83120883FD9001EBE0FBA3E0FAA3E0AB
:10104300F98F828E831208836D6002C2099001F1C9
:10105300E004F070069001F0E004F0851C12021128
:101063000A9001EEE0FEA3E0FFA3E0FCA3E0FDC3D2
:101073009FEC9E50779001EBE0FBA3E0FAA3E0F92D
:101083008D828C83E59B1208C29001F6E0FEA3E0FB
:10109300FFC3ED9FEC9E50469001EEE0FCA3E0FD04
:1010A300EF9DEE9C50389001F3E0FBA3E0FAA3E040
:1010B300F99001F0E0FEA3E0FFF5828E831208832E
:1010C300FD9001EBE0FBA3E0FAA3E0F98F828E83AE
:1010D3001208836D60089001F074FFF0A3F0900193
:1010E300F1E004F070069001F0E004F09001EEE00E
:1010F300FEA3E0FFC39001F1E09F9001F0E09E406A
:10110300069001F27401F0D007D006D005D004D0C8
:1011130003D002D001D000D0D0D082D083D0F0D081
:02112300E032B8
:022EA100151FFB
:0A2EA3009001F2E0A81FF6FFE4F032
:032EAD00051F22DC
:0100390022A4
:101E8D008F258E248D238C2285261DE51D700280C5
:101E9D000343BA01E51D70179001D274FFF0A374CE
:101EAD0000F0A37439F0E4F5DBD290D2918020C21A
:101EBD00B7AB25AA24A923A822E47F407E9CFDFC74
:101ECD00120B0E8F1CE51C7003751C01851C127501
:101EDD009A10E47B04FAF9F8902E06120BFE120B01
:101EED000EAB25AA24A923A822120B0EEFF404F59C
:101EFD00D7E47B04FAF9F8902E06120BFE120B0EA6
:101F0D00AB25AA24A923A822120B0EC3E49FFFE43C
:101F1D009EFE74019DFDE49CFC7808120BA08FD6EB
:101F2D00438E1443AF019001C674FFF0A3742EF0DD
:051F3D00A374A1F022D5
:102C42009001EBEBF0A3EAF0A3E9F0A3ECF0A3ED23
:102C5200F09001F6E52AF0A3E52BF09001F3E527C9
:102C6200F0A3E528F0A3E529F0D20CE49001F2F0FC
:012C7200223F
:102CA4009001EAE070269001E3EBF0A3EAF0A3E9D7
:102CB400F0E4A3F0A3F0A3ECF0A3EDF0A37401F00F
:0F2CC400E51D6002D2B7439A027F02227F0322EE
:0B2EF1009001EAE07002FF227F012246
:101E74005501F80000000000000000000000000010
:081E8400000001000000000055
:0300230002179031
:10179000C0E0C0F0C083C082C0D075D000C000C01F
:1017A00001C002C003C004C005C006C00730993B99
:1017B000C2999001FDE0FEA3E0FFC39001FCE09F11
:1017C0009001FBE09E501F9001F8E0FBA3E0FAA31C
:1017D000E0F9A3E475F00112093985F082F583126E
:1017E0000883F59980059001FFE4F0209803021822
:1017F000A5C298300B09C20B900205E4F0A3F0904B
:101800000203E0FEA3E0FFA3E0FCA3E0FDC39FEC26
:101810009E5077900200E0FBA3E0FAA3E0F98D82EE
:101820008C83E5991208C290020BE0FEA3E0FFC38F
:10183000ED9FEC9E5046900203E0FCA3E0FDEF9D7F
:10184000EE9C5038900208E0FBA3E0FAA3E0F99088
:101850000205E0FEA3E0FFF5828E83120883FD906F
:101860000200E0FBA3E0FAA3E0F98F828E83120866
:10187000836D600890020574FFF0A3F0900206E00B
:1018800004F07006900205E004F0900203E0FEA36D
:10189000E0FFC3900206E09F900205E09E400690A4
:1018A00002077401F0D007D006D005D004D003D0D1
:1018B00002D001D000D0D0D082D083D0F0D0E0329E
:022EB000151FEC
:0A2EB200900207E0A81FF6FFE4F00D
:032EBC00051F22CD
:1026AD008F258E248D238C22759850438E40538E0A
:1026BD00FE53890FE47B04FAF9F8902E06120BFEF7
:1026CD00120B0EAB25AA24A923A822120B0EEFF490
:1026DD0004F58BE47B04FAF9F8902E06120BFE122A
:1026ED000B0EAB25AA24A923A822120B0EC3E49F1F
:1026FD00FFE49EFE74019DFDE49CFC7808120BA086
:10270D008F8DC2ABD28ED2AC9001C374FFF0A37487
:07271D002EF0A374B0F022BE
:102C7300900200EBF0A3EAF0A3E9F0A3ECF0A3EDDC
:102C8300F090020BE52AF0A3E52BF0900208E5276C
:102C9300F0A3E528F0A3E529F0D20BE4900207F0B6
:012CA300220E
:102D55009001FFE0701F9001F8EBF0A3EAF0A3E902
:102D6500F0E4A3F0A3F0A3ECF0A3EDF0A37401F05D
:082D7500D2997F02227F0322A4
:0B2EFC009001FFE07002FF227F012226
:03000000022306D2
:0C230600787FE4F6D8FD75817902234D44
:10077400E709F608DFFA8046E709F208DFFA803E67
:1007840088828C83E709F0A3DFFA8032E309F60854
:10079400DFFA8078E309F208DFFA807088828C83BC
:1007A400E309F0A3DFFA806489828A83E0A3F60870
:1007B400DFFA805889828A83E0A3F208DFFA804C4A
:1007C40080D280FA80C680D4806980F28033801021
:1007D40080A680EA809A80A880DA80E280CA80338A
:1007E40089828A83ECFAE493A3C8C582C8CCC58302
:1007F400CCF0A3C8C582C8CCC583CCDFE9DEE780D2
:100804000D89828A83E493A3F608DFF9ECFAA9F050
:10081400EDFB2289828A83ECFAE0A3C8C582C8CCA6
:10082400C583CCF0A3C8C582C8CCC583CCDFEADEBF
:10083400E880DB89828A83E493A3F208DFF980CC21
:1008440088F0EF60010E4E60C388F0ED2402B4041A
:100854000050B9F582EB2402B4040050AF232345C1
:0608640082239007C4731B
:10086A00BB010689828A83E0225002E722BBFE028C
:09087A00E32289828A83E49322BF
:10088300BB010CE58229F582E5833AF583E022502A
:1008930006E92582F8E622BBFE06E92582F8E22274
:0D08A300E58229F582E5833AF583E493228E
:1008B000BB010689828A83F0225002F722BBFE0127
:0208C000F32221
:1008C200F8BB010DE58229F582E5833AF583E8F06C
:1008D200225006E92582C8F622BBFE05E92582C818
:0208E200F22200
:1008E400BC000BBE0029EF8DF084FFADF022E4CCF8
:1008F400F875F008EF2FFFEE33FEEC33FCEE9DECC1
:10090400984005FCEE9DFE0FD5F0E9E4CEFD22ED06
:10091400F8F5F0EE8420D21CFEADF075F008EF2F50
:10092400FFED33FD4007985006D5F0F222C398FD41
:050934000FD5F0EA22DE
:10093900A3F8E0C5F025F0F0E58215827002158371
:06094900E0C838F0E822CE
:10094F00BB010A89828A83E0F5F0A3E02250068773
:10095F00F009E71922BBFE07E3F5F009E319228935
:0B096F00828A83E493F5F07401932268
:10097A00BB0110E58229F582E5833AF583E0F5F0BB
:10098A00A3E0225009E92582F886F008E622BBFE98
:10099A000AE92582F8E2F5F008E222E5832AF583DE
:0809AA00E993F5F0A3E99322A3
:1009B200BB010789828A83020CA3500B09C5F02769
:1009C200F7C5F01937F722BBFE0D09F8E325F0F35E
:1009D200C5F019E338F322F889828A8374019325DA
:0809E200F0C5F0F8E49338229F
:1009EA00BB010DC58229C582C5833AC583020CA302
:1009FA005011C58229F808E5F026F618F5F0E582C7
:100A0A0036F622BBFE11C58229F808E225F0F5F078
:100A1A00F218E23582F222F8E58229F582E5832A84
:0D0A2A00F58374019325F0F5F0E493382274
:100A3700BB010A89828A83F0E5F0A3F0225006F70A
:0F0A470009A7F01922BBFE06F3E5F009F3192207
:100A5600F8BB0111E58229F582E5833AF583E8F0D2
:100A6600E5F0A3F0225009E92582C8F608A6F0228F
:0D0A7600BBFE09E92582C8F2E5F008F22276
:100A8300E88FF0A4CC8BF0A42CFCE98EF0A42CFC12
:100A93008AF0EDA42CFCEA8EF0A4CDA8F08BF0A490
:100AA3002DCC3825F0FDE98FF0A42CCD35F0FCEBEF
:100AB3008EF0A4FEA9F0EB8FF0A4CFC5F02ECD39B4
:0F0AC300FEE43CFCEAA42DCE35F0FDE43CFC2221
:100AD20075F008758200EF2FFFEE33FECD33CDCCDB
:100AE20033CCC58233C5829BED9AEC99E58298405E
:100AF2000CF582EE9BFEED9AFDEC99FC0FD5F0D63B
:100B0200E4CEFBE4CDFAE4CCF9A88222B800C1B964
:100B12000059BA002DEC8BF084CFCECDFCE5F0CBA2
:100B2200F97818EF2FFFEE33FEED33FDEC33FCEBDB
:100B320033FB10D703994004EB99FB0FD8E5E4F996
:100B4200FA227818EF2FFFEE33FEED33FDEC33FC83
:100B5200C933C910D7059BE99A4007EC9BFCE99A77
:100B6200F90FD8E0E4C9FAE4CCFB2275F010EF2FBC
:100B7200FFEE33FEED33FDCC33CCC833C810D707BC
:100B82009BEC9AE899400AED9BFDEC9AFCE899F8F7
:0E0B92000FD5F0DAE4CDFBE4CCFAE4C8F9228A
:102AA600C2D5E830E70FB2D5E4C39BFBE49AFAE45B
:102AB60099F9E498F8EC30E717B2D5122ADC120B34
:102AC6000EE4C39BFBE49AFAE499F9E498F88003D0
:102AD600120B0E30D50DE4C39FFFE49EFEE49DFD70
:042AE600E49CFC224E
:100BA000E8600FECC313FCED13FDEE13FEEF13FF33
:030BB000D8F12257
:100BB300E86010ECA2E713FCED13FDEE13FEEF1358
:040BC300FFD8F02245
:100BC700E8600FEFC333FFEE33FEED33FDEC33FC8C
:030BD700D8F12230
:100BDA00BB010DE58229F582E5833AF583020C0E05
:100BEA005007E92582F8020CB9BBFE07E92582F80D
:040BFA00020CC52202
:100BFE00E493FC740193FD740293FE740393FF223D
:0C0C0E00ECF0A3EDF0A3EEF0A3EFF02259
:100C1A00BB010DE58229F582E5833AF583020CEAE8
:100C2A005007E92582F8020CD1BBFE07E92582F8B4
:040C3A00020D1B226A
:0C0C3E00A42582F582E5F03583F58322C1
:100C4A00D083D082F8E4937012740193700DA3A339
:100C5A0093F8740193F5828883E47374029368604D
:060C6A00EFA3A3A380DF4D
:060C70008A838982E4730F
:100C7600EC8EF0A4CCC5F0CCCDF8EFA4CEC5F02D0B
:100C8600FDE43CFCE8A42EC8C5F03DFDE43CFCEFC9
:0D0C9600A4FFE5F028FEE43DFDE43CFC2257
:10231200022EBFE493A3F8E493A34003F68001F2F4
:1023220008DFF48029E493A3F85407240CC8C333CC
:10233200C4540F4420C8834004F456800146F6DF9B
:10234200E4800B0102040810204080901DBBE47E53
:10235200019360BCA3FF543F30E509541FFEE49390
:10236200A360010ECF54C025E060A840B8E493A357
:10237200FAE493A3F8E493A3C8C582C8CAC583CA82
:10238200F0A3C8C582C8CAC583CADFE9DEE780BE3A
:011E8C000055
:100CA300C5F0F8A3E028F0C5F0F8E58215827002DC
:060CB3001583E038F02279
:0C0CB900ECF608EDF608EEF608EFF62267
:0C0CC500ECF208EDF208EEF208EFF2226B
:100CD100D083D082E493F608740193F608740293EA
:090CE100F608740393F674047321
:100CEA00A8828583F0D083D082120D01120D0112E1
:100CFA000D01120D01E473E493A3C583C5F0C58306
:100D0A00C8C582C8F0A3C583C5F0C583C8C582C853
:010D1A0022B6
:100D1B00D083D082E493F208740193F208740293A7
:090D2B00F208740393F2740473DE
:00000001FF
