:1023EA0000A8C0003F065B4F666D7D077F6F00083F
:0E23FA0040014148BF86DBCFE6EDFD87FFEFD7
:0E2487001219F51224E5121EFE12216F80FBC1
:0414E800023FA55AC0
:09221D00853137853238853339EB
:062226008B348A35893675
:10222C00E4FFAB37AA38A9398F82758300120155A8
:10223C00AB34AA35A9368F827583001201940FBF77
:02224C0018E098
:01224E00226D
:101F4F008B2B8A2C892D900018120155700B1222A1
:101F5F001DAB2BAA2CA92D8017AB2EAA2FA9309021
:101F6F000018120155701812221DAB2EAA2FA9307E
:101F7F009000187401120194900019E40201940565
:081F8F0047E5477002054622F8
:101DAE008B228A238924AB25AA26A92790001812F4
:101DBE000155602F8B378A388939AB22AA23A92483
:101DCE00122226AB22AA23A9249000187401120114
:101DDE0094900019E4120194AB25AA26A92790002D
:101DEE00188010AB22AA23A924900018E4120194A3
:081DFE00900019E41201942287
:102024009000C4E0603D1224B9EF70379000C5E021
:1020340060127525017526007527787B017A007971
:10204400AC121DAE9000C4E06019A3E070157B01D2
:102054007A0079AC7D18FC122339BF02069000C5C2
:042064007401F022F1
:102068009000DEE0603D1224AEEF70379000DFE0B4
:1020780060127525017526007527927B017A007913
:10208800C6121DAE9000DEE06019A3E070157B015A
:102098007A0079C67D18FC1222B1BF02069000DFD3
:0420A8007401F022AD
:10236100E54860090547E5477018054622753701BC
:102371007538007539307B017A0079001222267593
:03238100480122EE
:10238400E54960090547E547701805462275370198
:102394007538007539487B017A0079181222267540
:0323A400490122CA
:101FDE0090000A740812019490000CE4120194907F
:101FEE00000D740212019490000E7403120194906D
:101FFE00000F7401120194900010E41201949000ED
:10200E001174FF1201949000127407120194900043
:06201E001374010201949D
:101B7500E4F52FF5307531017532017533597D0264
:101B8500120B37EF7061752E01752F017530597580
:101B950031017532007533E07B017A0079F4121456
:101BA5001090015AE0B4010F9000ECE070097B0140
:101BB5007A0079E0121FDE752E01752F00753060F1
:101BC5007B017A0079E0120CFFEF701B85282E85CA
:101BD500292F852A30753101753200753360AB25A3
:081BE500AA26A927121F4F22B6
:101E0600E548601EE4F5487525017526007527AC82
:101E1600752801752900752A787B017A00790012E8
:101E26001B75E549601EE4F54975250175260075A3
:101E360027C6752801752900752A927B017A0079D3
:101E460018121B757B017A0079F41221AD12202439
:031E5600022068FF
:1023A700E4FF1220F08F227F011220F08F23E52215
:1023B700B401057F021224DFE523B40105E4FF120F
:0223C70024DF11
:0123C90022F1
:101CD90012000378417C007D007E007F0512011609
:101CE90090014EE0FEA3E0FF7C007D641201B6ABDB
:101CF9000790014EE0FEA3E0FF7C007D0A1201B6C9
:101D09007C007D0A1201B68D268B2590014DE0FBE2
:101D1900A3E0FEA3E0FF7C007D0A1201B68D27E552
:101D29004560047F0C80027F0A8F28E5474546609D
:101D3900047F0C80027F0A8F2990014AE0FD7F020F
:031D49000223CAA8
:1019F500E4F548F549900090F09000C4F09000AAF5
:101A0500F09000DEF0F546F5477B017A0079F47D2C
:101A150002121C641224257D07E4FF1224C47525D7
:101A25000A75260A75270A75280A75290A7B0AE4A4
:101A3500FD7F021223CAE4FF1224DF1224087BFF74
:101A45007A2379617F09121AF87BFF7A2379847FDB
:101A55000A121AF87BFF7A1E79067F01121AF87BA3
:101A6500FF7A1C79D97F03121AF87BFF7A2379A7AD
:051A75007F04021AF8D5
:101EFE007F607E097D007C00121BED7526017FB090
:101F0E007E047D007C001215BA75270075280075B9
:101F1E00293F752A00752B027B017A0079307D18D6
:101F2E007C0012228075270075280075293F752ABE
:101F3E0000752B027B017A0079487D187C00022205
:011F4E004F43
:05002600F9E4352CFA9D
:0E002B00900001120155FE12013CFDEDFF2276
:0B24A300ED120182900001EC02019498
:0A1D4C008B358A3689378C388D39C3
:101D560074FFF53AF53BE4FDFCC3ED9539EC953897
:101D66005041AB35AA36A9378D828C831201556254
:101D76003BE4FBE53B30E015E53AC313FEE53B13D8
:101D8600FFEE64A0F53AEF6401F53B800BE53AC33C
:101D960013F53AE53B13F53B0BBB08D70DBD000128
:071DA6000C80B6AE3AAF3B22
:011DAD002213
:060CFF008B2B8A2C892DCD
:100D050012013C640160037F0322AB2BAA2CA92DA1
:100D150090000A120155D3940840037F04229000E5
:100D25000B12015554FC60037F0522AB2EAA2FA997
:100D35003074A5120182AB2EAA2FA9309000017440
:100D45005A120194AB2BAA2CA92D12013CAB2EAA49
:100D55002FA930900002120194AB2BAA2CA92D903B
:100D65000001120155AB2EAA2FA9309000031201E4
:100D750094AB2BAA2CA92D900002120155AB2EAADB
:100D85002FA930900004120194AB2BAA2CA92D9009
:100D95000003120155AB2EAA2FA9309000051201B0
:100DA50094E92406F9E43AFAC003C002C001AB2B6A
:100DB500AA2CA92D90000412024CFDACF0D001D054
:100DC50002D0031224A3AB2EE5302408F9E4352F15
:100DD500FAC003C002C001AB2BAA2CA92D900006B6
:100DE50012024CFDACF0D001D002D0031224A3AB0B
:100DF5002BAA2CA92D900008120155AB2EAA2FA9BC
:100E05003090000A120194AB2BAA2CA92D90000951
:100E1500120155AB2EAA2FA93090000B120194ABED
:100E25002BAA2CA92D90000A120155AB2EAA2FA989
:100E35003090000C120194AB2BAA2CA92D90000B1D
:100E4500120155AB2EAA2FA93090000D120194E482
:100E5500F531AB2BAA2CA92D90000A120155FFE5FF
:100E650031C39F5016E9240CF9E43AFA7E00E925CE
:100E750031F9EE3AFA12013CFF80027F00E5312498
:100E85000EF582E433F583AB2EAA2FA930EF1201BC
:100E9500940531E531B408BAAB2EE5302402F9E406
:100EA500352FFA7D147C00121D4CAD07AC06AB2E18
:0E0EB500E5302416F9E4352FFA1224A37F004D
:010EC300220C
:080B37008D2E8B2B8A2C892DD9
:100B3F0012013CB4A50A900001120155645A6003DA
:100B4F007F0122E92402F9E43AFA7D147C00121D98
:100B5F004CC006C007AB2BE52D2416120026D0057E
:100B6F00D004EF6D7002EE6C60037F0222AB2BAAF4
:100B7F002CA92D900002120155640160037F0322FE
:100B8F0090000C120155D3940840037F042290006B
:100B9F000D12015554FC60037F05229000051201D0
:100BAF0055FF652E6007EFF460037F0622E53045A1
:100BBF002F6017E92406F9E43AFA12002BEF65309B
:100BCF007003EE652F60037F0722AB2BAA2CA92D94
:100BDF00900002120155AB31AA32A933120182AB38
:100BEF002BAA2CA92D900003120155AB31AA32A9C3
:100BFF0033900001120194AB2BAA2CA92D90000465
:100C0F00120155AB31AA32A933900002120194ABF5
:100C1F002BAA2CA92D900005120155AB31AA32A990
:100C2F0033900003120194AB2BE52D2406120026FE
:100C3F00AB31AA32A933900004EE8FF0120328AB28
:100C4F002BE52D2408120026AB31AA32A9339000D0
:100C5F0006EE8FF0120328AB2BAA2CA92D90000AB9
:100C6F00120155AB31AA32A933900008120194AB8F
:100C7F002BAA2CA92D90000B120155AB31AA32A92A
:100C8F0033900009120194AB2BAA2CA92D90000CC4
:100C9F00120155AB31AA32A93390000A120194AB5D
:100CAF002BAA2CA92D90000D120155AB31AA32A9F8
:100CBF003390000B120194E4F534AF347E00740EC0
:100CCF002FF582E433F583AB2BAA2CA92D120155F6
:100CDF00FDAB31E533240CF9E43532FAE92FF9EEA7
:0F0CEF003AFAED1201820534E534B408CD7F00E6
:010CFE0022D3
:1021E600E4F5F0120309900002E4F5F012032890DA
:1021F6000004E4F5F01203289000061204EC000037
:10220600000090000AE412019490000BE41201947D
:0722160090000CE4020194AA
:10244000120221FFAEF04E600CEFB50508EEB504A8
:08245000047F0180027F0022DD
:1022E000E4F5F0120309900002E4F5F012032890DF
:1022F0000004E4F5F0120328900006740112019422
:0E230000900007E4120194900008E40201949A
:061717008B558A5689572C
:10171D00900008120155700BD3E55D9440E55C9483
:10172D000040037F0022AB55AA56A957E475F0017E
:10173D00120284AB55AA56A957900007ED120194D9
:10174D00900004E55C855DF0120328E4FFFEC3EF15
:10175D00955DEE955C502AAB59AA5AA95B8F828E86
:10176D0083120155FDAB55E5572409F9E43556FAB9
:10177D00E92FF9EA3EFAED1201820FBF00010E804A
:10178D00CDAB59AA5AA95BAD5DAC5C121D4CAB55E6
:10179D00AA56A957900002EE8FF012032890000868
:0717AD0074011201947F0199
:0117B4002212
:061A7A008B4A8A4B894CE7
:101A8000ED75F004A4F55285F0519000081201554F
:101A9000601190000412024CFFC3E5529FE551957E
:081AA000F040037F0022E4FF87
:101AA800EF7C002552F554EC3551F553AB4AAA4B5F
:101AB800A94C90000412024CFDC3E5549DE55395D2
:101AC800F05015E92409F9E43AFAE92554F9EA3518
:101AD80053FA12013CFE80027E00AB4EAA4FA95079
:091AE8008F82758300EE12019457
:061AF1000FBF04B37F01EA
:011AF70022CC
:07000E00E9240CF9E43AFAC1
:0E001500900001120155FE12013CFDEDFF228C
:1017B5008B3C8A3D893E900001120155FFE4FCFDFA
:1017C500FE7808120499A804C005C006C0071201D6
:1017D5003CFFD003D002D001EB4FFFEAFEE9FDE864
:1017E500FCC004C005C006C007AB3CAA3DA93E909D
:1017F5000002120155FFE4FCFDFE7810120499D099
:1018050003D002D001D000EF4BFFEE4AFEED49FDBB
:10181500EC48FCC004C005C006C007AB3CAA3DA906
:101825003E900003120155FFE4FCFDFE78181204FA
:1018350099D003D002D001D000EF4BFFEE4AFEED68
:0618450049FDEC48FC2205
:090FF40085313B85323C85333D1B
:060FFD008B348A358936B1
:10100300AB3BAA3CA93D7401120182AB37AA38A9B4
:1010130039F5827583001201554480AB3BAA3CA984
:101023003D900001120194AB34AA35A936900058C3
:10103300120155AB3BAA3CA93D900002120194ABAF
:1010430037AA38A939900002120155AB3BAA3CA933
:101053003D900003120194AB37AA38A939900004DC
:1010630012024CFFAB3BAA3CA93D900004E5F08F74
:10107300F0120328AB37AA38A93990000612024CA4
:10108300FFAB3BAA3CA93D900006E5F08FF01203AD
:1010930028AB37AA38A939900008120155AB3BAAEF
:1010A3003CA93D900008120194AB37AA38A93990A6
:1010B3000009120155AB3BAA3CA93D90000912015E
:1010C3009490000A740112019490000B74011201B0
:1010D30094E53A6013AB3BE53D240BF9E4353CFA68
:1010E30012013C4402120182AB3BAA3CA93D900091
:1010F3000CE53A1201947F01AB3BE53D240CF9E486
:10110300353CFAEF7C0029F9EC3AFAE41201820F3C
:03111300BF08E52D
:0111160022B6
:101C64008B228A2389248D251221E6AB22E52424A4
:101C74000DF9E43523FA1222E0AB22AA23A9249019
:101C84000056E4120194900057E412019490005815
:101C9400E525120194900059E412019490005AE44D
:101CA400F5F012032890005CE4F5F012032890008C
:101CB4005EE4F5F0120328900060E4F5F0120328C6
:101CC400900062E4120194900063E4120194900085
:051CD40064E40201942C
:0605D9008B348A358936DF
:1005DF00AB37AA38A939900001120155FF640160A9
:1005EF0004EFB402037F002290000112015564034F
:1005FF0060030206C390000412024C45F0600A909B
:10060F00000A120155640860037F0322AB34AA3538
:10061F00A936900056120155FF6007640660037FEC
:10062F000122AB34AA35A9361221E6AB37AA38A975
:10063F003990000412024CFFAB34AA35A936E5F00D
:10064F008FF0120309AB37E539240CF9E43538FA8A
:10065F001217B5AB34AA35A9369000061204ACAB0D
:10066F0037AA38A939900010120155AB34AA35A911
:10067F003690000A120194AB37E5392411F9E435AD
:10068F0038FA120015AB34AA35A936900002EE8F56
:10069F00F0120328AB37AA38A9399000131201556D
:1006AF00AB34AA35A93690000B1201949000567402
:1006BF0001020942AB37AA38A93990000412024C43
:1006CF00FDACF0AB34AA35A936122440EF70037F8E
:1006DF000622AB37AA38A93990000112015512052D
:1006EF001C094804070F0507440607A1070910084E
:1006FF00092A09081F1008961108DF130000096264
:10070F00AB34AA35A936900056120155B40110AB7F
:10071F0037AA38A93990000A120155640860037F7F
:10072F00042290000C1201556005D3940C40037FF6
:10073F0003227F0022AB34AA35A93690005612014E
:10074F0055B40110AB37AA38A93990000A120155D8
:10075F00640260037F042212000E8E3A8F3BAB348B
:10076F00AA35A93690000212024C653B7004E53A97
:10077F0065F060037F0322900004E53A853BF01299
:10078F00032890000C740112019490005674020219
:10079F000942AB34AA35A9369000581201556401AD
:1007AF0060037F0522900056120155FEB403037FAC
:1007BF000122EEB4020890000C12015570037F0461
:1007CF0022AB37AA38A93990000A120155C39403F6
:1007DF00400AE9240D120011EF4E70037F0322AB84
:1007EF0037AA38A93990000C120155AB34AA35A994
:1007FF003690000A120194900056740312019490DF
:10080F00005AE475F0011202BC900057E40209424D
:10081F00AB34AA35A936900056120155B40310AB6C
:10082F0037AA38A93990000A120155640860037F6E
:10083F000422E9240E1200118E3A8F3BE53B453A14
:10084F00600BD3E53B9460E53A94EA40037F0322C3
:10085F00AB37AA38A939900008120155AB34AA3525
:10086F00A936900059120194E53B2409FFE4353A6B
:10087F00FE7C007D0A1201B6AB34AA35A936900072
:10088F005CEE8FF002095CAB34AA35A936900056A6
:10089F00120155B40310AB37AA38A93990000A12C8
:1008AF000155640660037F042212000EAB34AA3593
:1008BF00A93690005A12024C6F7003EE65F0600378
:1008CF007F032290005EE475F0011202BC7F0022CC
:1008DF00AB34AA35A936900056120155FF64036058
:1008EF0008EF640460037F0422900057740612011E
:1008FF0094900056740512019490005CE4F5F0801A
:10090F004CAB34AA35A936900056120155640360DA
:10091F00037F042290005674048018AB34AA35A9C3
:10092F0036900056120155640460037F0422900034
:10093F005674031201947F0022AB34AA35A9369066
:10094F000056740612019490005CE4F5F01203282F
:05095F007F00227F056E
:010964002270
:061410008B2B8A2C892DB4
:101416009000641201556061AB2EAA2FA93090008E
:101426000612024CFFAEF0AB2BAA2CA92D90006041
:1014360012024C6F7003E5F06E703EAB2EAA2FA918
:1014460030900001120155FFAB2BAA2CA92D90005C
:10145600621201556F7022852E37852F38853039F7
:10146600900063120155F53A120FF4AB2BAA2CA982
:101476002D900063120155FF22852E37852F388562
:101486003039AB2BAA2CA92D1205D9AE07AB2EAA43
:101496002FA93090000612024CFDAB2BAA2CA92DC9
:1014A600900060E5F08DF0120328AB2EAA2FA9302C
:1014B600900001120155AB2BAA2CA92D90006212A7
:1014C6000194900063EE120194900064740112017D
:1014D60094852E37852F388530398E3A120FF4AF22
:0114E60006FF
:0114E70022E2
:1021AD009000561201556403702E90005C12024C83
:1021BD0045F0602490005C74FFF5F01202BC9000B5
:1021CD005C12024C45F07010900057740F12019480
:0921DD00900056740512019422D1
:10132700E4F580900210E0FFB40800505F90133B93
:10133700F828287302135302135902135F02136527
:1013470002136B02137502137F021389C2A3C2A291
:101357008016C2A3C2A2801AC2A3C2A2801EC2A3C1
:10136700C2A28022C2A3D2A2C2A1C2A08020C2A3CD
:10137700D2A2C2A1D2A08016C2A3D2A2D2A1C2A0D9
:10138700800CC2A3D2A2D2A1D2A08002D2A3C3EF63
:10139700648094885029900210E0FF3395E0FE7432
:1013A700072FF58274023EF583E0FF3395E0FE7464
:1013B700EE2FF58274233EF583E493F580801E902B
:1013C7000210E0FFB408133395E0FE74072FF5828F
:1013D70074023EF583E0F5808003E4F58090020611
:1013E700E0FF900210E004FEF0D3EF6480F8EE64B3
:1013F70080984014E0D36480948850047408F022E5
:09140700900205E0900210F022B1
:10242500E4F5937594FF5395F043960F90019774D7
:0B243500FFF0A37413F0A37427F02243
:0924C400900205EFF0A3EDF022F7
:1023CA00900207EFF0A3EDF0A3EBF0A3E525F0A34D
:1023DA00E526F0A3E527F0A3E528F0A3E529F022F6
:0624DF0090020FEFF02255
:1014EC00011E0049021294940094940094940041BB
:0314FC0002111EBC
:02111700151FA2
:1011190020B206900212E014F020B306900215E006
:1011290014F0209706900218E014F0900211E014D0
:10113900F06003021237741EF0A81FE4F6A81FE638
:10114900FFC3648094834003021237EF3395E0FEB6
:1011590090021275F003EF120510EE75F003A42545
:1011690083F583E0C39480503990021375F003EF3F
:10117900120510EE75F003A42583F583E0D394805E
:10118900405AE6FF3395E0FE90021475F003EF1222
:101199000510EE75F003A42583F5837401F0F51E9F
:1011A900803AA81FE6FF3395E0FE90021375F0031D
:1011B900EF120510EE75F003A42583F583E0C394BF
:1011C90080501990021475F003EF120510EE75F0B6
:1011D90003A42583F5837402F0751E01A81FE6FF99
:1011E900FD3395E0FC90021275F003ED120510EC49
:1011F90075F003A42583F583E0FE90021375F003CF
:10120900ED120510EC75F003A42583F583EEF0EFDC
:101219003395E0FE90021275F003EF120510EE759A
:0E122900F003A42583F5837494F006021146A9
:03123700051F226E
:02249500151F11
:09249700A81FA61EE4F51EE6FFD5
:0324A000051F22F3
:1024080090019D74FFF0A37424F0A37495F09001DB
:0D2418009A74FFF0A37411F0A37417F02262
:1020F000EF600764016003BF0233EFFD3395E0FC3E
:1021000090021475F003ED120510EC75F003A42590
:1021100083F583E0FE90021475F003ED120510ECD8
:0F21200075F003A42583F583E4F0AF06227F0357
:01212F00228D
:1014FF0041016D0A4101960A4101DA0A040E00000A
:10150F0000000114004601D40000FFFF8FFFC10D42
:10151F00C105C108C101C10E60240172FF000AFF9D
:10152F00000AFF000AFF000AFF000AFF000AFF007F
:10153F000AFF000AFF000AFF000AFF000AFF000A65
:10154F0060360197FF000AFF000AFF003EFF000A06
:10155F00FF003EFF000AFF003EFF000AFF000AFFE8
:10156F00000AFF003EFF003EFF003EFF003EFF006F
:0A157F000AFF000AFF000AFF000A3D
:01000A0022D3
:03003E007F00221E
:101F9700438E805389F07BE07A287901780090237B
:101FA700EA1204D01220ACEFF404F58A7BE07A2819
:101FB700790178009023EA1204D01220ACC3E49F81
:101FC700FFE49EFE74019DFDE49CFC7808120485E5
:071FD7008F8CD28CD2A922ED
:03000B00021EAC26
:041EAC00C0E0C0D002
:101EB000D5080A75084C300D020514D20DA2037224
:101EC000045036150AE50A7030850C0AD207300A2C
:101ED00017E50D6007150D438F01801D538FFEC25E
:101EE000B5D51615C20A8011050BE50BD394064033
:091EF00008C203E5136002D206EA
:051EF900D0D0D0E03262
:101E5900300E47C20E9023EA1204D078101204857E
:101E69008E1A8F1B900170E0FEA3E0FFE4FCFD7B5E
:101E790019FAF9F8120355C006C007AE1AAF1BAB21
:101E890007AA06E4F9F8D007D0061220AC780312A5
:101E990004859001D2EEF0A3EFF09001D2E0FEA309
:021EA900E0FF58
:011EAB002214
:0924CD009001D4E0FEA3E0FF221F
:0924D6009001D4EEF0A3EFF02216
:102458009001D8EEF0A3EFF09001D6ECF0A3EDF0E8
:012468002251
:0324EB00C2B42256
:03003B0002166F3B
:10166F00C0E0C083C082C0D075D000C004C005C028
:03167F0006C0079B
:1016820030DF04C2DF807D30DA04C2DA807630D9FE
:101692003DC2D9AFFBEFFEADEB7C00E42DFFEC3E8B
:1016A20020000E90016EF0A3EFF075DB11D20080E6
:1016B20053FE90016EE0FCA3E0FDC3EF9DFFEE9CA4
:1016C200A3F0A3EFF075DB00C200D20E803630D853
:1016D20033C2D89001D4E07002A3E06022B2B49089
:1016E20001D6E0FEA3E0F5EAEEF5FAA3E0FEA3E000
:1016F200FF9001D7E02FF09001D6E03EF08005C2C6
:04170200B453DAFE04
:10170600D007D006D005D004D0D0D082D083D0E088
:0117160032A0
:0624E500121F97D2AF2286
:10196A003004047F0180027F00200A047E01800285
:10197A007E00EE5F6074E515C39509506830023643
:10198A00750D01E515131313541FAB17AA18A919DE
:10199A00F582758300120155FFE515540704FEEF21
:1019AA00A806088002C333D8FC30D7057516038011
:1019BA002F751601802AAB17AA18A91975F002E526
:1019CA0015A4F58285F083120155F50DE51575F01C
:1019DA0002A429F9EA35F0FA900001120155F51628
:0A19EA000515D20A22C204438F1033
:0119F40022D0
:10123A0090016DE014F0701F740AF0D205900196C7
:10124A00E014F07012740AF0D2089001DAE014F097
:10125A007005740AF0D201900197A3E0FAA3E0F9AD
:10126A0012054290019AA3E0FAA3E0F9120542900E
:10127A0001A6A3E0FAA3E0F91205429001B2A3E0A5
:10128A00FAA3E0F91205429001C1A3E0FAA3E0F93A
:10129A001205429001CAA3E0FAA3E0F912054290AE
:1012AA0001B8A3E0FAA3E0F9120542EF600C90013D
:1012BA008AA3E0FAA3E0F91205429001BBA3E0FA7F
:1012CA00A3E0F9120542EF600E90018DA3E0FAA3A4
:1012DA00E0F9120542D20BE512D394004016D5125A
:1012EA003030090C900190A3E0FAA3E0F91205420C
:1012FA00D20C801D9001BEA3E0FAA3E0F9120542C8
:10130A00EF600E900190A3E0FAA3E0F9120542D231
:0D131A000C900172A3E0FAA3E0F902054275
:10184B009001ACA3E0FAA3E0F91205429001AFA31B
:10185B00E0FAA3E0F91205429001A0A3E0FAA3E09D
:10186B00F9120542900175A3E0FAA3E0F9120542C3
:10187B0090019DA3E0FAA3E0F9120542EF600C90F2
:10188B00017EA3E0FAA3E0F91205429001A3A3E0C5
:10189B00FAA3E0F9120542EF600C900184A3E0FA81
:1018AB00A3E0F91205429001B5A3E0FAA3E0F91207
:1018BB000542EF600C900187A3E0FAA3E0F9120553
:1018CB004230060EC206900193A3E0FAA3E0F91290
:0318DB00054222A1
:10213000900178A3E0FAA3E0F91205429001A9A367
:10214000E0FAA3E0F9120542EF600C900181A3E0F0
:10215000FAA3E0F91205429001C4A3E0FAA3E0F962
:0F2160001205429001C7A3E0FAA3E0F90205427D
:10230E00AF11AE10AD0FAC0E9001CD1204E09001E6
:10231E00D1E514F0E4F511F510F50FF50EF5149066
:0B232E00017BA3E0FAA3E0F9020542E6
:10216F00300705C20712196A300D05C20D12123A57
:10217F00300505C20512184B300805C20812213070
:10218F00300105C20112230EE5112401F511E435CA
:0E219F0010F510E4350FF50FE4350EF50E22A5
:101AF8008B228A238924EFB40C005070901B0BF8BA
:101B0800282873021B2F021B34021B39021B3E02BA
:101B18001B43021B48021B4D021B52021B57021B90
:101B28005C021B61021B6690017280359001758012
:101B380030900178802B90017B802690017E802157
:101B4800900184801C9001818017900187801290F9
:101B5800018A800D90018D8008900190800390018A
:0D1B680093E522F0A3E523F0A3E524F0228D
:070003007B017A0179CD2297
:101589005501DB0000000000000000000000000021
:08159900000001000000000049
:030043000209654A
:10096500C0E0C0F0C083C082C0D075D000C000C058
:1009750001C002C003C004C005C006C007E59A3027
:10098500E142539AFD9001E0E0FEA3E0FFC3900130
:10099500DFE09F9001DEE09E501F9001DBE0FBA3AE
:1009A500E0FAA3E0F9A3E475F00112020B85F082E9
:1009B500F583120155F59B800B9001E2E4F0E51DEE
:1009C5006002C2B7E59A20E003020B1C539AFE3081
:1009D5000C0BC20C9001E8E4F0A3F0D209E51D640C
:1009E500026003020A769001E6E0FEA3E0FFA3E0C1
:1009F500FCA3E0FDC39FEC9E50719001E3E0FBA3D7
:100A0500E0FAA3E0F98D828C83E59B1201949001B5
:100A1500EEE0FEA3E0FFC3ED9FEC9E50409001E6A3
:100A2500E0FCA3E0FDEF9DEE9C50329001EBE0FB76
:100A3500A3E0FAA3E0F99001E8E0FEA3E0FFF58268
:100A45008E83120155FD9001E3E0FBA3E0FAA3E0DC
:100A5500F98F828E831201556D6002C2099001E9FA
:100A6500E004F070069001E8E004F0851C12020B2A
:100A75001C9001E6E0FEA3E0FFA3E0FCA3E0FDC3BC
:100A85009FEC9E50779001E3E0FBA3E0FAA3E0F929
:100A95008D828C83E59B1201949001EEE0FEA3E02C
:100AA500FFC3ED9FEC9E50469001E6E0FCA3E0FD00
:100AB500EF9DEE9C50389001EBE0FBA3E0FAA3E03C
:100AC500F99001E8E0FEA3E0FFF5828E831201555F
:100AD500FD9001E3E0FBA3E0FAA3E0F98F828E83AA
:100AE5001201556D60089001E874FFF0A3F09001C4
:100AF500E9E004F070069001E8E004F09001E6E01A
:100B0500FEA3E0FFC39001E9E09F9001E8E09E406D
:100B1500069001EA7401F0D007D006D005D004D0C4
:100B250003D002D001D000D0D0D082D083D0F0D075
:020B3500E032AC
:02246900151F3D
:0A246B009001EAE0A81FF6FFE4F07C
:03247500051F221E
:0100390022A4
:1015BA008F258E248D238C2285261DE51D700280A1
:1015CA000343BA01E51D70179001CA74FFF0A374B2
:1015DA0000F0A37439F0E4F5DBD290D2918020C2F6
:1015EA00B7AB25AA24A923A822E47F407E9CFDFC50
:1015FA001203E08F1CE51C7003751C01851C127513
:10160A009A10E47B04FAF9F89023EA1204D0120340
:10161A00E0AB25AA24A923A8221203E0EFF404F5DB
:10162A00D7E47B04FAF9F89023EA1204D01203E013
:10163A00AB25AA24A923A8221203E0C3E49FFFE44E
:10164A009EFE74019DFDE49CFC78081204728FD6FC
:10165A00438E1443AF019001BE74FFF0A37424F0CB
:05166A00A37469F022E9
:10224F009001E3EBF0A3EAF0A3E9F0A3ECF0A3ED28
:10225F00F09001EEE52AF0A3E52BF09001EBE527D6
:10226F00F0A3E528F0A3E529F0D20CE49001EAF001
:01227F00223C
:1022B1009001E2E070269001DBEBF0A3EAF0A3E9E4
:1022C100F0E4A3F0A3F0A3ECF0A3EDF0A37401F00C
:0F22D100E51D6002D2B7439A027F02227F0322EB
:0B24AE009001E2E07002FF227F01229B
:1015A1005501F000000000000000000000000000F4
:0815B100000001000000000031
:03002300020EC406
:100EC400C0E0C0F0C083C082C0D075D000C000C0F4
:100ED40001C002C003C004C005C006C00730993B6E
:100EE400C2999001F5E0FEA3E0FFC39001F4E09FF6
:100EF4009001F3E09E501F9001F0E0FBA3E0FAA301
:100F0400E0F9A3E475F00112020B85F082F5831277
:100F14000155F59980059001F7E4F0209803020F3C
:100F2400D9C298300B09C20B9001FDE4F0A3F090F4
:100F340001FBE0FEA3E0FFA3E0FCA3E0FDC39FEC04
:100F44009E50779001F8E0FBA3E0FAA3E0F98D82CC
:100F54008C83E599120194900203E0FEA3E0FFC3A1
:100F6400ED9FEC9E50469001FBE0FCA3E0FDEF9D5D
:100F7400EE9C5038900200E0FBA3E0FAA3E0F99065
:100F840001FDE0FEA3E0FFF5828E83120155FD9082
:100F940001F8E0FBA3E0FAA3E0F98F828E8312014B
:100FA400556D60089001FD74FFF0A3F09001FEE020
:100FB40004F070069001FDE004F09001FBE0FEA354
:100FC400E0FFC39001FEE09F9001FDE09E4006908B
:100FD40001FF7401F0D007D006D005D004D003D0AF
:100FE40002D001D000D0D0D082D083D0F0D0E03273
:02247800151F2E
:0A247A009001FFE0A81FF6FFE4F058
:03248400051F220F
:101BED008F258E248D238C22759850438E40538ED5
:101BFD00FE53890FE47B04FAF9F89023EA1204D01E
:101C0D001203E0AB25AA24A923A8221203E0EFF4C6
:101C1D0004F58BE47B04FAF9F89023EA1204D01250
:101C2D0003E0AB25AA24A923A8221203E0C3E49F55
:101C3D00FFE49EFE74019DFDE49CFC780812047285
:101C4D008F8DC2ABD28ED2AC9001BB74FFF0A3745A
:071C5D0024F0A37478F022CB
:102280009001F8EBF0A3EAF0A3E9F0A3ECF0A3EDE2
:10229000F0900203E52AF0A3E52BF0900200E52779
:1022A000F0A3E528F0A3E529F0D20BE49001FFF0BC
:0122B000220B
:102339009001F7E0701F9001F0EBF0A3EAF0A3E938
:10234900F0E4A3F0A3F0A3ECF0A3EDF0A37401F083
:08235900D2997F02227F0322CA
:0B24B9009001F7E07002FF227F01227B
:030000000218DE05
:0C18DE00787FE4F6D8FD75815D021925C5
:10004600E709F608DFFA8046E709F208DFFA803E9C
:1000560088828C83E709F0A3DFFA8032E309F60889
:10006600DFFA8078E309F208DFFA807088828C83F1
:10007600E309F0A3DFFA806489828A83E0A3F608A5
:10008600DFFA805889828A83E0A3F208DFFA804C7F
:1000960080D280FA80C680D4806980F28033801056
:1000A60080A680EA809A80A880DA80E280CA8033BF
:1000B60089828A83ECFAE493A3C8C582C8CCC58337
:1000C600CCF0A3C8C582C8CCC583CCDFE9DEE78007
:1000D6000D89828A83E493A3F608DFF9ECFAA9F086
:1000E600EDFB2289828A83ECFAE0A3C8C582C8CCDC
:1000F600C583CCF0A3C8C582C8CCC583CCDFEADEF5
:10010600E880DB89828A83E493A3F208DFF980CC56
:1001160088F0EF60010E4E60C388F0ED2402B4044F
:100126000050B9F582EB2402B4040050AF232345F6
:0601360082239000967385
:10013C00BB010689828A83E0225002E722BBFE02C1
:09014C00E32289828A83E49322F4
:10015500BB010CE58229F582E5833AF583E022505F
:1001650006E92582F8E622BBFE06E92582F8E222A9
:0D017500E58229F582E5833AF583E49322C3
:10018200BB010689828A83F0225002F722BBFE015C
:02019200F32256
:10019400F8BB010DE58229F582E5833AF583E8F0A1
:1001A400225006E92582C8F622BBFE05E92582C84D
:0201B400F22235
:1001B600BC000BBE0029EF8DF084FFADF022E4CC2D
:1001C600F875F008EF2FFFEE33FEEC33FCEE9DECF6
:1001D600984005FCEE9DFE0FD5F0E9E4CEFD22ED3C
:1001E600F8F5F0EE8420D21CFEADF075F008EF2F86
:1001F600FFED33FD4007985006D5F0F222C398FD77
:050206000FD5F0EA2213
:10020B00A3F8E0C5F025F0F0E582158270021583A6
:06021B00E0C838F0E82203
:10022100BB010A89828A83E0F5F0A3E022500687A8
:10023100F009E71922BBFE07E3F5F009E31922896A
:0B024100828A83E493F5F0740193229D
:10024C00BB0110E58229F582E5833AF583E0F5F0F0
:10025C00A3E0225009E92582F886F008E622BBFECD
:10026C000AE92582F8E2F5F008E222E5832AF58313
:08027C00E993F5F0A3E99322D8
:10028400BB010789828A83020548500B09C5F02700
:10029400F7C5F01937F722BBFE0D09F8E325F0F393
:1002A400C5F019E338F322F889828A83740193250F
:0802B400F0C5F0F8E4933822D4
:1002BC00BB010DC58229C582C5833AC58302054899
:1002CC005011C58229F808E5F026F618F5F0E582FC
:1002DC0036F622BBFE11C58229F808E225F0F5F0AE
:1002EC00F218E23582F222F8E58229F582E5832ABA
:0D02FC00F58374019325F0F5F0E4933822AA
:10030900BB010A89828A83F0E5F0A3F0225006F73F
:0F03190009A7F01922BBFE06F3E5F009F319223C
:10032800F8BB0111E58229F582E5833AF583E8F007
:10033800E5F0A3F0225009E92582C8F608A6F022C4
:0D034800BBFE09E92582C8F2E5F008F222AB
:10035500E88FF0A4CC8BF0A42CFCE98EF0A42CFC47
:100365008AF0EDA42CFCEA8EF0A4CDA8F08BF0A4C5
:100375002DCC3825F0FDE98FF0A42CCD35F0FCEB24
:100385008EF0A4FEA9F0EB8FF0A4CFC5F02ECD39E9
:0F039500FEE43CFCEAA42DCE35F0FDE43CFC2256
:1003A40075F008758200EF2FFFEE33FECD33CDCC10
:1003B40033CCC58233C5829BED9AEC99E582984093
:1003C4000CF582EE9BFEED9AFDEC99FC0FD5F0D670
:1003D400E4CEFBE4CDFAE4CCF9A88222B800C1B99A
:1003E4000059BA002DEC8BF084CFCECDFCE5F0CBD8
:1003F400F97818EF2FFFEE33FEED33FDEC33FCEB11
:1004040033FB10D703994004EB99FB0FD8E5E4F9CB
:10041400FA227818EF2FFFEE33FEED33FDEC33FCB8
:10042400C933C910D7059BE99A4007EC9BFCE99AAC
:10043400F90FD8E0E4C9FAE4CCFB2275F010EF2FF1
:10044400FFEE33FEED33FDCC33CCC833C810D707F1
:100454009BEC9AE899400AED9BFDEC9AFCE899F82C
:0E0464000FD5F0DAE4CDFBE4CCFAE4C8F922BF
:1020AC00C2D5E830E70FB2D5E4C39BFBE49AFAE45F
:1020BC0099F9E498F8EC30E717B2D51220E2120344
:1020CC00E0E4C39BFBE49AFAE499F9E498F8800302
:1020DC001203E030D50DE4C39FFFE49EFEE49DFDAA
:0420EC00E49CFC2252
:10047200E8600FECC313FCED13FDEE13FEEF13FF68
:03048200D8F1228C
:10048500E86010ECA2E713FCED13FDEE13FEEF138D
:04049500FFD8F0227A
:10049900E8600FEFC333FFEE33FEED33FDEC33FCC1
:0304A900D8F12265
:1004AC00BB010DE58229F582E5833AF5830204E070
:1004BC005007E92582F802055EBBFE07E92582F8A4
:0404CC0002056A2299
:1004D000E493FC740193FD740293FE740393FF2272
:0C04E000ECF0A3EDF0A3EEF0A3EFF0228F
:1004EC00BB010DE58229F582E5833AF58302058F80
:1004FC005007E92582F8020576BBFE07E92582F84C
:04050C000205C02202
:0C051000A42582F582E5F03583F58322F6
:10051C00D083D082F8E4937012740193700DA3A36E
:10052C0093F8740193F5828883E473740293686082
:06053C00EFA3A3A380DF82
:060542008A838982E47344
:1018EA00022487E493A3F8E493A34003F68001F269
:1018FA0008DFF48029E493A3F85407240CC8C333FF
:10190A00C4540F4420C8834004F456800146F6DFCD
:10191A00E4800B01020408102040809014E8E47E61
:10192A00019360BCA3FF543F30E509541FFEE493C2
:10193A00A360010ECF54C025E060A840B8E493A389
:10194A00FAE493A3F8E493A3C8C582C8CAC583CAB4
:10195A00F0A3C8C582C8CAC583CADFE9DEE780BE6C
:0115B9000031
:10054800C5F0F8A3E028F0C5F0F8E582158270023E
:060558001583E038F022DB
:0C055E00ECF608EDF608EEF608EFF622C9
:0C056A00ECF208EDF208EEF208EFF222CD
:10057600D083D082E493F608740193F6087402934C
:09058600F608740393F674047383
:10058F00A8828583F0D083D0821205A61205A61209
:10059F0005A61205A6E473E493A3C583C5F0C5832E
:1005AF00C8C582C8F0A3C583C5F0C583C8C582C8B6
:0105BF002219
:1005C000D083D082E493F208740193F2087402930A
:0905D000F208740393F274047341
:00000001FF
