:102E0D0000A8C0003F065B4F666D7D077F6F000811
:0E2E1D0040014148BF86DBCFE6EDFD87FFEFA9
:0E2EC6001224A7122F2F1228FD122B7080FB52
:041DBB00026DA55AB6
:092BE5008531378532388533391A
:062BEE008B348A358936A4
:102BF400E4FFAB37AA38A9398F82758300120883A2
:102C0400AB34AA35A9368F827583001208C20FBF70
:022C140018E0C6
:012C1600229B
:10294E008B2B8A2C892D900018120883700B122B5A
:10295E00E5AB2BAA2CA92D8017AB2EAA2FA9309050
:10296E0000181208837018122BE5AB2EAA2FA9306F
:10297E0090001874011208C2900019E40208C205F2
:08298E0077E57770020576225F
:102800008B228A238924AB25AA26A9279000181297
:102810000883602F8B378A388939AB22AA23A924F1
:10282000122BEEAB22AA23A92490001874011208DF
:10283000C2900019E41208C2AB25AA26A92790006D
:10284000188010AB22AA23A924900018E41208C211
:08285000900019E41208C222F5
:102A25009000C4E0603D122F03EF70379000C5E0C1
:102A350060127525017526007527787B017A007966
:102A4500AC1228009000C4E06019A3E070157B016A
:102A55007A0079AC7D18FC122D5CBF02069000C58A
:042A65007401F022E6
:102A69009000DEE0603D122EF8EF70379000DFE055
:102A790060127525017526007527927B017A007908
:102A8900C61228009000DEE06019A3E070157B01F2
:102A99007A0079C67D18FC122CABBF02069000DFC4
:042AA9007401F022A2
:102D8400E57860090577E5777018057622753701CF
:102D94007538007539307B017A007900122BEE7595
:032DA40078012291
:102DA700E57960090577E5777018057622753701AB
:102DB7007538007539487B017A007918122BEE7542
:032DC7007901226D
:102530008B2B8A2C892DAB2EAA2FA93090000A74E0
:10254000081208C290000CE41208C290000D740238
:102550001208C290000E74011208C2AB2BAA2CA95B
:102560002D900009120883B401047FFF80027F01CF
:10257000AB2EAA2FA93090000FEF1208C2AB2BAAE6
:102580002CA92D900009120883B401047F07800252
:102590007F00AB2EAA2FA930900010EF1208C29036
:1025A000001174031208C290001274021208C29043
:0625B0000013E40208C262
:1025B600E4F52FF5307531017532017533617D0211
:1025C600121125EF706A752E01752F017530617530
:1025D60031017532007533E07B017A0079F412140B
:1025E600B2900162E0B401189000ECE07012752E12
:1025F60001752F007530E07B017A01796112253073
:10260600752E01752F007530607B017A0079E01216
:1026160012EDEF701B85282E85292F852A307531FE
:1026260001753200753360AB25AA26A92712294EFB
:012636002281
:101F4200E578601EE4F5787525017526007527ACE5
:101F5200752801752900752A787B017A00790012AB
:101F620025B6E579601EE4F57975250175260075BB
:101F720027C6752801752900752A927B017A007996
:101F8200181225B67B017A0079F412241D90014AB9
:101F9200E06403704990014DE06043900158E070A5
:101FA2003D0570E5707002056FC3940AE56F9400F9
:101FB2004039754508AE6FAF707C007D0A120C7611
:101FC2008F498E488D478C46E4F54AF54BF54CF522
:101FD2004D7B017A0079F47D05121CDC800D9001A5
:101FE2004AE064036005E4F56FF570122A25022ABF
:011FF2006985
:102DCA00E4FF122AF18F227F01122AF18F23E522D2
:102DDA00B401057F02122F29E523B40105E4FF128D
:022DEA002F298F
:012DEC0022C4
:10272B0012000378717C007D007E007F0512084447
:10273B0090014EE0FEA3E0FF7C007D641208E4AB49
:10274B000790014EE0FEA3E0FF7C007D0A1208E437
:10275B007C007D0A1208E48D268B2590014DE0FB51
:10276B00A3E0FEA3E0FF7C007D0A1208E48D27E5C1
:10277B007560047F0C80027F0A8F28E577457660B1
:10278B00047F0C80027F0A8F2990014AE0FD7F02B3
:03279B00022DED1F
:1024A700E4F578F579900090F09000C4F09000AAD8
:1024B700F09000DEF0F576F577F56FF5707B017A31
:1024C7000079F47D0212209B122E647D07E4FF122F
:1024D7002F0E75250A75260A75270A75280A752984
:1024E7000A7B0AE4FD7F02122DEDE4FF122F291269
:1024F7002E2B7BFF7A2D79847F091226377BFF7A73
:102507002D79A77F0A1226377BFF7A1F79427F0131
:102517001226377BFF7A27792B7F031226377BFF1B
:092527007A2D79CA7F04022637DF
:1028FD007F607E097D007C001226B47526017FB0B5
:10290D007E047D007C00121E8D75270075280075D4
:10291D00296D752A00752B027B017A0079307D189F
:10292D007C00122C7A75270075280075296D752A83
:10293D0000752B027B017A0079487D187C00022CF2
:01294D004940
:05002600F9E4352CFA9D
:0E002B00900001120883FE12086AFDEDFF220C
:0B2EE200ED1208B0900001EC0208C2E5
:0A279E008B668A6789688C698D6A72
:1027A80074FFF56BF56CE4FDFCC3ED956AEC956977
:1027B8005041AB66AA67A9688D828C831208836230
:1027C8006CE4FBE56C30E015E56BC313FEE56C13B8
:1027D800FFEE64A0F56BEF6401F56C800BE56BC34D
:1027E80013F56BE56C13F56C0BBB08D70DBD000139
:0727F8000C80B6AE6BAF6C64
:0127FF0022B7
:0612ED008B2B8A2C892DD9
:1012F30012086A640160037F0322AB2BAA2CA92D79
:1013030090000A120883D3940840037F04229000BC
:101313000B12088354FC60037F0522AB2EAA2FA96E
:101323003074A51208B0AB2EAA2FA9309000017417
:101333005A1208C2AB2BAA2CA92D12086AAB2EAAEB
:101343002FA9309000021208C2AB2BAA2CA92D9012
:101353000001120883AB2EAA2FA9309000031208B4
:10136300C2AB2BAA2CA92D900002120883AB2EAA84
:101373002FA9309000041208C2AB2BAA2CA92D90E0
:101383000003120883AB2EAA2FA930900005120880
:10139300C2E92406F9E43AFAC003C002C001AB2B48
:1013A300AA2CA92D90000412097AFDACF0D001D02B
:1013B30002D003122EE2AB2EE5302408F9E4352FD8
:1013C300FAC003C002C001AB2BAA2CA92D900006C2
:1013D30012097AFDACF0D001D002D003122EE2AB99
:1013E3002BAA2CA92D900008120883AB2EAA2FA993
:1013F3003090000A1208C2AB2BAA2CA92D90000929
:10140300120883AB2EAA2FA93090000B1208C2AB8F
:101413002BAA2CA92D90000A120883AB2EAA2FA960
:101423003090000C1208C2AB2BAA2CA92D90000BF4
:10143300120883AB2EAA2FA93090000D1208C2E424
:10144300F531AB2BAA2CA92D90000A120883FFE5D6
:1014530031C39F5016E9240CF9E43AFA7E00E925DA
:1014630031F9EE3AFA12086AFF80027F00E531246F
:101473000EF582E433F583AB2EAA2FA930EF1208C1
:10148300C20531E531B408BAAB2EE5302402F9E4E4
:10149300352FFA7D147C0012279EAD07AC06AB2EC8
:0E14A300E5302416F9E4352FFA122EE27F0010
:0114B1002218
:081125008D2E8B2B8A2C892DE5
:10112D0012086AB4A50A900001120883645A60037C
:10113D007F0122E92402F9E43AFA7D147C0012279A
:10114D009EC006C007AB2BE52D2416120026D00538
:10115D00D004EF6D7002EE6C60037F0222AB2BAA00
:10116D002CA92D900002120883640160037F0322D5
:10117D0090000C120883D3940840037F0422900042
:10118D000D12088354FC60037F05229000051208A0
:10119D0083FF652E6007EFF460037F0622E530457F
:1011AD002F6017E92406F9E43AFA12002BEF6530A7
:1011BD007003EE652F60037F0722AB2BAA2CA92DA0
:1011CD00900002120883AB31AA32A9331208B0ABDA
:1011DD002BAA2CA92D900003120883AB31AA32A99A
:1011ED00339000011208C2AB2BAA2CA92D9000043C
:1011FD00120883AB31AA32A9339000021208C2AB98
:10120D002BAA2CA92D900005120883AB31AA32A967
:10121D00339000031208C2AB2BE52D2406120026D5
:10122D00AB31AA32A933900004EE8FF0120A56ABFF
:10123D002BE52D2408120026AB31AA32A9339000DC
:10124D0006EE8FF0120A56AB2BAA2CA92D90000A90
:10125D00120883AB31AA32A9339000081208C2AB31
:10126D002BAA2CA92D90000B120883AB31AA32A901
:10127D00339000091208C2AB2BAA2CA92D90000C9B
:10128D00120883AB31AA32A93390000A1208C2ABFF
:10129D002BAA2CA92D90000D120883AB31AA32A9CF
:1012AD003390000B1208C2E4F534AF347E00740E97
:1012BD002FF582E433F583AB2BAA2CA92D120883CD
:1012CD00FDAB31E533240CF9E43532FAE92FF9EEB3
:0F12DD003AFAED1208B00534E534B408CD7F00BD
:0112EC0022DF
:102BAE00E4F5F0120A37900002E4F5F0120A56909E
:102BBE000004E4F5F0120A56900006120C1A0000FA
:102BCE00000090000AE41208C290000BE41208C242
:072BDE0090000CE40208C2A4
:102E7F0012094FFFAEF04E600CEFB50508EEB5042A
:082E8F00047F0180027F002294
:102CDA00E4F5F0120A37900002E4F5F0120A569071
:102CEA000004E4F5F0120A5690000674011208C2B4
:0E2CFA00900007E41208C2900008E40208C22D
:06213F008B5D8A5E895FE2
:10214500900008120883700BD3E5659440E564940C
:102155000040037F0022AB5DAA5EA95FE475F00134
:102165001209B2AB5DAA5EA95F900007ED1208C225
:10217500900004E5648565F0120A56E4FFFEC3EF9E
:102185009565EE9564502AAB61AA62A9638F828E2C
:1021950083120883FDAB5DE55F2409F9E4355EFA3A
:1021A500E92FF9EA3EFAED1208B00FBF00010E80E3
:1021B500CDAB61AA62A963AD65AC6412279EAB5D28
:1021C500AA5EA95F900002EE8FF0120A56900008F1
:0721D50074011208C27F0132
:0121DC0022E0
:06164A008B438A44894530
:10165000ED75F004A4F54B85F04A90000412097A68
:10166000AEF02406F54DE43EF54C900008120883D8
:10167000600BC3E54B954DE54A954C40037F002236
:02168000E4FD87
:10168200ED7E00254BF54FEE354AF54EC3E54F95FD
:101692004DE54E954C400FAB47AA48A9498D82753E
:1016A2008300E4021781E54F454E701AAB43AA440A
:1016B200A945900006120883AB47AA48A9498D8222
:1016C200758300021781E54F6401454E701AAB43E2
:1016D200AA44A945900007120883AB47AA48A94922
:1016E2008D82758300021781E54F6402454E7019A1
:1016F200AB43AA44A94590000412097AAB47AA4811
:10170200A9498D827583008076E54F6403454E704A
:101712001BAB43AA44A94590000412097AE5F0AB39
:1017220047AA48A9498D827583008053E54F640416
:10173200454E7019AB43AA44A94590000212097A9A
:10174200AB47AA48A9498D827583008032E54F6470
:1017520005454EAB43AA44A945700A9000021209FE
:101762007AE5F0800FE54F2403FFE4354E8F82F5D2
:1017720083120883AB47AA48A9498D827583001258
:0217820008C29B
:0B1784000DED640460030216827F017B
:01178F002237
:102D3300900008120883600B12094F6D7003E5F0D1
:102D43006C60037F0022900008E41208C290000424
:092D5300E4F5F0120A567F01229A
:102E4800900008120883600F90000412097A240683
:0C2E5800FFE435F0FE80047E007F0022C5
:07000E00E9240CF9E43AFAC1
:0E001500900001120883FE12086AFDEDFF2222
:1021DD008B418A428943900001120883FFE4FCFD84
:1021ED00FE7808120BC7A804C005C006C007120868
:1021FD006AFFD003D002D001EB4FFFEAFEE9FDE804
:10220D00FCC004C005C006C007AB41AA42A943905B
:10221D000002120883FFE4FCFDFE7810120BC7D0FC
:10222D0003D002D001D000EF4BFFEE4AFEED49FD89
:10223D00EC48FCC004C005C006C007AB41AA42A9CA
:10224D0043900003120883FFE4FCFDFE7818120B87
:10225D00C7D003D002D001D000EF4BFFEE4AFEED08
:06226D0049FDEC48FC22D3
:0B2EED00ED1208B0900001EC0208C2DA
:102996008F608E5F8D5E8C5DEF1208B0AF60AE5FAC
:1029A600AD5EAC5D7808120BA0900001EF1208C274
:1029B600AF60AE5FAD5EAC5D7810120BA09000020A
:1029C600EF1208C2AF60AE5FAD5EAC5D7818120B59
:0829D600A0900003EF0208C20B
:042C1700AB07AA0657
:102C1B00ED6203E4FDEB30E011EAC313FEEB13FFAF
:102C2B00EE64A0FEEF6401FF8007EAC313FEEB1313
:0D2C3B00FFAA06AB070DBD08DCAE02AF031B
:012C48002269
:0918C00085313C85323D85333E43
:0618C9008B358A368937D9
:1018CF00AB3CAA3DA93E74011208B0AB38AA39A9A6
:1018DF003AF5827583001208834480AB3CAA3DA978
:1018EF003E9000011208C2AB35AA36A937900058B6
:1018FF00120883AB3CAA3DA93E9000021208C2AB6E
:10190F0038AA39A93A900002120883AB3CAA3DA924
:10191F003E9000031208C2AB38AA39A93A900004CE
:10192F0012097AFFAB3CAA3DA93E900004E5F08F67
:10193F00F0120A56AB38AA39A93A90000612097A62
:10194F00FFAB3CAA3DA93E900006E5F08FF0120ACE
:10195F0056AB38AA39A93A900008120883AB3CAAB3
:10196F003DA93E9000081208C2AB38AA39A93A9097
:10197F000009120883AB3CAA3DA93E90000912084A
:10198F00C290000A74011208C290000B7401120871
:10199F00C2E53B6013AB3CE53E240BF9E4353DFA61
:1019AF0012086A44021208B0AB3CAA3DA93E90004F
:1019BF000CE53B1208C27F01AB3CE53E240CF9E479
:1019CF00353DFAEF7C0029F9EC3AFAE41208B00F32
:0319DF00BF08E559
:0119E20022E2
:10209B008B228A2389248D25122BAEAB22E5242497
:1020AB000DF9E43523FA122CDAAB22AA23A92490DA
:1020BB000056E41208C2900057E41208C290005870
:1020CB00E5251208C2900059E41208C290005AE4A8
:1020DB00F5F0120A5690005CE4F5F0120A569000E7
:1020EB005EE4F5F0120A5690006074FFF5F0120AE8
:1020FB0056900062E41208C2900063E41208C2908A
:10210B000064E41208C2900065E4F5F0120A5690E0
:10211B000067E4F5F0120A56900069E41208C290C9
:10212B00006AE41208C290006BE41208C290006CC3
:04213B00E40208C2F0
:060046008B358A36893774
:10004C00AB38AA39A93A900001120883FF64016009
:10005C0004EFB402037F00229000011208836403B2
:10006C00600302015490000412097A45F0600A9072
:10007C00000A120883640860037F0322AB35AA369A
:10008C00A937900056120883FF60136406600FEFC7
:10009C00B4020890001512088360037F0122AB356F
:1000AC00AA36A937122BAEAB38AA39A93A9000045C
:1000BC0012097AFFAB35AA36A937E5F08FF0120A90
:1000CC0037AB38E53A240CF9E43539FA1221DDABBB
:1000DC0035AA36A937900006120BDAAB38AA39A923
:1000EC003A900010120883AB35AA36A93790000A53
:1000FC001208C2AB38E53A2411F9E43539FA12008A
:10010C0015AB35AA36A937900002EE8FF0120A56BD
:10011C00AB38AA39A93A900013120883AB35AA362A
:10012C00A93790000B1208C290006074FFF5F01212
:10013C000A56900062E41208C2900063E41208C2EE
:10014C009000567401020751AB38AA39A93A9000B5
:10015C000412097AFDACF0AB35AA36A937122E7F02
:10016C00EF70037F0622AB38AA39A93A900001122E
:10017C000883120C4A07570401AF05028C0602F7DC
:10018C0007071F0807390904281004831104CC122F
:10019C0006EE13060B14054715058A1606D8200023
:1001AC00000771AB35AA36A937900056120883B4F4
:1001BC000110AB38AA39A93A90000A1208836408D6
:1001CC0060037F042290000C1208836005D3940C0A
:1001DC0040037F0322AB35AA36A937900062120880
:1001EC0083FFAB38AA39A93A90000C120883D39F2D
:0501FC0050037F032207
:10020100E4F53DAB35AA36A93790006012097AFFB3
:10021100AEF0AB38E53A240CF9E43539FA7C00E963
:10022100253DF9EC3AFA12086AFD122C17AB35AAF2
:1002310036A937900060EE8FF0120A56053DE53D74
:05024100C3940840BE5B
:10024600AB38AA39A93A90000C120883AB35AA3606
:10025600A9379000621208C2AB38AA39A93A9000B1
:100266000C120883B4051C90000D120883B4010417
:100276007F0180027F00AB35AA36A937900063EF75
:100286001208C27F0022AB35AA36A9379000561253
:100296000883B40110AB38AA39A93A90000A1208AB
:1002A60083640260037F042212000E8E3B8F3CABF8
:1002B60035AA36A93790000212097AB53C15E53BF6
:1002C600B5F01090006012097A653C7004E53B6554
:1002D600F060037F0322900004E53B853CF0120AA0
:1002E6005690000C74011208C29000567402020760
:1002F60051AB35AA36A937900058120883640160BD
:10030600037F0522AB38AA39A93A90000812088360
:10031600D3940F40037F0322AB35AA36A93790004A
:1003260056120883FEB403037F0122EEB40208903E
:10033600000C12088370037F0422AB38AA39A93A4D
:1003460090000A120883C39403400AE9240D1200A0
:1003560011EF4E70037F0322AB38AA39A93A9000F9
:1003660008120883B40511AB35AA36A93790006385
:1003760012088370037F0422AB38AA39A93A900089
:100386000C120883AB35AA36A93790000A1208C2A8
:1003960090005674031208C290005AE475F00112D8
:1003A60009EAAB38AA39A93A900008120883AB3596
:1003B600AA36A9379000591208C2AB38AA39A93A09
:1003C600900008120883FFC3940B400AEFD3940DE4
:1003D60050047F0180027F00AB35AA36A937900012
:1003E60064EF1208C2900064120883601BAB38AA3F
:1003F60039A93A900008120883B40D067E037FE8F7
:10040600800A7E0B7FB880047E007F00AB35AA365B
:10041600A93790005CEE8FF0120A56900057E4025E
:100426000751AB35AA36A937900056120883B40394
:1004360010AB38AA39A93A90000A120883640860FA
:10044600037F0422E9240E1200118E3B8F3CE53C0B
:10045600453B600BD3E53C9460E53B94EA40037F63
:100466000322AB38AA39A93A900008120883AB35A3
:10047600AA36A9379000591208C20205ECAB35AA74
:1004860036A937900056120883B40310AB38AA3940
:10049600A93A90000A120883640660037F042212B8
:1004A600000EAB35AA36A93790005A12097A6F703A
:1004B60003EE65F060037F032290005EE475F001B1
:1004C6001209EA7F0022AB38AA39A93A90000A122B
:1004D6000883640360037F0322AB35AA36A93790ED
:1004E60000151208836022AB38E53A240CF9E4358E
:1004F60039FA120015AB35AA36A93790000D120944
:0C0506007A6F7003EE65F060037F0B223B
:10051200E9240DF9E43AFAC003C002C001AB38AADB
:1005220039A93A90000E120883FD754700754800FC
:1005320075493DD001D002D00312164AEF70037FF5
:020542000B228A
:100544007F0022AB38AA39A93A90000A12088364C2
:100554000260037F032212000EAC06AD07AB35E543
:1005640037240DF9E43536FA122D33EF70037F0B7F
:1005740022AB35AA36A93790005674021208C290ED
:100584000059E4020751AB35AA36A9379000561238
:100594000883B40310AB38AA39A93A90000A1208A8
:1005A40083640460037F042212000EAB35AA36A9CB
:1005B4003790005A12097A6F7003EE65F060037F7A
:1005C4000322AB38E53A240EF9E43539FA12001562
:1005D4008E3B8F3CE53C453B600BD3E53C9460E5AA
:1005E4003B94EA40037F0322E53C2409FFE4353BC6
:1005F400FE7C007D0A1208E4AB35AA36A9379000C8
:100604005CEE8FF002076BAB35AA36A93790005623
:100614001208836403702E9000641208836026AB72
:1006240038AA39A93A90000A120883B403171200B1
:100634000EAB35AA36A93790005A12097A6F7003A7
:10064400EE65F060037F0422AB38AA39A93A900022
:100654000E120883B4011EAB35AA36A937E4F5455A
:10066400F549F548F547F546F54A754B01F54CF55E
:100674004D7D028059AB38AA39A93A90000E120870
:1006840083B4021FAB35AA36A937754505E4F5498D
:10069400F548F547F546F54AF54BF54C754D017DA2
:1006A40003802BAB38AA39A93A90000E120883B400
:1006B400031FAB35AA36A93775450EE4F549F5484D
:1006C400F547F546F54AF54BF54CF54D7D05021C0D
:1006D400DC7F0322AB38AA39A93A90000A120883B6
:1006E400640560037F03227F0022AB35AA36A93755
:1006F400900056120883FF64036008EF64046003EB
:100704007F042290005774061208C29000567405A4
:100714001208C290005CE4F5F0804CAB35AA36A90F
:1007240037900056120883640360037F042290000C
:100734005674048018AB35AA36A9379000561208AF
:1007440083640460037F042290005674031208C279
:100754007F0022AB35AA36A93790005674061208DA
:0F076400C290005CE4F5F0120A567F00227F0578
:010773002263
:060D34008B358A36893779
:100D3A00E53B6003020F52AB38AA39A93A90000189
:100D4A0012088364026003020E05AB3CAA3DA93E69
:100D5A0090000A74081208C2AB35AA36A937900067
:100D6A0056120883AB3CAA3DA93E90000D1208C258
:100D7A00E9240EF9E43AFAC003C002C001AB35AA6D
:100D8A0036A93790005A12097AFDACF0D001D00288
:100D9A00D003122EEDAB35AA36A9379000591208A6
:100DAA0083AB3CAA3DA93E9000101208C2AB35AAFB
:100DBA0036A937900057120883AB3CAA3DA93E904A
:100DCA0000111208C2E92412F9E43AFAC003C00277
:100DDA00C001AB35AA36A937900015120883600EF8
:100DEA0090000D12097AFFAEF0AC06FD80047C007B
:100DFA007D00D001D002D003022EEDAB38AA39A96A
:100E0A003A90000112088364126003020EB9AB3CE7
:100E1A00AA3DA93E90000A74081208C2E9240DF9F5
:100E2A00E43AFAC003C002C001AB35AA36A937902A
:100E3A00000D12097AFDACF0D001D002D003122EB7
:100E4A00EDAB38AA39A93A90000E120883AB3CAA36
:100E5A003DA93E90000F1208C2AB35E537240DF9C3
:100E6A00E43536FAC003C002C001AB38AA39A93A40
:100E7A0090000E120883FD75470075480075493FBA
:100E8A00D001D002D00312164AAB3CAA3DA93E902B
:100E9A000010E53F1208C2900011E5401208C29006
:100EAA000012E5411208C2900013E542020F4FAB4F
:100EBA0038AA39A93A900001120883642060030213
:100ECA000F52AB3CAA3DA93E90000A74061208C212
:100EDA00AB38AA39A93A90000C120883AB3CAA3D58
:100EEA00A93E90000D1208C2AB38AA39A93A90005F
:100EFA000D120883AB3CAA3DA93E90000E1208C20F
:100F0A00AB38AA39A93A90000E120883AB3CAA3D25
:100F1A00A93E90000F1208C2AB38AA39A93A90002C
:100F2A000F120883AB3CAA3DA93E9000101208C2DA
:100F3A00AB38AA39A93A900010120883AB3CAA3DF3
:080F4A00A93E9000111208C23B
:010F5200227C
:0614B2008B2B8A2C892D12
:1014B80090006C120883700302158CAB2EAA2FA91A
:1014C8003090000612097AFFAEF0AB2BAA2CA92D9A
:1014D80090006512097A6F7003E5F06E60030215DB
:1014E8008CAB2EAA2FA93090000412097AFFAEF017
:1014F800AB2BAA2CA92D90006712097A6F7003E50F
:10150800F06E600302158CAB2EAA2FA93090000252
:10151800120883FFAB2BAA2CA92D9000691208830F
:101528006F7061AB2EAA2FA930900001120883FFBB
:10153800AB2BAA2CA92D90006A1208836F704585E1
:101548002E38852F3985303A90006B120883F53B89
:101558001218C0852E38852F3985303AAB2BAA2C26
:10156800A92D90006B120883F53B85313C85323DEF
:1015780085333E120D34AB2BAA2CA92D90006B128B
:101588000883FF22852E38852F3985303AAB2BAA60
:101598002CA92D1200468F34AB2EAA2FA93090000B
:1015A8000612097AFFAB2BAA2CA92D900065E5F04D
:1015B8008FF0120A56AB2EAA2FA9309000041209F8
:1015C8007AFFAB2BAA2CA92D900067E5F08FF012BB
:1015D8000A56AB2EAA2FA930900002120883AB2B13
:1015E800AA2CA92D9000691208C2AB2EAA2FA930E7
:1015F800900001120883AB2BAA2CA92D90006A1227
:1016080008C290006BE5341208C290006C74011295
:1016180008C2852E38852F3985303A85343B121813
:10162800C0852E38852F3985303A85343B85313C45
:1016380085323D85333EAB2BAA2CA92D120D34AF34
:01164800346D
:01164900227E
:081CDC00AF058B418A428943E8
:101CE400900056120883FE64036008EE64056003E6
:101CF4007F0422AB41AA42A94390001512088360D5
:101D0400037F0722AB41AA42A94390005A12097AE1
:101D1400FDACF07B007A00794E122EEDAB41AA4265
:101D2400A943900059120883F5508F51854552906C
:101D3400006412088360047F0380027F018F53755F
:101D440054017B007A007955AF49AE48AD47AC46A3
:101D54001229967A007959AD4BAC4A122EED7A00CD
:101D6400795BAD4DAC4C122EEDAB41E543240DF93E
:101D7400E43542FA75610075620075634E7564005E
:101D840075650F7D0112213FEF70037F0722AB4180
:101D9400AA42A943900057E5451208C2900064E4A2
:101DA4001208C290005CE4F5F0120A5690005674D2
:061DB400061208C27F00C8
:011DBA002206
:10241D008B228A238924900056120883FF6403704F
:10242D003490005C12097A45F0602A90005C74FFCC
:10243D00F5F01209EA90005C12097A45F0705AAB7A
:10244D0022AA23A924900057740F1208C290005697
:10245D0074050208C2EF6405703FAB22AA23A924BC
:08246D00900015120883703184
:10247500900057120883FFB406047E0780027E038E
:102485008E258F45E4F549F548F547F546F54AF5B6
:102495004BF54C754D01AB22AA23A924AD25121C81
:0124A500DC5A
:0124A6002213
:101BF300E4F580900218E0FFB40800505F901C07E2
:101C0300F8282873021C1F021C25021C2B021C31FE
:101C1300021C37021C41021C4B021C55C2A3C2A268
:101C23008016C2A3C2A2801AC2A3C2A2801EC2A3EC
:101C3300C2A28022C2A3D2A2C2A1C2A08020C2A3F8
:101C4300D2A2C2A1D2A08016C2A3D2A2D2A1C2A004
:101C5300800CC2A3D2A2D2A1D2A08002D2A3C3EF8E
:101C6300648094885029900218E0FF3395E0FE7455
:101C73000F2FF58274023EF583E0FF3395E0FE7487
:101C8300112FF582742E3EF583E493F580801E9028
:101C93000218E0FFB408133395E0FE740F2FF582AA
:101CA30074023EF583E0F5808003E4F58090020E34
:101CB300E0FF900218E004FEF0D3EF6480F8EE64D6
:101CC30080984014E0D36480948850047408F02210
:091CD30090020DE0900218F022CD
:102E6400E4F5937594FF5395F043960F90019F7486
:0B2E7400FFF0A3741BF0A374F3F02226
:092F0E0090020DEFF0A3EDF0229A
:102DED0090020FEFF0A3EDF0A3EBF0A3E525F0A318
:102DFD00E526F0A3E527F0A3E528F0A3E529F022C9
:062F2900900217EFF022F8
:101DBF00011E0049021A94940094940094940041D7
:031DCF0002191ED8
:0219E300151FCE
:1019E50020B20690021AE014F020B30690021DE022
:1019F50014F0209706900220E014F0900219E014EC
:101A0500F06003021B03741EF0A81FE4F6A81FE68E
:101A1500FFC3648094834003021B03EF3395E0FE0C
:101A250090021A75F003EF120C3EEE75F003A42533
:101A350083F583E0C39480503990021B75F003EF62
:101A4500120C3EEE75F003A42583F583E0D3948054
:101A5500405AE6FF3395E0FE90021C75F003EF1245
:101A65000C3EEE75F003A42583F5837401F0F51E95
:101A7500803AA81FE6FF3395E0FE90021B75F00340
:101A8500EF120C3EEE75F003A42583F583E0C394B5
:101A950080501990021C75F003EF120C3EEE75F0A4
:101AA50003A42583F5837402F0751E01A81FE6FFC4
:101AB500FD3395E0FC90021A75F003ED120C3EEC37
:101AC50075F003A42583F583E0FE90021B75F003F2
:101AD500ED120C3EEC75F003A42583F583EEF0EFD3
:101AE5003395E0FE90021A75F003EF120C3EEE7589
:0E1AF500F003A42583F5837494F006021A1200
:031B0300051F2299
:022ED400151FC8
:092ED600A81FA61EE4F51EE6FF8C
:032EDF00051F22AA
:102E2B009001A574FFF0A3742EF0A374D4F090015D
:0D2E3B00A274FFF0A37419F0A374E3F02259
:102AF100EF600764016003BF0233EFFD3395E0FC33
:102B010090021C75F003ED120C3EEC75F003A42548
:102B110083F583E0FE90021C75F003ED120C3EEC90
:0F2B210075F003A42583F583E4F0AF06227F034C
:012B30002282
:101DD2004101750A41019E0A4101E20A040E000016
:101DE20000000114004601DC0000FFFF8FFFC10D5F
:101DF200C105C108C101C10E6024017AFF000AFFBA
:101E0200000AFF000AFF000AFF000AFF000AFF00A3
:101E12000AFF000AFF000AFF000AFF000AFF000A89
:101E22006036019FFF000AFF000AFF003EFF000A22
:101E3200FF003EFF000AFF003EFF000AFF000AFF0C
:101E4200000AFF003EFF003EFF003EFF003EFF0093
:0A1E52000AFF000AFF000AFF000A61
:01000A0022D3
:03003E007F00221E
:1029DE00438E805389F07BE07A2879017800902E1F
:1029EE000D120BFE122AADEFF404F58A7BE07A2865
:1029FE0079017800902E0D120BFE122AADC3E49FC2
:102A0E00FFE49EFE74019DFDE49CFC7808120BB35E
:072A1E008F8CD28CD2A9229B
:03000B000228AB1D
:0428AB00C0E0C0D0F9
:1028AF00D5080A75084C300D020514D20DA203721B
:1028BF00045036150AE50A7030850C0AD207300A23
:1028CF0017E50D6007150D438F01801D538FFEC255
:1028DF00B5D51615C20A8011050BE50BD39406402A
:0928EF0008C203E5136002D206E1
:0528F800D0D0D0E03259
:10285800300E47C20E902E0D120BFE7810120BB3DD
:102868008E1A8F1B900178E0FEA3E0FFE4FCFD7B4D
:1028780019FAF9F8120A83C006C007AE1AAF1BABE3
:1028880007AA06E4F9F8D007D006122AAD78031291
:102898000BB39001DAEEF0A3EFF09001DAE0FEA3BB
:0228A800E0FF4F
:0128AA00220B
:092F17009001DCE0FEA3E0FF22C2
:092F20009001DCEEF0A3EFF022B9
:102E97009001E0EEF0A3EFF09001DEECF0A3EDF08F
:012EA7002208
:032F3500C2B42201
:03003B00021FF3AE
:101FF300C0E0C083C082C0D075D000C004C005C09B
:0320030006C0070D
:1020060030DF04C2DF807D30DA04C2DA807630D970
:102016003DC2D9AFFBEFFEADEB7C00E42DFFEC3EFD
:1020260020000E900176F0A3EFF075DB11D2008050
:1020360053FE900176E0FCA3E0FDC3EF9DFFEE9C0E
:10204600A3F0A3EFF075DB00C200D20E803630D8C5
:1020560033C2D89001DCE07002A3E06022B2B490F3
:1020660001DEE0FEA3E0F5EAEEF5FAA3E0FEA3E06A
:10207600FF9001DFE02FF09001DEE03EF08005C228
:04208600B453DAFE77
:10208A00D007D006D005D004D0D0D082D083D0E0FB
:01209A003213
:062F2F001229DED2AF22E0
:102392003004047F0180027F00200A047E01800253
:1023A2007E00EE5F6074E515C39509506830023611
:1023B200750D01E515131313541FAB17AA18A919AC
:1023C200F582758300120883FFE515540704FEEFBA
:1023D200A806088002C333D8FC30D70575160380DF
:1023E2002F751601802AAB17AA18A91975F002E5F4
:1023F20015A4F58285F083120883F50DE51575F0B5
:1024020002A429F9EA35F0FA900001120883F516C0
:0A2412000515D20A22C204438F1000
:01241C00229D
:101B0600900175E014F0701F740AF0D20590019EE2
:101B1600E014F07012740AF0D2089001E2E014F0BA
:101B26007005740AF0D20190019FA3E0FAA3E0F9D0
:101B3600120C709001A2A3E0FAA3E0F9120C7090C7
:101B460001AEA3E0FAA3E0F9120C709001BAA3E08B
:101B5600FAA3E0F9120C709001C9A3E0FAA3E0F928
:101B6600120C709001D2A3E0FAA3E0F9120C709067
:101B760001C0A3E0FAA3E0F9120C70EF600C90012B
:101B860092A3E0FAA3E0F9120C709001C3A3E0FA65
:101B9600A3E0F9120C70EF600E900195A3E0FAA392
:101BA600E0F9120C70D20BE512D394004016D51250
:101BB6003030090C900198A3E0FAA3E0F9120C70FA
:101BC600D20C801D9001C6A3E0FAA3E0F9120C70B6
:101BD600EF600E900198A3E0FAA3E0F9120C70D220
:0D1BE6000C90017AA3E0FAA3E0F9020C7064
:102273009001B4A3E0FAA3E0F9120C709001B7A3A4
:10228300E0FAA3E0F9120C709001A8A3E0FAA3E02E
:10229300F9120C7090017DA3E0FAA3E0F9120C701F
:1022A3009001A5A3E0FAA3E0F9120C70EF600C9083
:1022B3000186A3E0FAA3E0F9120C709001ABA3E04E
:1022C300FAA3E0F9120C70EF600C90018CA3E0FA12
:1022D300A3E0F9120C709001BDA3E0FAA3E0F91298
:1022E3000C70EF600C90018FA3E0FAA3E0F9120CDD
:1022F3007030060EC20690019BA3E0FAA3E0F91228
:032303000C702239
:102B3100900180A3E0FAA3E0F9120C709001B1A317
:102B4100E0FAA3E0F9120C70EF600C900189A3E0A8
:102B5100FAA3E0F9120C709001CCA3E0FAA3E0F91A
:0F2B6100120C709001CFA3E0FAA3E0F9020C7000
:102D0800AF11AE10AD0FAC0E9001D5120C0E9001A4
:102D1800D9E514F0E4F511F510F50FF50EF514905A
:0B2D28000183A3E0FAA3E0F9020C70A5
:102B7000300705C207122392300D05C20D121B0645
:102B8000300505C205122273300805C208122B3128
:102B9000300105C201122D08E5112401F511E435BB
:0E2BA00010F510E4350FF50FE4350EF50E229A
:102637008B228A238924EFB40C00507090264AF825
:1026470028287302266E02267302267802267D0248
:10265700268202268702268C0226910226960226C9
:102667009B0226A00226A590017A803590017D80E5
:1026770030900180802B90018380269001868021F5
:1026870090018C801C900189801790018F80129097
:102697000192800D90019580089001988003900128
:0D26A7009BE522F0A3E523F0A3E524F0223B
:070003007B017A0179D5228F
:101E5C005501E3000000000000000000000000003D
:081E6C0000000100000000006D
:03004300020F5356
:100F5300C0E0C0F0C083C082C0D075D000C000C064
:100F630001C002C003C004C005C006C007E59A3033
:100F7300E142539AFD9001E8E0FEA3E0FFC3900134
:100F8300E7E09F9001E6E09E501F9001E3E0FBA3A2
:100F9300E0FAA3E0F9A3E475F00112093985F082C0
:100FA300F583120883F59B800B9001EAE4F0E51DBD
:100FB3006002C2B7E59A20E00302110A539AFE3099
:100FC3000C0BC20C9001F0E4F0A3F0D209E51D6410
:100FD3000260030210649001EEE0FEA3E0FFA3E0D1
:100FE300FCA3E0FDC39FEC9E50719001EBE0FBA3DB
:100FF300E0FAA3E0F98D828C83E59B1208C290018D
:10100300F6E0FEA3E0FFC3ED9FEC9E50409001EE9F
:10101300E0FCA3E0FDEF9DEE9C50329001F3E0FB7A
:10102300A3E0FAA3E0F99001F0E0FEA3E0FFF5826C
:101033008E83120883FD9001EBE0FBA3E0FAA3E0AB
:10104300F98F828E831208836D6002C2099001F1C9
:10105300E004F070069001F0E004F0851C12021128
:101063000A9001EEE0FEA3E0FFA3E0FCA3E0FDC3D2
:101073009FEC9E50779001EBE0FBA3E0FAA3E0F92D
:101083008D828C83E59B1208C29001F6E0FEA3E0FB
:10109300FFC3ED9FEC9E50469001EEE0FCA3E0FD04
:1010A300EF9DEE9C50389001F3E0FBA3E0FAA3E040
:1010B300F99001F0E0FEA3E0FFF5828E831208832E
:1010C300FD9001EBE0FBA3E0FAA3E0F98F828E83AE
:1010D3001208836D60089001F074FFF0A3F0900193
:1010E300F1E004F070069001F0E004F09001EEE00E
:1010F300FEA3E0FFC39001F1E09F9001F0E09E406A
:10110300069001F27401F0D007D006D005D004D0C8
:1011130003D002D001D000D0D0D082D083D0F0D081
:02112300E032B8
:022EA800151FF4
:0A2EAA009001F2E0A81FF6FFE4F02B
:032EB400051F22D5
:0100390022A4
:101E8D008F258E248D238C2285261DE51D700280C5
:101E9D000343BA01E51D70179001D274FFF0A374CE
:101EAD0000F0A37439F0E4F5DBD290D2918020C21A
:101EBD00B7AB25AA24A923A822E47F407E9CFDFC74
:101ECD00120B0E8F1CE51C7003751C01851C127501
:101EDD009A10E47B04FAF9F8902E0D120BFE120BFA
:101EED000EAB25AA24A923A822120B0EEFF404F59C
:101EFD00D7E47B04FAF9F8902E0D120BFE120B0E9F
:101F0D00AB25AA24A923A822120B0EC3E49FFFE43C
:101F1D009EFE74019DFDE49CFC7808120BA08FD6EB
:101F2D00438E1443AF019001C674FFF0A3742EF0DD
:051F3D00A374A8F022CE
:102C49009001EBEBF0A3EAF0A3E9F0A3ECF0A3ED1C
:102C5900F09001F6E52AF0A3E52BF09001F3E527C2
:102C6900F0A3E528F0A3E529F0D20CE49001F2F0F5
:012C79002238
:102CAB009001EAE070269001E3EBF0A3EAF0A3E9D0
:102CBB00F0E4A3F0A3F0A3ECF0A3EDF0A37401F008
:0F2CCB00E51D6002D2B7439A027F02227F0322E7
:0B2EF8009001EAE07002FF227F01223F
:101E74005501F80000000000000000000000000010
:081E8400000001000000000055
:0300230002179031
:10179000C0E0C0F0C083C082C0D075D000C000C01F
:1017A00001C002C003C004C005C006C00730993B99
:1017B000C2999001FDE0FEA3E0FFC39001FCE09F11
:1017C0009001FBE09E501F9001F8E0FBA3E0FAA31C
:1017D000E0F9A3E475F00112093985F082F583126E
:1017E0000883F59980059001FFE4F0209803021822
:1017F000A5C298300B09C20B900205E4F0A3F0904B
:101800000203E0FEA3E0FFA3E0FCA3E0FDC39FEC26
:101810009E5077900200E0FBA3E0FAA3E0F98D82EE
:101820008C83E5991208C290020BE0FEA3E0FFC38F
:10183000ED9FEC9E5046900203E0FCA3E0FDEF9D7F
:10184000EE9C5038900208E0FBA3E0FAA3E0F99088
:101850000205E0FEA3E0FFF5828E83120883FD906F
:101860000200E0FBA3E0FAA3E0F98F828E83120866
:10187000836D600890020574FFF0A3F0900206E00B
:1018800004F07006900205E004F0900203E0FEA36D
:10189000E0FFC3900206E09F900205E09E400690A4
:1018A00002077401F0D007D006D005D004D003D0D1
:1018B00002D001D000D0D0D082D083D0F0D0E0329E
:022EB700151FE5
:0A2EB900900207E0A81FF6FFE4F006
:032EC300051F22C6
:1026B4008F258E248D238C22759850438E40538E03
:1026C400FE53890FE47B04FAF9F8902E0D120BFEE9
:1026D400120B0EAB25AA24A923A822120B0EEFF489
:1026E40004F58BE47B04FAF9F8902E0D120BFE121C
:1026F4000B0EAB25AA24A923A822120B0EC3E49F18
:10270400FFE49EFE74019DFDE49CFC7808120BA07E
:102714008F8DC2ABD28ED2AC9001C374FFF0A37480
:072724002EF0A374B7F022B0
:102C7A00900200EBF0A3EAF0A3E9F0A3ECF0A3EDD5
:102C8A00F090020BE52AF0A3E52BF0900208E52765
:102C9A00F0A3E528F0A3E529F0D20BE4900207F0AF
:012CAA002207
:102D5C009001FFE0701F9001F8EBF0A3EAF0A3E9FB
:102D6C00F0E4A3F0A3F0A3ECF0A3EDF0A37401F056
:082D7C00D2997F02227F03229D
:0B2F03009001FFE07002FF227F01221E
:03000000022306D2
:0C230600787FE4F6D8FD75817902234D44
:10077400E709F608DFFA8046E709F208DFFA803E67
:1007840088828C83E709F0A3DFFA8032E309F60854
:10079400DFFA8078E309F208DFFA807088828C83BC
:1007A400E309F0A3DFFA806489828A83E0A3F60870
:1007B400DFFA805889828A83E0A3F208DFFA804C4A
:1007C40080D280FA80C680D4806980F28033801021
:1007D40080A680EA809A80A880DA80E280CA80338A
:1007E40089828A83ECFAE493A3C8C582C8CCC58302
:1007F400CCF0A3C8C582C8CCC583CCDFE9DEE780D2
:100804000D89828A83E493A3F608DFF9ECFAA9F050
:10081400EDFB2289828A83ECFAE0A3C8C582C8CCA6
:10082400C583CCF0A3C8C582C8CCC583CCDFEADEBF
:10083400E880DB89828A83E493A3F208DFF980CC21
:1008440088F0EF60010E4E60C388F0ED2402B4041A
:100854000050B9F582EB2402B4040050AF232345C1
:0608640082239007C4731B
:10086A00BB010689828A83E0225002E722BBFE028C
:09087A00E32289828A83E49322BF
:10088300BB010CE58229F582E5833AF583E022502A
:1008930006E92582F8E622BBFE06E92582F8E22274
:0D08A300E58229F582E5833AF583E493228E
:1008B000BB010689828A83F0225002F722BBFE0127
:0208C000F32221
:1008C200F8BB010DE58229F582E5833AF583E8F06C
:1008D200225006E92582C8F622BBFE05E92582C818
:0208E200F22200
:1008E400BC000BBE0029EF8DF084FFADF022E4CCF8
:1008F400F875F008EF2FFFEE33FEEC33FCEE9DECC1
:10090400984005FCEE9DFE0FD5F0E9E4CEFD22ED06
:10091400F8F5F0EE8420D21CFEADF075F008EF2F50
:10092400FFED33FD4007985006D5F0F222C398FD41
:050934000FD5F0EA22DE
:10093900A3F8E0C5F025F0F0E58215827002158371
:06094900E0C838F0E822CE
:10094F00BB010A89828A83E0F5F0A3E02250068773
:10095F00F009E71922BBFE07E3F5F009E319228935
:0B096F00828A83E493F5F07401932268
:10097A00BB0110E58229F582E5833AF583E0F5F0BB
:10098A00A3E0225009E92582F886F008E622BBFE98
:10099A000AE92582F8E2F5F008E222E5832AF583DE
:0809AA00E993F5F0A3E99322A3
:1009B200BB010789828A83020CA3500B09C5F02769
:1009C200F7C5F01937F722BBFE0D09F8E325F0F35E
:1009D200C5F019E338F322F889828A8374019325DA
:0809E200F0C5F0F8E49338229F
:1009EA00BB010DC58229C582C5833AC583020CA302
:1009FA005011C58229F808E5F026F618F5F0E582C7
:100A0A0036F622BBFE11C58229F808E225F0F5F078
:100A1A00F218E23582F222F8E58229F582E5832A84
:0D0A2A00F58374019325F0F5F0E493382274
:100A3700BB010A89828A83F0E5F0A3F0225006F70A
:0F0A470009A7F01922BBFE06F3E5F009F3192207
:100A5600F8BB0111E58229F582E5833AF583E8F0D2
:100A6600E5F0A3F0225009E92582C8F608A6F0228F
:0D0A7600BBFE09E92582C8F2E5F008F22276
:100A8300E88FF0A4CC8BF0A42CFCE98EF0A42CFC12
:100A93008AF0EDA42CFCEA8EF0A4CDA8F08BF0A490
:100AA3002DCC3825F0FDE98FF0A42CCD35F0FCEBEF
:100AB3008EF0A4FEA9F0EB8FF0A4CFC5F02ECD39B4
:0F0AC300FEE43CFCEAA42DCE35F0FDE43CFC2221
:100AD20075F008758200EF2FFFEE33FECD33CDCCDB
:100AE20033CCC58233C5829BED9AEC99E58298405E
:100AF2000CF582EE9BFEED9AFDEC99FC0FD5F0D63B
:100B0200E4CEFBE4CDFAE4CCF9A88222B800C1B964
:100B12000059BA002DEC8BF084CFCECDFCE5F0CBA2
:100B2200F97818EF2FFFEE33FEED33FDEC33FCEBDB
:100B320033FB10D703994004EB99FB0FD8E5E4F996
:100B4200FA227818EF2FFFEE33FEED33FDEC33FC83
:100B5200C933C910D7059BE99A4007EC9BFCE99A77
:100B6200F90FD8E0E4C9FAE4CCFB2275F010EF2FBC
:100B7200FFEE33FEED33FDCC33CCC833C810D707BC
:100B82009BEC9AE899400AED9BFDEC9AFCE899F8F7
:0E0B92000FD5F0DAE4CDFBE4CCFAE4C8F9228A
:102AAD00C2D5E830E70FB2D5E4C39BFBE49AFAE454
:102ABD0099F9E498F8EC30E717B2D5122AE3120B26
:102ACD000EE4C39BFBE49AFAE499F9E498F88003C9
:102ADD00120B0E30D50DE4C39FFFE49EFEE49DFD69
:042AED00E49CFC2247
:100BA000E8600FECC313FCED13FDEE13FEEF13FF33
:030BB000D8F12257
:100BB300E86010ECA2E713FCED13FDEE13FEEF1358
:040BC300FFD8F02245
:100BC700E8600FEFC333FFEE33FEED33FDEC33FC8C
:030BD700D8F12230
:100BDA00BB010DE58229F582E5833AF583020C0E05
:100BEA005007E92582F8020CB9BBFE07E92582F80D
:040BFA00020CC52202
:100BFE00E493FC740193FD740293FE740393FF223D
:0C0C0E00ECF0A3EDF0A3EEF0A3EFF02259
:100C1A00BB010DE58229F582E5833AF583020CEAE8
:100C2A005007E92582F8020CD1BBFE07E92582F8B4
:040C3A00020D1B226A
:0C0C3E00A42582F582E5F03583F58322C1
:100C4A00D083D082F8E4937012740193700DA3A339
:100C5A0093F8740193F5828883E47374029368604D
:060C6A00EFA3A3A380DF4D
:060C70008A838982E4730F
:100C7600EC8EF0A4CCC5F0CCCDF8EFA4CEC5F02D0B
:100C8600FDE43CFCE8A42EC8C5F03DFDE43CFCEFC9
:0D0C9600A4FFE5F028FEE43DFDE43CFC2257
:10231200022EC6E493A3F8E493A34003F68001F2ED
:1023220008DFF48029E493A3F85407240CC8C333CC
:10233200C4540F4420C8834004F456800146F6DF9B
:10234200E4800B0102040810204080901DBBE47E53
:10235200019360BCA3FF543F30E509541FFEE49390
:10236200A360010ECF54C025E060A840B8E493A357
:10237200FAE493A3F8E493A3C8C582C8CAC583CA82
:10238200F0A3C8C582C8CAC583CADFE9DEE780BE3A
:011E8C000055
:100CA300C5F0F8A3E028F0C5F0F8E58215827002DC
:060CB3001583E038F02279
:0C0CB900ECF608EDF608EEF608EFF62267
:0C0CC500ECF208EDF208EEF208EFF2226B
:100CD100D083D082E493F608740193F608740293EA
:090CE100F608740393F674047321
:100CEA00A8828583F0D083D082120D01120D0112E1
:100CFA000D01120D01E473E493A3C583C5F0C58306
:100D0A00C8C582C8F0A3C583C5F0C583C8C582C853
:010D1A0022B6
:100D1B00D083D082E493F208740193F208740293A7
:090D2B00F208740393F2740473DE
:00000001FF
