:1024120000A8C0003F065B4F666D7D077F6F000816
:0E24220040014148BF86DBCFE6EDFD87FFEFAE
:0B24BD0012151012250A12219780FB57
:0415E600023FA55AC1
:09224500853137853238853339C3
:06224E008B348A3589364D
:10225400E4FFAB37AA38A9398F8275830012015580
:10226400AB34AA35A9368F827583001201940FBF4F
:0222740018E070
:012276002245
:101F77008B2B8A2C892D900018120155700B122279
:101F870045AB2BAA2CA92D8017AB2EAA2FA93090D1
:101F970000181201557018122245AB2EAA2FA9302E
:101FA7009000187401120194900019E4020194053D
:081FB70047E5477002054622D0
:101E27008B228A238924AB25AA26A927900018127A
:101E37000155602F8B378A388939AB22AA23A92409
:101E470012224EAB22AA23A9249000187401120172
:101E570094900019E4120194AB25AA26A9279000B3
:101E6700188010AB22AA23A924900018E412019429
:081E7700900019E4120194220D
:10204C009000C4E0603D1224DEEF70379000C5E0D4
:10205C0060127525017526007527787B017A007949
:10206C00AC121E279000C4E06019A3E070157B0130
:10207C007A0079AC7D18FC122361BF02069000C572
:04208C007401F022C9
:102090009000DEE0603D1224D3EF70379000DFE067
:1020A00060127525017526007527927B017A0079EB
:1020B000C6121E279000DEE06019A3E070157B01B8
:1020C0007A0079C67D18FC1222D9BF02069000DF83
:0420D0007401F02285
:10238900E54860090547E547701805462275370194
:102399007538007539307B017A00790012224E7543
:0323A900480122C6
:1023AC00E54960090547E547701805462275370170
:1023BC007538007539487B017A00791812224E75F0
:0323CC00490122A2
:1020060090000A740812019490000CE41201949056
:10201600000D740212019490000E74031201949044
:10202600000F7401120194900010E41201949000C4
:102036001174FF120194900012740712019490001B
:0620460013740102019475
:101BEE00E4F52FF5307531017532017533597D02EB
:101BFE00120965EF7061752E01752F0175305975DB
:101C0E0031017532007533E07B017A0079F41214DC
:101C1E003890015AE0B4010F9000ECE070097B019E
:101C2E007A0079E0122006752E01752F007530604E
:101C3E007B017A0079E0120B44EF701B85282E850C
:101C4E00292F852A30753101753200753360AB2529
:081C5E00AA26A927121F772214
:101E7F00E548601EE4F5487525017526007527AC09
:101E8F00752801752900752A787B017A007900126F
:101E9F001BEEE549601EE4F54975250175260075B1
:101EAF0027C6752801752900752A927B017A00795A
:101EBF0018121BEE7B017A0079F41221D512204CF7
:031ECF000220905E
:1023CF00E4FF1221188F227F011221188F23E5229B
:1023DF00B401057F02122504E523B40105E4FF12C1
:0223EF002504C3
:0123F10022C9
:101D520012000378417C007D007E007F051201168F
:101D620090014EE0FEA3E0FF7C007D641201B6AB61
:101D72000790014EE0FEA3E0FF7C007D0A1201B64F
:101D82007C007D0A1201B68D268B2590014DE0FB69
:101D9200A3E0FEA3E0FF7C007D0A1201B68D27E5D9
:101DA2004560047F0C80027F0A8F28E54745466024
:101DB200047F0C80027F0A8F2990014AE0FD7F0296
:031DC2000223F207
:10151000E4F548F549900090F09000C4F09000AADE
:10152000F09000DEF0F546F5477B017A0079F47D16
:1015300002121CDD12244D7D07E4FF1224E97525FB
:101540000A75260A75270A75280A75290A7B0AE48E
:10155000FD7F021223F2E4FF1225041224307F6083
:101560007E097D007C00121C667526017FB07E041A
:101570007D007C001216B875270075280075293F7C
:10158000752A00752B027B017A0079307D187C006A
:101590001222A875270075280075293F752A007545
:1015A0002B027B017A0079487D187C001222777B20
:1015B000FF7A2379897F09121B717BFF7A2379AC2B
:1015C0007F0A121B717BFF7A1E797F7F01121B71CC
:1015D0007BFF7A1D79527F03121B717BFF7A23797F
:0615E000CF7F04021B7125
:05002600F9E4352CFA9D
:0E002B00900001120155FE12013CFDEDFF2276
:0B24C800ED120182900001EC02019473
:0A1DC5008B358A3689378C388D394A
:101DCF0074FFF53AF53BE4FDFCC3ED9539EC95381E
:101DDF005041AB35AA36A9378D828C8312015562DB
:101DEF003BE4FBE53B30E015E53AC313FEE53B135F
:101DFF00FFEE64A0F53AEF6401F53B800BE53AC3C3
:101E0F0013F53AE53B13F53B0BBB08D70DBD0001AE
:071E1F000C80B6AE3AAF3BA8
:011E26002299
:060B44008B2B8A2C892D89
:100B4A00AE02AF01EF4E6006E530452F70037F0815
:100B5A0022AB2BAA2CA92D12013C640160037F034E
:100B6A002290000A120155D3940840037F04229070
:100B7A00000B12015554FC60037F0522AB2EAA2FED
:100B8A00A93074A5120182AB2EAA2FA930900001B8
:100B9A00745A120194AB2BAA2CA92D12013CAB2E2C
:100BAA00AA2FA930900002120194AB2BAA2CA92DCE
:100BBA00900001120155AB2EAA2FA9309000031202
:100BCA000194AB2BAA2CA92D900002120155AB2E31
:100BDA00AA2FA930900004120194AB2BAA2CA92D9C
:100BEA00900003120155AB2EAA2FA93090000512CE
:100BFA000194E92406F9E43AFAC003C002C001AB41
:100C0A002BAA2CA92D90000412024CFDACF0D001A5
:100C1A00D002D0031224C8AB2EE5302408F9E435FB
:100C2A002FFAC003C002C001AB2BAA2CA92D900039
:100C3A000612024CFDACF0D001D002D0031224C837
:100C4A00AB2BAA2CA92D900008120155AB2EAA2F66
:100C5A00A93090000A120194AB2BAA2CA92D90005E
:100C6A0009120155AB2EAA2FA93090000B1201943C
:100C7A00AB2BAA2CA92D90000A120155AB2EAA2F34
:100C8A00A93090000C120194AB2BAA2CA92D90002C
:100C9A000B120155AB2EAA2FA93090000D12019408
:100CAA00E4F531AB2BAA2CA92D90000A120155FFAD
:100CBA00E531C39F5016E9240CF9E43AFA7E00E9BB
:100CCA002531F9EE3AFA12013CFF80027F00E53144
:100CDA00240EF582E433F583AB2EAA2FA930EF1246
:100CEA0001940531E531B408BAAB2EE5302402F996
:100CFA00E4352FFA7D147C00121DC5AD07AC06AB96
:0F0D0A002EE5302416F9E4352FFA1224C87F00A5
:010D190022B7
:080965008D2E8B2B8A2C892DAD
:10096D00AE02AF01EF4E6006E533453270037F08EE
:10097D0022AB2BAA2CA92D12013CB4A50A90000183
:10098D00120155645A60037F0122E92402F9E43A09
:10099D00FA7D147C00121DC5C006C007AB2BE52DDA
:1009AD002416120026D005D004EF6D7002EE6C6097
:1009BD00037F0222AB2BAA2CA92D90000212015508
:1009CD00640160037F032290000C120155D394083B
:1009DD0040037F042290000D12015554FC60037FEB
:1009ED000522900005120155FF652E6007EFF4609A
:1009FD00037F0622E530452F6017E92406F9E43A16
:100A0D00FA12002BEF65307003EE652F60037F0740
:100A1D0022AB2BAA2CA92D900002120155AB31AAA5
:100A2D0032A933120182AB2BAA2CA92D90000312EF
:100A3D000155AB31AA32A933900001120194AB2BB1
:100A4D00AA2CA92D900004120155AB31AA32A9335D
:100A5D00900002120194AB2BAA2CA92D9000051227
:100A6D000155AB31AA32A933900003120194AB2B7F
:100A7D00E52D2406120026AB31AA32A933900004CD
:100A8D00EE8FF0120328AB2BE52D2408120026ABB8
:100A9D0031AA32A933900006EE8FF0120328AB2B4A
:100AAD00AA2CA92D90000A120155AB31AA32A933F7
:100ABD00900008120194AB2BAA2CA92D90000B12BB
:100ACD000155AB31AA32A933900009120194AB2B19
:100ADD00AA2CA92D90000C120155AB31AA32A933C5
:100AED0090000A120194AB2BAA2CA92D90000D1287
:100AFD000155AB31AA32A93390000B120194E4F5E4
:100B0D0034AF347E00740E2FF582E433F583AB2BB6
:100B1D00AA2CA92D120155FDAB31E533240CF9E4B6
:100B2D003532FAE92FF9EE3AFAED1201820534E584
:060B3D0034B408CD7F0076
:010B4300228F
:10220E00E4F5F0120309900002E4F5F012032890B1
:10221E000004E4F5F01203289000061204EC00000E
:10222E00000090000AE412019490000BE412019455
:07223E0090000CE402019482
:10246800120221FFAEF04E600CEFB50508EEB50480
:08247800047F0180027F0022B5
:10230800E4F5F0120309900002E4F5F012032890B6
:102318000004E4F5F01203289000067401120194F9
:0E232800900007E4120194900008E402019472
:061815008B558A5689572D
:10181B00900008120155700BD3E55D9440E55C9484
:10182B000040037F0022AB55AA56A957E475F0017F
:10183B00120284AB55AA56A957900007ED120194DA
:10184B00900004E55C855DF0120328E4FFFEC3EF16
:10185B00955DEE955C502AAB59AA5AA95B8F828E87
:10186B0083120155FDAB55E5572409F9E43556FABA
:10187B00E92FF9EA3EFAED1201820FBF00010E804B
:10188B00CDAB59AA5AA95BAD5DAC5C121DC5AB556E
:10189B00AA56A957900002EE8FF012032890000869
:0718AB0074011201947F019A
:0118B2002213
:061AF3008B4A8A4B894C6E
:101AF900ED75F004A4F55285F051900008120155D6
:101B0900601190000412024CFFC3E5529FE5519504
:081B1900F040037F0022E4FF0D
:101B2100EF7C002552F554EC3551F553AB4AAA4BE5
:101B3100A94C90000412024CFDC3E5549DE5539558
:101B4100F05015E92409F9E43AFAE92554F9EA359E
:101B510053FA12013CFE80027E00AB4EAA4FA950FF
:091B61008F82758300EE120194DD
:061B6A000FBF04B37F0170
:011B70002252
:07000E00E9240CF9E43AFAC1
:0E001500900001120155FE12013CFDEDFF228C
:1018B3008B3C8A3D893E900001120155FFE4FCFDFB
:1018C300FE7808120499A804C005C006C0071201D7
:1018D3003CFFD003D002D001EB4FFFEAFEE9FDE865
:1018E300FCC004C005C006C007AB3CAA3DA93E909E
:1018F3000002120155FFE4FCFDFE7810120499D09A
:1019030003D002D001D000EF4BFFEE4AFEED49FDBC
:10191300EC48FCC004C005C006C007AB3CAA3DA907
:101923003E900003120155FFE4FCFDFE78181204FB
:1019330099D003D002D001D000EF4BFFEE4AFEED69
:0619430049FDEC48FC2206
:09101C0085313B85323C85333DF2
:061025008B348A35893688
:10102B00AB3BAA3CA93D7401120182AB37AA38A98C
:10103B0039F5827583001201554480AB3BAA3CA95C
:10104B003D900001120194AB34AA35A9369000589B
:10105B00120155AB3BAA3CA93D900002120194AB87
:10106B0037AA38A939900002120155AB3BAA3CA90B
:10107B003D900003120194AB37AA38A939900004B4
:10108B0012024CFFAB3BAA3CA93D900004E5F08F4C
:10109B00F0120328AB37AA38A93990000612024C7C
:1010AB00FFAB3BAA3CA93D900006E5F08FF0120385
:1010BB0028AB37AA38A939900008120155AB3BAAC7
:1010CB003CA93D900008120194AB37AA38A939907E
:1010DB000009120155AB3BAA3CA93D900009120136
:1010EB009490000A740112019490000B7401120188
:1010FB0094E53A6013AB3BE53D240BF9E4353CFA40
:10110B0012013C4402120182AB3BAA3CA93D900068
:10111B000CE53A1201947F01AB3BE53D240CF9E45D
:10112B00353CFAEF7C0029F9EC3AFAE41201820F14
:03113B00BF08E505
:01113E00228E
:101CDD008B228A2389248D2512220EAB22E5242402
:101CED000DF9E43523FA122308AB22AA23A9249077
:101CFD000056E4120194900057E41201949000589C
:101D0D00E525120194900059E412019490005AE4D3
:101D1D00F5F012032890005CE4F5F0120328900012
:101D2D005EE4F5F0120328900060E4F5F01203284C
:101D3D00900062E4120194900063E412019490000B
:051D4D0064E4020194B2
:0605D9008B348A358936DF
:1005DF00AB37AA38A939900001120155FF640160A9
:1005EF0004EFB402037F002290000112015564034F
:1005FF0060030206C390000412024C45F0600A909B
:10060F00000A120155640860037F0322AB34AA3538
:10061F00A936900056120155FF6007640660037FEC
:10062F000122AB34AA35A93612220EAB37AA38A94C
:10063F003990000412024CFFAB34AA35A936E5F00D
:10064F008FF0120309AB37E539240CF9E43538FA8A
:10065F001218B3AB34AA35A9369000061204ACAB0E
:10066F0037AA38A939900010120155AB34AA35A911
:10067F003690000A120194AB37E5392411F9E435AD
:10068F0038FA120015AB34AA35A936900002EE8F56
:10069F00F0120328AB37AA38A9399000131201556D
:1006AF00AB34AA35A93690000B1201949000567402
:1006BF0001020942AB37AA38A93990000412024C43
:1006CF00FDACF0AB34AA35A936122468EF70037F66
:1006DF000622AB37AA38A93990000112015512052D
:1006EF001C094804070F0507440607A1070910084E
:1006FF00092A09081F1008961108DF130000096264
:10070F00AB34AA35A936900056120155B40110AB7F
:10071F0037AA38A93990000A120155640860037F7F
:10072F00042290000C1201556005D3940C40037FF6
:10073F0003227F0022AB34AA35A93690005612014E
:10074F0055B40110AB37AA38A93990000A120155D8
:10075F00640260037F042212000E8E3A8F3BAB348B
:10076F00AA35A93690000212024C653B7004E53A97
:10077F0065F060037F0322900004E53A853BF01299
:10078F00032890000C740112019490005674020219
:10079F000942AB34AA35A9369000581201556401AD
:1007AF0060037F0522900056120155FEB403037FAC
:1007BF000122EEB4020890000C12015570037F0461
:1007CF0022AB37AA38A93990000A120155C39403F6
:1007DF00400AE9240D120011EF4E70037F0322AB84
:1007EF0037AA38A93990000C120155AB34AA35A994
:1007FF003690000A120194900056740312019490DF
:10080F00005AE475F0011202BC900057E40209424D
:10081F00AB34AA35A936900056120155B40310AB6C
:10082F0037AA38A93990000A120155640860037F6E
:10083F000422E9240E1200118E3A8F3BE53B453A14
:10084F00600BD3E53B9460E53A94EA40037F0322C3
:10085F00AB37AA38A939900008120155AB34AA3525
:10086F00A936900059120194E53B2409FFE4353A6B
:10087F00FE7C007D0A1201B6AB34AA35A936900072
:10088F005CEE8FF002095CAB34AA35A936900056A6
:10089F00120155B40310AB37AA38A93990000A12C8
:1008AF000155640660037F042212000EAB34AA3593
:1008BF00A93690005A12024C6F7003EE65F0600378
:1008CF007F032290005EE475F0011202BC7F0022CC
:1008DF00AB34AA35A936900056120155FF64036058
:1008EF0008EF640460037F0422900057740612011E
:1008FF0094900056740512019490005CE4F5F0801A
:10090F004CAB34AA35A936900056120155640360DA
:10091F00037F042290005674048018AB34AA35A9C3
:10092F0036900056120155640460037F0422900034
:10093F005674031201947F0022AB34AA35A9369066
:10094F000056740612019490005CE4F5F01203282F
:05095F007F00227F056E
:010964002270
:061438008B2B8A2C892D8C
:10143E009000641201556061AB2EAA2FA930900066
:10144E000612024CFFAEF0AB2BAA2CA92D90006019
:10145E0012024C6F7003E5F06E703EAB2EAA2FA9F0
:10146E0030900001120155FFAB2BAA2CA92D900034
:10147E00621201556F7022852E37852F38853039CF
:10148E00900063120155F53A12101CAB2BAA2CA931
:10149E002D900063120155FF22852E37852F38853A
:1014AE003039AB2BAA2CA92D1205D9AE07AB2EAA1B
:1014BE002FA93090000612024CFDAB2BAA2CA92DA1
:1014CE00900060E5F08DF0120328AB2EAA2FA93004
:1014DE00900001120155AB2BAA2CA92D900062127F
:1014EE000194900063EE1201949000647401120155
:1014FE0094852E37852F388530398E3A12101CAFD1
:01150E0006D6
:01150F0022B9
:1021D5009000561201556403702E90005C12024C5B
:1021E50045F0602490005C74FFF5F01202BC90008D
:1021F5005C12024C45F07010900057740F12019458
:09220500900056740512019422A8
:10134F00E4F580900210E0FFB40800505F90136343
:10135F00F828287302137B02138102138702138D5F
:10136F0002139302139D0213A70213B1C2A3C2A2C9
:10137F008016C2A3C2A2801AC2A3C2A2801EC2A399
:10138F00C2A28022C2A3D2A2C2A1C2A08020C2A3A5
:10139F00D2A2C2A1D2A08016C2A3D2A2D2A1C2A0B1
:1013AF00800CC2A3D2A2D2A1D2A08002D2A3C3EF3B
:1013BF00648094885029900210E0FF3395E0FE740A
:1013CF00072FF58274023EF583E0FF3395E0FE743C
:1013DF00162FF58274243EF583E493F580801E90DA
:1013EF000210E0FFB408133395E0FE74072FF58267
:1013FF0074023EF583E0F5808003E4F580900206E9
:10140F00E0FF900210E004FEF0D3EF6480F8EE648A
:10141F0080984014E0D36480948850047408F022BC
:09142F00900205E0900210F02289
:10244D00E4F5937594FF5395F043960F90019774AF
:0B245D00FFF0A37413F0A3744FF022F3
:0924E900900205EFF0A3EDF022D2
:1023F200900207EFF0A3EDF0A3EBF0A3E525F0A325
:10240200E526F0A3E527F0A3E528F0A3E529F022CD
:0625040090020FEFF0222F
:1015EA00011E0049021294940094940094940041BC
:0315FA0002111EBD
:02113F00151F7A
:1011410020B206900212E014F020B306900215E0DE
:1011510014F0209706900218E014F0900211E014A8
:10116100F0600302125F741EF0A81FE4F6A81FE6E8
:10117100FFC364809483400302125FEF3395E0FE66
:1011810090021275F003EF120510EE75F003A4251D
:1011910083F583E0C39480503990021375F003EF17
:1011A100120510EE75F003A42583F583E0D3948036
:1011B100405AE6FF3395E0FE90021475F003EF12FA
:1011C1000510EE75F003A42583F5837401F0F51E77
:1011D100803AA81FE6FF3395E0FE90021375F003F5
:1011E100EF120510EE75F003A42583F583E0C39497
:1011F10080501990021475F003EF120510EE75F08E
:1012010003A42583F5837402F0751E01A81FE6FF70
:10121100FD3395E0FC90021275F003ED120510EC20
:1012210075F003A42583F583E0FE90021375F003A6
:10123100ED120510EC75F003A42583F583EEF0EFB4
:101241003395E0FE90021275F003EF120510EE7572
:0E125100F003A42583F5837494F00602116E59
:03125F00051F2246
:0224AF00151FF7
:0924B100A81FA61EE4F51EE6FFBB
:0324BA00051F22D9
:1024300090019D74FFF0A37424F0A374AFF0900199
:0D2440009A74FFF0A37411F0A3743FF02212
:10211800EF600764016003BF0233EFFD3395E0FC15
:1021280090021475F003ED120510EC75F003A42568
:1021380083F583E0FE90021475F003ED120510ECB0
:0F21480075F003A42583F583E4F0AF06227F032F
:012157002265
:1015FD0041016D0A4101960A4101DA0A040E00000B
:10160D0000000114004601D40000FFFF8FFFC10D43
:10161D00C105C108C101C10E60240172FF000AFF9E
:10162D00000AFF000AFF000AFF000AFF000AFF0080
:10163D000AFF000AFF000AFF000AFF000AFF000A66
:10164D0060360197FF000AFF000AFF003EFF000A07
:10165D00FF003EFF000AFF003EFF000AFF000AFFE9
:10166D00000AFF003EFF003EFF003EFF003EFF0070
:0A167D000AFF000AFF000AFF000A3E
:01000A0022D3
:03003E007F00221E
:101FBF00438E805389F07BE07A2879017800902452
:101FCF00121204D01220D4EFF404F58A7BE07A28A1
:101FDF00790178009024121204D01220D4C3E49F08
:101FEF00FFE49EFE74019DFDE49CFC7808120485BD
:071FFF008F8CD28CD2A922C5
:03000B00021F25AC
:041F2500C0E0C0D088
:101F2900D5080A75084C300D020514D20DA20372AA
:101F3900045036150AE50A7030850C0AD207300AB2
:101F490017E50D6007150D438F01801D538FFEC2E4
:101F5900B5D51615C20A8011050BE50BD3940640B9
:091F690008C203E5136002D20670
:051F7200D0D0D0E032E8
:101ED200300E47C20E9024121204D07810120485DC
:101EE2008E1A8F1B900170E0FEA3E0FFE4FCFD7BE5
:101EF20019FAF9F8120355C006C007AE1AAF1BABA8
:101F020007AA06E4F9F8D007D0061220D478031203
:101F120004859001D2EEF0A3EFF09001D2E0FEA38F
:021F2200E0FFDE
:011F2400229A
:0924F2009001D4E0FEA3E0FF22FA
:0924FB009001D4EEF0A3EFF022F1
:102480009001D8EEF0A3EFF09001D6ECF0A3EDF0C0
:012490002229
:03251000C2B42230
:03003B0002176D3C
:10176D00C0E0C083C082C0D075D000C004C005C029
:03177D0006C0079C
:1017800030DF04C2DF807D30DA04C2DA807630D9FF
:101790003DC2D9AFFBEFFEADEB7C00E42DFFEC3E8C
:1017A00020000E90016EF0A3EFF075DB11D20080E7
:1017B00053FE90016EE0FCA3E0FDC3EF9DFFEE9CA5
:1017C000A3F0A3EFF075DB00C200D20E803630D854
:1017D00033C2D89001D4E07002A3E06022B2B4908A
:1017E00001D6E0FEA3E0F5EAEEF5FAA3E0FEA3E001
:1017F000FF9001D7E02FF09001D6E03EF08005C2C7
:04180000B453DAFE05
:10180400D007D006D005D004D0D0D082D083D0E089
:0118140032A1
:06250A00121FBFD2AF2238
:101A68003004047F0180027F00200A047E01800286
:101A78007E00EE5F6074E515C39509506830023644
:101A8800750D01E515131313541FAB17AA18A919DF
:101A9800F582758300120155FFE515540704FEEF22
:101AA800A806088002C333D8FC30D7057516038012
:101AB8002F751601802AAB17AA18A91975F002E527
:101AC80015A4F58285F083120155F50DE51575F01D
:101AD80002A429F9EA35F0FA900001120155F51629
:0A1AE8000515D20A22C204438F1034
:011AF20022D1
:1012620090016DE014F0701F740AF0D2059001969F
:10127200E014F07012740AF0D2089001DAE014F06F
:101282007005740AF0D201900197A3E0FAA3E0F985
:1012920012054290019AA3E0FAA3E0F912054290E6
:1012A20001A6A3E0FAA3E0F91205429001B2A3E07D
:1012B200FAA3E0F91205429001C1A3E0FAA3E0F912
:1012C2001205429001CAA3E0FAA3E0F91205429086
:1012D20001B8A3E0FAA3E0F9120542EF600C900115
:1012E2008AA3E0FAA3E0F91205429001BBA3E0FA57
:1012F200A3E0F9120542EF600E90018DA3E0FAA37C
:10130200E0F9120542D20BE512D394004016D51231
:101312003030090C900190A3E0FAA3E0F9120542E3
:10132200D20C801D9001BEA3E0FAA3E0F91205429F
:10133200EF600E900190A3E0FAA3E0F9120542D209
:0D1342000C900172A3E0FAA3E0F90205424D
:101949009001ACA3E0FAA3E0F91205429001AFA31C
:10195900E0FAA3E0F91205429001A0A3E0FAA3E09E
:10196900F9120542900175A3E0FAA3E0F9120542C4
:1019790090019DA3E0FAA3E0F9120542EF600C90F3
:10198900017EA3E0FAA3E0F91205429001A3A3E0C6
:10199900FAA3E0F9120542EF600C900184A3E0FA82
:1019A900A3E0F91205429001B5A3E0FAA3E0F91208
:1019B9000542EF600C900187A3E0FAA3E0F9120554
:1019C9004230060EC206900193A3E0FAA3E0F91291
:0319D900054222A2
:10215800900178A3E0FAA3E0F91205429001A9A33F
:10216800E0FAA3E0F9120542EF600C900181A3E0C8
:10217800FAA3E0F91205429001C4A3E0FAA3E0F93A
:0F2188001205429001C7A3E0FAA3E0F902054255
:10233600AF11AE10AD0FAC0E9001CD1204E09001BE
:10234600D1E514F0E4F511F510F50FF50EF514903E
:0B235600017BA3E0FAA3E0F9020542BE
:10219700300705C207121A68300D05C20D12126208
:1021A700300505C205121949300805C20812215821
:1021B700300105C201122336E5112401F511E4357A
:0E21C70010F510E4350FF50FE4350EF50E227D
:101B71008B228A238924EFB40C005070901B84F8C7
:101B8100282873021BA8021BAD021BB2021BB7025D
:101B91001BBC021BC1021BC6021BCB021BD0021BBA
:101BA100D5021BDA021BDF9001728035900175802E
:101BB10030900178802B90017B802690017E8021DE
:101BC100900184801C900181801790018780129080
:101BD100018A800D90018D80089001908003900111
:0D1BE10093E522F0A3E523F0A3E524F02214
:070003007B017A0179CD2297
:101687005501DB0000000000000000000000000022
:0816970000000100000000004A
:03004300020D1A91
:100D1A00C0E0C0F0C083C082C0D075D000C000C09F
:100D2A0001C002C003C004C005C006C007E59A306E
:100D3A00E142539AFD9001E0E0FEA3E0FFC3900177
:100D4A00DFE09F9001DEE09E501F9001DBE0FBA3F5
:100D5A00E0FAA3E0F9A3E475F00112020B85F08230
:100D6A00F583120155F59B800B9001E2E4F0E51D35
:100D7A006002C2B7E59A20E003020ED1539AFE3010
:100D8A000C0BC20C9001E8E4F0A3F0D209E51D6453
:100D9A00026003020E2B9001E6E0FEA3E0FFA3E04F
:100DAA00FCA3E0FDC39FEC9E50719001E3E0FBA31E
:100DBA00E0FAA3E0F98D828C83E59B1201949001FD
:100DCA00EEE0FEA3E0FFC3ED9FEC9E50409001E6EB
:100DDA00E0FCA3E0FDEF9DEE9C50329001EBE0FBBE
:100DEA00A3E0FAA3E0F99001E8E0FEA3E0FFF582B0
:100DFA008E83120155FD9001E3E0FBA3E0FAA3E024
:100E0A00F98F828E831201556D6002C2099001E941
:100E1A00E004F070069001E8E004F0851C12020E6E
:100E2A00D19001E6E0FEA3E0FFA3E0FCA3E0FDC34E
:100E3A009FEC9E50779001E3E0FBA3E0FAA3E0F970
:100E4A008D828C83E59B1201949001EEE0FEA3E073
:100E5A00FFC3ED9FEC9E50469001E6E0FCA3E0FD47
:100E6A00EF9DEE9C50389001EBE0FBA3E0FAA3E083
:100E7A00F99001E8E0FEA3E0FFF5828E83120155A6
:100E8A00FD9001E3E0FBA3E0FAA3E0F98F828E83F1
:100E9A001201556D60089001E874FFF0A3F090010B
:100EAA00E9E004F070069001E8E004F09001E6E061
:100EBA00FEA3E0FFC39001E9E09F9001E8E09E40B5
:100ECA00069001EA7401F0D007D006D005D004D00C
:100EDA0003D002D001D000D0D0D082D083D0F0D0BD
:020EEA00E032F4
:02249100151F15
:0A2493009001EAE0A81FF6FFE4F054
:03249D00051F22F6
:0100390022A4
:1016B8008F258E248D238C2285261DE51D700280A2
:1016C8000343BA01E51D70179001CA74FFF0A374B3
:1016D80000F0A37439F0E4F5DBD290D2918020C2F7
:1016E800B7AB25AA24A923A822E47F407E9CFDFC51
:1016F8001203E08F1CE51C7003751C01851C127514
:101708009A10E47B04FAF9F89024121204D0120318
:10171800E0AB25AA24A923A8221203E0EFF404F5DC
:10172800D7E47B04FAF9F89024121204D01203E0EB
:10173800AB25AA24A923A8221203E0C3E49FFFE44F
:101748009EFE74019DFDE49CFC78081204728FD6FD
:10175800438E1443AF019001BE74FFF0A37424F0CC
:05176800A37491F022C2
:102277009001E3EBF0A3EAF0A3E9F0A3ECF0A3ED00
:10228700F09001EEE52AF0A3E52BF09001EBE527AE
:10229700F0A3E528F0A3E529F0D20CE49001EAF0D9
:0122A7002214
:1022D9009001E2E070269001DBEBF0A3EAF0A3E9BC
:1022E900F0E4A3F0A3F0A3ECF0A3EDF0A37401F0E4
:0F22F900E51D6002D2B7439A027F02227F0322C3
:0B24D3009001E2E07002FF227F012276
:10169F005501F000000000000000000000000000F5
:0816AF00000001000000000032
:03002300020EECDE
:100EEC00C0E0C0F0C083C082C0D075D000C000C0CC
:100EFC0001C002C003C004C005C006C00730993B46
:100F0C00C2999001F5E0FEA3E0FFC39001F4E09FCD
:100F1C009001F3E09E501F9001F0E0FBA3E0FAA3D8
:100F2C00E0F9A3E475F00112020B85F082F583124F
:100F3C000155F59980059001F7E4F0209803021013
:100F4C0001C298300B09C20B9001FDE4F0A3F090A4
:100F5C0001FBE0FEA3E0FFA3E0FCA3E0FDC39FECDC
:100F6C009E50779001F8E0FBA3E0FAA3E0F98D82A4
:100F7C008C83E599120194900203E0FEA3E0FFC379
:100F8C00ED9FEC9E50469001FBE0FCA3E0FDEF9D35
:100F9C00EE9C5038900200E0FBA3E0FAA3E0F9903D
:100FAC0001FDE0FEA3E0FFF5828E83120155FD905A
:100FBC0001F8E0FBA3E0FAA3E0F98F828E83120123
:100FCC00556D60089001FD74FFF0A3F09001FEE0F8
:100FDC0004F070069001FDE004F09001FBE0FEA32C
:100FEC00E0FFC39001FEE09F9001FDE09E40069063
:100FFC0001FF7401F0D007D006D005D004D003D087
:10100C0002D001D000D0D0D082D083D0F0D0E0324A
:0224A000151F06
:0A24A2009001FFE0A81FF6FFE4F030
:0324AC00051F22E7
:101C66008F258E248D238C22759850438E40538E5B
:101C7600FE53890FE47B04FAF9F89024121204D07B
:101C86001203E0AB25AA24A923A8221203E0EFF44D
:101C960004F58BE47B04FAF9F89024121204D012AE
:101CA60003E0AB25AA24A923A8221203E0C3E49FDC
:101CB600FFE49EFE74019DFDE49CFC78081204720C
:101CC6008F8DC2ABD28ED2AC9001BB74FFF0A374E1
:071CD60024F0A374A0F0222A
:1022A8009001F8EBF0A3EAF0A3E9F0A3ECF0A3EDBA
:1022B800F0900203E52AF0A3E52BF0900200E52751
:1022C800F0A3E528F0A3E529F0D20BE49001FFF094
:0122D80022E3
:102361009001F7E0701F9001F0EBF0A3EAF0A3E910
:10237100F0E4A3F0A3F0A3ECF0A3EDF0A37401F05B
:08238100D2997F02227F0322A2
:0B24DE009001F7E07002FF227F012256
:030000000219DC06
:0C19DC00787FE4F6D8FD75815D021A23C7
:10004600E709F608DFFA8046E709F208DFFA803E9C
:1000560088828C83E709F0A3DFFA8032E309F60889
:10006600DFFA8078E309F208DFFA807088828C83F1
:10007600E309F0A3DFFA806489828A83E0A3F608A5
:10008600DFFA805889828A83E0A3F208DFFA804C7F
:1000960080D280FA80C680D4806980F28033801056
:1000A60080A680EA809A80A880DA80E280CA8033BF
:1000B60089828A83ECFAE493A3C8C582C8CCC58337
:1000C600CCF0A3C8C582C8CCC583CCDFE9DEE78007
:1000D6000D89828A83E493A3F608DFF9ECFAA9F086
:1000E600EDFB2289828A83ECFAE0A3C8C582C8CCDC
:1000F600C583CCF0A3C8C582C8CCC583CCDFEADEF5
:10010600E880DB89828A83E493A3F208DFF980CC56
:1001160088F0EF60010E4E60C388F0ED2402B4044F
:100126000050B9F582EB2402B4040050AF232345F6
:0601360082239000967385
:10013C00BB010689828A83E0225002E722BBFE02C1
:09014C00E32289828A83E49322F4
:10015500BB010CE58229F582E5833AF583E022505F
:1001650006E92582F8E622BBFE06E92582F8E222A9
:0D017500E58229F582E5833AF583E49322C3
:10018200BB010689828A83F0225002F722BBFE015C
:02019200F32256
:10019400F8BB010DE58229F582E5833AF583E8F0A1
:1001A400225006E92582C8F622BBFE05E92582C84D
:0201B400F22235
:1001B600BC000BBE0029EF8DF084FFADF022E4CC2D
:1001C600F875F008EF2FFFEE33FEEC33FCEE9DECF6
:1001D600984005FCEE9DFE0FD5F0E9E4CEFD22ED3C
:1001E600F8F5F0EE8420D21CFEADF075F008EF2F86
:1001F600FFED33FD4007985006D5F0F222C398FD77
:050206000FD5F0EA2213
:10020B00A3F8E0C5F025F0F0E582158270021583A6
:06021B00E0C838F0E82203
:10022100BB010A89828A83E0F5F0A3E022500687A8
:10023100F009E71922BBFE07E3F5F009E31922896A
:0B024100828A83E493F5F0740193229D
:10024C00BB0110E58229F582E5833AF583E0F5F0F0
:10025C00A3E0225009E92582F886F008E622BBFECD
:10026C000AE92582F8E2F5F008E222E5832AF58313
:08027C00E993F5F0A3E99322D8
:10028400BB010789828A83020548500B09C5F02700
:10029400F7C5F01937F722BBFE0D09F8E325F0F393
:1002A400C5F019E338F322F889828A83740193250F
:0802B400F0C5F0F8E4933822D4
:1002BC00BB010DC58229C582C5833AC58302054899
:1002CC005011C58229F808E5F026F618F5F0E582FC
:1002DC0036F622BBFE11C58229F808E225F0F5F0AE
:1002EC00F218E23582F222F8E58229F582E5832ABA
:0D02FC00F58374019325F0F5F0E4933822AA
:10030900BB010A89828A83F0E5F0A3F0225006F73F
:0F03190009A7F01922BBFE06F3E5F009F319223C
:10032800F8BB0111E58229F582E5833AF583E8F007
:10033800E5F0A3F0225009E92582C8F608A6F022C4
:0D034800BBFE09E92582C8F2E5F008F222AB
:10035500E88FF0A4CC8BF0A42CFCE98EF0A42CFC47
:100365008AF0EDA42CFCEA8EF0A4CDA8F08BF0A4C5
:100375002DCC3825F0FDE98FF0A42CCD35F0FCEB24
:100385008EF0A4FEA9F0EB8FF0A4CFC5F02ECD39E9
:0F039500FEE43CFCEAA42DCE35F0FDE43CFC2256
:1003A40075F008758200EF2FFFEE33FECD33CDCC10
:1003B40033CCC58233C5829BED9AEC99E582984093
:1003C4000CF582EE9BFEED9AFDEC99FC0FD5F0D670
:1003D400E4CEFBE4CDFAE4CCF9A88222B800C1B99A
:1003E4000059BA002DEC8BF084CFCECDFCE5F0CBD8
:1003F400F97818EF2FFFEE33FEED33FDEC33FCEB11
:1004040033FB10D703994004EB99FB0FD8E5E4F9CB
:10041400FA227818EF2FFFEE33FEED33FDEC33FCB8
:10042400C933C910D7059BE99A4007EC9BFCE99AAC
:10043400F90FD8E0E4C9FAE4CCFB2275F010EF2FF1
:10044400FFEE33FEED33FDCC33CCC833C810D707F1
:100454009BEC9AE899400AED9BFDEC9AFCE899F82C
:0E0464000FD5F0DAE4CDFBE4CCFAE4C8F922BF
:1020D400C2D5E830E70FB2D5E4C39BFBE49AFAE437
:1020E40099F9E498F8EC30E717B2D512210A1203F3
:1020F400E0E4C39BFBE49AFAE499F9E498F88003DA
:102104001203E030D50DE4C39FFFE49EFEE49DFD81
:04211400E49CFC2229
:10047200E8600FECC313FCED13FDEE13FEEF13FF68
:03048200D8F1228C
:10048500E86010ECA2E713FCED13FDEE13FEEF138D
:04049500FFD8F0227A
:10049900E8600FEFC333FFEE33FEED33FDEC33FCC1
:0304A900D8F12265
:1004AC00BB010DE58229F582E5833AF5830204E070
:1004BC005007E92582F802055EBBFE07E92582F8A4
:0404CC0002056A2299
:1004D000E493FC740193FD740293FE740393FF2272
:0C04E000ECF0A3EDF0A3EEF0A3EFF0228F
:1004EC00BB010DE58229F582E5833AF58302058F80
:1004FC005007E92582F8020576BBFE07E92582F84C
:04050C000205C02202
:0C051000A42582F582E5F03583F58322F6
:10051C00D083D082F8E4937012740193700DA3A36E
:10052C0093F8740193F5828883E473740293686082
:06053C00EFA3A3A380DF82
:060542008A838982E47344
:1019E8000224BDE493A3F8E493A34003F68001F234
:1019F80008DFF48029E493A3F85407240CC8C33300
:101A0800C4540F4420C8834004F456800146F6DFCE
:101A1800E4800B01020408102040809015E6E47E63
:101A2800019360BCA3FF543F30E509541FFEE493C3
:101A3800A360010ECF54C025E060A840B8E493A38A
:101A4800FAE493A3F8E493A3C8C582C8CAC583CAB5
:101A5800F0A3C8C582C8CAC583CADFE9DEE780BE6D
:0116B7000032
:10054800C5F0F8A3E028F0C5F0F8E582158270023E
:060558001583E038F022DB
:0C055E00ECF608EDF608EEF608EFF622C9
:0C056A00ECF208EDF208EEF208EFF222CD
:10057600D083D082E493F608740193F6087402934C
:09058600F608740393F674047383
:10058F00A8828583F0D083D0821205A61205A61209
:10059F0005A61205A6E473E493A3C583C5F0C5832E
:1005AF00C8C582C8F0A3C583C5F0C583C8C582C8B6
:0105BF002219
:1005C000D083D082E493F208740193F2087402930A
:0905D000F208740393F274047341
:00000001FF
