:080A5700120A26120A3D80FB81
:100A0B00E4FFC29974002FF582E43400F583E0F51E
:0A0A1B00993099FD0FBF18EAC29947
:010A250022AE
:1009C100E5147006EF64A5601722E514B40111EF78
:1009D100645A600CBFA5047E0180027E008E142241
:1009E100AE14051474002EF582E43400F583EFF0A3
:1009F100E514B41814E4F5147B017A0079007D0341
:0A0A0100120800EF6003120A0B2236
:100A2600E4F514759850438E0575D6FB75D780434B
:070A36008E10C298C2992244
:030A3D0030980AE4
:0A0A4000859908C298AF081209C199
:010A4A002289
:07096800E92402F9E43AFA68
:06096F008B0F8A108911B4
:1009750074FFF512F513E4FDAB0FAA10A9118D82D2
:100985007583001209196213E4FCE51330E015E5DF
:1009950012C313FEE51313FFEE64A0F512EF640115
:1009A500F513800BE512C313F512E51313F5130CBC
:0B09B500BC08D70DBD14C1AE12AF137B
:0109C0002214
:080800008D0C8B098A0A890B9B
:10080800120900B4A50A900001120919645A60037C
:100818007F0022900002120919B4010A9000031205
:100828000919640160037F0022900005120919FF6D
:10083800650C6007EFF460037F002290000C12093A
:1008480019D39408500890000D12091960037F000D
:1008580022900017120919FE900016120919FDEED0
:10086800F50DEDF50E120968EF650E7003EE650DD6
:1008780060037F0022AB09AA0AA90B9000041209A1
:1008880019FF900004E50C120946900005EF1209C3
:100898004690000C740812094690000D7401120964
:1008A8004690000EE412094690000FE50C12094626
:1008B80090001074E1120946900011740112094663
:1008C800900012E412094690001374011209469030
:1008D8000014E41209469000157401120946120921
:1008E80068AB09AA0AA90B900016EF1209469000F6
:0708F80017EE1209467F0113
:0108FF0022D6
:03000000020A4BA6
:0C0A4B00787FE4F6D8FD758114020A578C
:10090000BB010689828A83E0225002E722BBFE02F5
:09091000E32289828A83E4932228
:10091900BB010CE58229F582E5833AF583E0225093
:1009290006E92582F8E622BBFE06E92582F8E222DD
:0D093900E58229F582E5833AF583E49322F7
:10094600F8BB010DE58229F582E5833AF583E8F0E7
:10095600225006E92582C8F622BBFE05E92582C893
:02096600F2227B
:00000001FF
